:100000000C9446000C9450000C9450000C9450003A
:100010000C9450000C9450000C9450000C94500020
:100020000C9450000C9450000C9450000C94500010
:100030000C9450000C9450000C9450000C94500000
:100040000C9450000C9450000C9450000C945000F0
:100050000C945000000000000000000000080000A8
:100060000008000000080000000800000000000078
:100070000008000004B6E704B6D304B6C704B6C34C
:1000800002900703AC8103AC8002900011241FBED4
:10009000CFE5D8E0DEBFCDBF0E9452000C94C6026F
:1000A0000C9400000F931F93DF93CF93CDB7DEB76F
:1000B0006C970FB6F894DEBF0FBECDBF84E00E94F0
:1000C000DB0084E590E00E94F90186E594E3A2E17B
:1000D000B0E089839A83AB83BC838D818E7F8260FD
:1000E0008D8384E08E838EED8F838DEA88878EEBFF
:1000F00089878FEE8A87CE0101960E94A9018E0121
:10010000015F1F4F0E943E018823E1F3C8010E9456
:100110004E018823B9F38F859889A989BA890A96EF
:10012000A11DB11D8F87988BA98BBA8BC8010E9426
:10013000A901E8CFC4980E94C1028FEF0E94C102BA
:10014000C49A0895FF920F931F93182F062FF42E31
:10015000C49885E00E94C102812F0E94C102802FB5
:100160000E94C1028F2D0E94C102C49A1F910F915B
:10017000FF9008951F93182FC49883E00E94C10236
:10018000812F0E94C1028FEF0E94C102C49A1F9169
:1001900008950F931F93182F062FC49882E00E9492
:1001A000C102812F0E94C102802F0E94C102C49A05
:1001B0001F910F9108950F931F93CF93DF93182FE3
:1001C000883008F055C0C49ABC9AC798C598C6989C
:1001D000BF9ABD9ABE980E94BC02C49880EC0E944F
:1001E000C10286E69EE00197F1F7C49A80E090E9AB
:1001F0000197F1F7C49882E00E94C10288E20E9450
:10020000C102E3E01E9FE0011124FE01EC58FF4F04
:10021000E4918E2F0E94C102FE01EB58FF4F049122
:10022000802F0E94C102CA58DF4FFE0184910E94B4
:10023000C10283E00E94C102C49A8DE060E00E9486
:10024000C900BA98C29A8CE060E00E94C90089E2B5
:100250000E94BA00182F8FE060E00E94C9001017BA
:1002600039F48EE00E94BA00807ED9F781E001C0A7
:1002700080E0DF91CF911F910F91089586B386950D
:10028000869580958170089580EA0E949A0090E09A
:100290008475843509F091E0892F0895CF92DF921B
:1002A000FF920F931F93CF93DF93EC0180EB0E949B
:1002B0009A00F82E082F10E020E4C22ED12CC02284
:1002C000D12286FF02C080E905C087FD02C080E020
:1002D00038C084E9C4980E94C102CE010E946F0216
:1002E0008170880F9C819D7F982B9C838FEF0E944B
:1002F000C10293E0169507959A95E1F7202F21709A
:100300009C819E7F922B9C83082F0F700D8310E0A1
:1003100008C08FEF0E94C102FE01E10FF11D86832C
:100320001F5F1017B0F3C49ACD2819F08CE261E07A
:1003300002C08CE262E040E00E94A2008F2D877034
:100340008F5FDF91CF911F910F91FF90DF90CF9042
:100350000895FF920F931F93CF93DF93EC0180EAF0
:100360000E949A0082FD02C0FF240BC084FD03C0DE
:1003700092E0F92E06C086FF02C0FF2433C084E05D
:10038000F82EC4988F2D80640E94C1026C816695FE
:100390006170CE010E9435020D810F708C8180FF4B
:1003A00005C0802F80640E94C1020EC0802F0E9471
:1003B000C10210E007C0FE01E10FF11D86810E941D
:1003C000C1021F5F1017B8F3C49A84E08A95F1F751
:1003D000C498FF2011F4FF24F3948F2D80680E94AD
:1003E000C102C49A8F2DDF91CF911F910F91FF9081
:1003F00008950F931F93CF93DF93EC018FE060EE8E
:1004000040E80E94A2008EE00E94BA00807E803800
:10041000D1F780E664E00E94C90080E760E00E94B6
:10042000C90000E0C49882E00E94C102802F0E94AF
:10043000C10210E0003211F4183048F4FE01219698
:10044000E4918E2F0E94C1021F5F1C3099F7C49A5D
:10045000005F003339F78FE060EE40E00E94A200B9
:10046000DF91CF911F910F910895CF93DF93EC010E
:100470006623D9F08A819B8135E0969587953A95D8
:10048000E1F78FB99A81779BFECF8FB1892F880FC3
:10049000880F880F807E88609370892B0E94C1022C
:1004A00089810E94C102888115C08881998123E0D9
:1004B000969587952A95E1F78FB98881779BFECF2E
:1004C0009FB18295880F807E0E94C10280E00E94C9
:1004D000C10280E00E94C102DF91CF9108951F9375
:1004E000CF93DF93EC018FEF0E94C102182F8FEFA3
:1004F0000E94C102482F212F30E083FF1FC08FEFE1
:100500008FB995E0220F331F9A95E1F73B832A8339
:10051000779BFECF8FB189838FEF8FB9842F837044
:100520009A81892B4695469546954C71842B8A83F2
:10053000779BFECF8FB1888381E01AC08FEF8FB990
:100540001B821A8283E0220F331F8A95E1F73983D9
:100550002883779BFECF8FB18FEF8FB94295469559
:1005600047708881842B8883779BFECF8FB180E092
:10057000DF91CF911F91089581E58DB981E08EB90A
:1005800008958FB9779BFECF8FB10895F894FFCF70
:00000001FF
