:100000002EC048C047C046C045C044C0FBC042C027
:1000100041C040C03FC0A5C3D4C3C9C33BC03AC060
:1000200039C038C037C000000000000000000008E0
:1000300000000008000000080000000800000000A8
:1000400000000008000004B6E704B6D304B6C704F5
:10005000B6C302900703AC8103AC80029000112468
:100060001FBECFE5D4E0DEBFCDBF10E0A0E6B0E01C
:10007000E2EDF3E102C005900D92A237B107D9F786
:1000800011E0A2E7B0E001C01D92A139B107E1F78C
:1000900057D99DC9B5CF61E083E6A6D42CEC8CEC92
:1000A00091E0215080409040E1F700C060E083E69D
:1000B0009BD461E080E098D42CEC8CEC91E0215052
:1000C00080409040E1F700C026E686EE90E02150A7
:1000D00080409040E1F726E686EE90E02150804097
:1000E0009040E1F760E080E07FD461E081E07CD483
:1000F0002CEC8CEC91E0215080409040E1F700C066
:1001000026E686EE90E0215080409040E1F726E61A
:1001100086EE90E0215080409040E1F760E081E081
:1001200063D461E082E060D426E686EE90E0215060
:1001300080409040E1F72CEC8CEC91E02150804025
:100140009040E1F700C026E686EE90E02150804026
:100150009040E1F760E082E047D461E083E044D47E
:100160002CEC8CEC91E0215080409040E1F700C0F5
:1001700026E686EE90E0215080409040E1F726E6AA
:1001800086EE90E0215080409040E1F760E083E00F
:100190002BD461E084E028D42CEC8CEC91E021504D
:1001A00080409040E1F700C026E686EE90E02150C6
:1001B00080409040E1F726E686EE90E021508040B6
:1001C0009040E1F760E084E00FD42CEC8CEC91E0FF
:1001D000215080409040E1F700C026E686EE90E096
:1001E000215080409040E1F708958EB58D608EBD1E
:1001F0001DBC1CBC87E490E09BBD8ABD89B78061B3
:1002000089BF08951F920F920FB60F9211242F935A
:100210003F934F935F936F937F938F939F93AF938E
:10022000BF93EF93FF9380916000909161000097DE
:1002300031F00197909361008093600046C081E0A7
:1002400090E0909361008093600020B360B340B36E
:1002500050B386B3E0B37091740090E0880F991F9B
:1002600082709927F8E02F9F90011124207E822B25
:10027000469546954695487066956071462B529511
:1002800056955470452BE2FB992790F9492B842B06
:100290008095872720917900282320952093790045
:1002A00090917A009823922790937A008223892351
:1002B000909174009827909374002091730090910E
:1002C00074009823922B9093730080916200909118
:1002D0006300009731F00197909363008093620070
:1002E0000CC087EC90E0909363008093620081E003
:1002F00080937D0077D060D314D6FF91EF91BF91AA
:10030000AF919F918F917F916F915F914F913F91AD
:100310002F910F900FBE0F901F9018950F931F9362
:10032000CF93DF93C5E8D0E00CE310E01882C8015A
:1003300039D88F3F11F0888301C01882888182608C
:1003400089930F5F1F4F0834110581F7DF91CF911B
:100350001F910F910895843608F084568C30B8F5BB
:10036000623078F4E82FF0E0EB57FF4F9081292FAF
:1003700026602083611103C09E7F966017C097603E
:10038000908367FF14C0262F207730E094E03595E6
:1003900027959A95E1F7E82FF0E0EB57FF4F922F62
:1003A00090953081932367706223962B90832FEF73
:1003B0003FE794E0215030409040E1F700C000005A
:1003C000E82FF0E0EB57FF4F608161709CC58336EA
:1003D00009F40AC30895E82FF0E0EB57FF4F80813E
:1003E000817008950895EF92FF920F931F93CF931A
:1003F000DF93CDB7DEB72E970FB6F894DEBF0FBEF2
:10040000CDBF26E636EE90E0215030409040E1F737
:1004100095EA99839AE59A839BE09B8395E09C8378
:1004200070E06E5F7F4F35E0660F771F3A95E1F71A
:1004300060616D831E821F82188619861A861B864C
:100440008C8780E18D871E86FE013396CE010E9645
:1004500031912E85230F2E87E817F907C9F78E01F2
:100460000F5F1F4F7801EEE0EE0EF11CF801819155
:100470008F01D3D10E151F05C9F72E960FB6F8942C
:10048000DEBF0FBECDBFDF91CF911F910F91FF90C7
:10049000EF9008950F931F93CF93DF93C5E8D0E0BB
:1004A0000CE310E0688161FF07C0862F8D7F888391
:1004B0006170802F885D97DF688162FF06C0862F9C
:1004C0008B7F88836170C80175D721960F5F1F4F9E
:1004D0000834110539F7DF91CF911F910F910895DD
:1004E000FF920F931F93CF93DF93EC01F62E072F0C
:1004F000142F50E060E070E08F2D902F4CD71882C1
:10050000FC820D83FA820B8319831F831E83DF9184
:10051000CF911F910F91FF900895FC01A281B381AB
:100520008D919681915019F49181A91BB109B383E2
:10053000A28396832FB7F8949081915090832FBF18
:100540000895EF92FF920F931F93CF93DF9300D004
:10055000CDB7DEB78C01FC018081841788F07B0168
:1005600009C0C80149836A83D8DFF70181937F01FD
:100570006A8149818E2D861B841798F381E001C022
:1005800080E00F900F90DF91CF911F910F91FF901E
:10059000EF900895DC011296ED91FC911397808104
:1005A0000895CF93DF93DC018C918417C0F01296ED
:1005B000CD91DC91139716968C911697FB0109C08B
:1005C00099919193815029F411968C911197C81BA0
:1005D000D1099E2F961B941798F381E001C080E00B
:1005E000DF91CF910895FC01808190E00895FC0196
:1005F000908181819817A0F4A481B5816D93878142
:10060000815019F48181A81BB1098783B583A48324
:100610009FB7F89480818F5F80839FBF81E00895AA
:1006200080E00895CF92DF92FF920F931F93CF93B4
:10063000DF931F92CDB7DEB78C01F62EC62ED72ED4
:1006400080E009C0F60161916F01C8014983CFDFE5
:100650004981882321F09C2D9F19941798F30F90BE
:10066000DF91CF911F910F91FF90DF90CF90089570
:10067000CF92DF92FF920F931F93CF93DF931F923E
:10068000CDB7DEB78C01F62EC62ED72E80E00BC07C
:10069000F6018FEFC81AD80A6491C8014983A7DF11
:1006A0004981882321F09C2D9F19941788F30F907E
:1006B000DF91CF911F910F91FF90DF90CF90089520
:1006C0000F931F93CF93DF93EC01062F10E006C02A
:1006D000CE0123DF682FCE018ADF1F5F1013F8CF12
:1006E00080E090E0DF91CF911F910F910895EF92FC
:1006F000FF920F931F93CF93DF938C01EB018881BF
:10070000E42E841708F4E82EF12C06C0CE0105DF94
:10071000682FC8016CDFF394FE10F8CF8F2DDF91A6
:10072000CF911F910F91FF90EF9008958FB710BC5C
:100730009FEB99B9F89498ED9AB996E890BD9CB161
:100740005F99FDCF92EC9BB98FBF44E661E970E001
:100750008DEF90E0C5DE40E565E071E085EF90E06B
:10076000BFCE1F920F920FB60F9211242F933F937B
:100770004F935F936F937F938F939F93AF93BF93A9
:10078000EF93FF936CB18DEF90E031DFFF91EF912C
:10079000BF91AF919F918F917F916F915F914F9199
:1007A0003F912F910F900FBE0F901F9018951F92A1
:1007B0000F920FB60F9211240F900FBE0F901F9043
:1007C00018951F920F920FB60F9211242F933F93FB
:1007D0004F935F936F937F938F939F93AF93BF9349
:1007E000EF93FF938091F500882329F085EF90E047
:1007F00094DE8CB901C05598FF91EF91BF91AF91F4
:100800009F918F917F916F915F914F913F912F9128
:100810000F900FBE0F901F901895682F85EF90E0F6
:10082000E6DE559A0895CF93DF93EC0101C0F5DF22
:1008300089918111FCCFDF91CF91089585B38F739A
:1008400085BB8FE384BB81B3837081BB82B38C6F24
:1008500082BBB898C09A109256010895E4E6F0E081
:10086000A5E8B0E09191981303C09C9190FD07C05A
:10087000119690E0E037F907A9F780E0089581E04C
:100880000895FF920F931F93CF93DF93082FF62EB7
:10089000C4E6D0E010E08991801303C06F2D812F52
:1008A0005ADD1F5F1C30B9F7DF91CF911F910F9177
:1008B000FF90089580915601823011F410927B00D0
:1008C00090917B00911107C010927C00833019F445
:1008D00081E080937B0080917B00813009F065C0CE
:1008E00080917C00813099F480E0B8DF81110CC0E8
:1008F00081E0B4DF811108C083E0B0DF811104C062
:1009000084E0ACDF882319F067EF82E0BADF8091E2
:100910007C00823019F466EF80E01DDD80917C0060
:10092000833019F466EF81E016DD80917C0084301D
:1009300019F466EF82E00FDD80917C00853019F4B8
:1009400066EF83E008DD80917C00863019F466EF65
:1009500084E001DD80917C00873019F466EF85E04A
:10096000FADC80917C00863011F466EFF4DC809133
:100970007C00873011F466EFEEDC80917C008830DB
:1009800011F466EFE8DC80917C00893011F466EFA9
:10099000E2DC80917C008F3019F466EF82E071DF39
:1009A00080917C008F5F80937C0080917C008E31F1
:1009B00010F010927B00089580917000982F915054
:1009C0009093700081110FC08091550191E08927AB
:1009D0008093550110927000809157018F5F809332
:1009E0005701909358010895811106C0613021F597
:1009F000AC9A0895AC980895813009F5613011F5ED
:100A0000AB9A0895AB980895613011F5AA9A0895AC
:100A1000AA9808956130F9F4A99A0895A9980895BB
:100A2000613009F5A89A0895A89808956130F1F405
:100A3000AD9A0895AD9808956623E1F20895823045
:100A400019F303C06623F1F20895833019F306C049
:100A50006623F1F20895662309F30895843001F3C3
:100A6000833621F308956623F9F20895662311F37E
:100A70000895FF920F931F93CF93DF93C0E0D0E0D0
:100A800001E010E0FC2E2091730030E00C2E02C03B
:100A9000359527950A94E2F720FF14C080917300E2
:100AA00098010C2E01C0220F0A94EAF78227809346
:100AB00073008C2FD3DE882311F066EF01C067EF3F
:100AC0008C2FDFDE8F2DCADE682F8F2D8DDF2196D4
:100AD000C530D105B9F680915601813059F028F022
:100AE000823069F08330C1F515C08091740087FFB2
:100AF00020C028C08091740087FF2EC023C0809141
:100B0000740087FD29C01092570162E088E7FBD18D
:100B100083E020C08091740087FD14C0809155014E
:100B2000882311F0AD9A01C0AD98809157018630AD
:100B300098F0AD9860E088E756DC60E088E7E3D1A4
:100B400081E008C0AD9A61E088E74DDC61E088E7AC
:100B5000DAD182E08093560180915801882341F0D8
:100B600010925801DF91CF911F910F91FF90A2CE6B
:100B7000DF91CF911F910F91FF90089584E015D2DE
:100B800086E290E018D382E092E0A1E0B0E08093AA
:100B9000590190935A01A0935B01B0935C01EDE57C
:100BA000F1E080818E7F8260808382E080935E01AD
:100BB00010925F011092600189E491E8A1E0BDE02C
:100BC0008093830190938401A0938501B093860163
:100BD000E7E8F1E080818E7F8260808323E02093CC
:100BE00088012093890131E030938A0110928B01B2
:100BF00083E092E0A1E0B0E08093750190937601EC
:100C0000A0937701B0937801E9E7F1E080818E7FCE
:100C10008260808388E080937A0110927B01109239
:100C20007C0189E091E0A2E0B0E0809367019093BD
:100C30006801A0936901B0936A01EBE6F1E080815D
:100C40008E7F8260808320936C0120936D013093AE
:100C50006E0110926F010895AF92BF92CF92DF9212
:100C6000EF92FF920F931F93CF93DF93CDB7DEB731
:100C70002E970FB6F894DEBF0FBECDBFFC01A98240
:100C8000BA82CB82DC8249815A816B817C81DB0113
:100C9000CA012AE1B695A795979587952A95D1F728
:100CA00087709927AA27BB2780838A019B01A6E129
:100CB0003695279517950795AA95D1F70F701127A7
:100CC000222733270183DB01CA011EE0B695A795D1
:100CD000979587951A95D1F78283DB01CA0106E0C3
:100CE000B695A795979587950A95D1F783834F7306
:100CF000552766277727448380E02E960FB6F89411
:100D0000DEBF0FBECDBFDF91CF911F910F91FF903E
:100D1000EF90DF90CF90BF90AF900895CF92DF9289
:100D2000EF92FF920F931F93FC0140814770408325
:100D300081818F7081830281C38094819F739483AA
:100D400010E020E030E05EE0000F111F221F331F93
:100D50005A95D1F7D12CE12CF12C66E0CC0CDD1C9E
:100D6000EE1CFF1C6A95D1F70C0D1D1D2E1D3F1D9D
:100D70003058090F111D211D311D50E060E070E059
:100D8000EAE1440F551F661F771FEA95D1F7040F5C
:100D9000151F261F371F90E0A0E0B0E0F6E1880F96
:100DA000991FAA1FBB1FFA95D1F7080F191F2A1FF9
:100DB0003B1FB801C9011F910F91FF90EF90DF9089
:100DC000CF900895AF92BF92CF92DF92EF92FF92B1
:100DD0000F931F93CF93DF93CDB7DEB763970FB613
:100DE000F894DEBF0FBECDBF3CD1882309F47AC092
:100DF000CE01019645D1882309F474C089819A8176
:100E0000AB81BC818F3F9140A105B10531F48D814B
:100E100081FF03C060E083E6E7DDA980BA80CB8074
:100E2000DC80ED80FE800F81188529853A854B8511
:100E30005C856D857E85CE010F960EDF8B898930AE
:100E400089F48A89863071F48F818C3058F49885C2
:100E5000913011F467EF7FDA8885811103C066EF66
:100E60008F8179DA8B898A30E9F49A899630D1F4C6
:100E70008F818A30B9F423E02F8724E0288B2989D9
:100E80002A8B998B8B8BCE010F9648DF69837A83EF
:100E90008B839C8382E08E838BE08F83CE010196CF
:100EA0003CD1F9D88B898B30E9F49A899630D1F40A
:100EB0001F811130B9F423E02F8724E0288B298982
:100EC0002A8B998BCE010F9629DF69837A838B83D6
:100ED0009C8382E08E831F83CE0101961ED169859B
:100EE000888581DA63960FB6F894DEBF0FBECDBF5A
:100EF000DF91CF911F910F91FF90EF90DF90CF90F6
:100F0000BF90AF9008958093890160938A01EBE8C8
:100F1000F1E080818F5F808383E891E0FED081E003
:100F2000089508951F93CF93DF931F92CDB7DEB737
:100F3000182FC29882E06983FED1812FFCD169818C
:100F4000862FF9D1C29A0F90DF91CF911F9108950A
:100F5000CF93C82FC29883E0EED18C2FECD18FEFC6
:100F6000EAD1C29ACF9108951F93CF93DF9300D017
:100F7000CDB7DEB7182FC29885E04A836983DBD1ED
:100F8000812FD9D16981862FD6D14A81842FD3D19F
:100F9000C29A0F900F90DF91CF911F910895C29840
:100FA000CAD18FEFC8D1C29A08950F931F93CF93E0
:100FB000DF93C82F883010F080E04EC0C29ABA9AF2
:100FC000C598C398C498BD9ABB9ABC98AFD1C29833
:100FD00080ECB1D186E69EE00197F1F70000C29A5D
:100FE0008FEF9FE80197F1F700C00000C29882E000
:100FF000A2D188E2A0D100E010E08C2F90E0EC01BB
:10100000CC0FDD1FC80FD91FF801EC0FFD1FEA5BE5
:10101000FF4F849190D10F5F1F4F03301105A1F74F
:1010200083E089D1C29A60E08DE07CDFB998C19AF3
:1010300060E08CE077DF89E28BDF182FFE01E95B4F
:10104000FF4FC49160E08FE06DDF1C13B5CF8EE0E1
:101050007FDF807EE1F781E0DF91CF911F910F91DB
:10106000089586B38695817091E08927089580EA76
:1010700096DF982F947581E0943509F480E0089507
:10108000DF92EF92FF920F931F93CF93DF93EC01C8
:1010900080EB85DFF82E20E4D22ED82286FD04C016
:1010A00087FF32C084E901C080E9C29844D1CE01F3
:1010B000E9D09C8180FB91F99C838FEF3CD1F3FABE
:1010C000222720F99C8120FB90F99C839FE0E92E48
:1010D000E822ED8200E010E008C08FEF2CD1FE0185
:1010E000E00FF11F86830F5F1F4F0E15B0F3C29AFA
:1010F00040E0DD2011F061E001C062E08CE234DF0D
:101100008F2D87708F5F01C080E0DF91CF911F919D
:101110000F91FF90EF90DF900895EF92FF920F9361
:101120001F93CF93DF93EC0180EA39DF82FF07C082
:1011300084FF07C086FD36C094E0F92E04C0F12C70
:1011400002C082E0F82EC2988F2D8064F4D06C81AA
:1011500066956170CE0161D0ED808FE0E8228C81D0
:1011600080FF04C08E2D8064E6D00EC08E2DE3D0AB
:1011700000E010E007C0FE01E00FF11F8681DBD028
:101180000F5F1F4F0E15B8F3C29A85E08A95F1F7ED
:10119000C298F11002C0FF24F3948F2D8068CBD049
:1011A000C29A01C0F12C8F2DDF91CF911F910F9129
:1011B000FF90EF9008950F931F93CF93DF93EC016F
:1011C00040E860EE8FE0D0DE8EE0C2DE807E8038C8
:1011D000D9F764E080E6A6DE60E080E7A3DE10E0F9
:1011E000C29882E0A8D0812FA6D000E0103211F47E
:1011F000083038F4FE01219684919DD00F5F0C30A9
:10120000A9F7C29A105F103359F740E060EE8FE003
:10121000DF91CF911F910F91A7CECF93DF93EC0178
:101220006623D1F08A819B8135E0969587953A9522
:10123000E1F78FB98A8198E0899F90011124207E7F
:10124000332728608370822B779BFECF9FB173D0AA
:10125000898171D0888113C08881998123E0969516
:1012600087952A95E1F78FB988818295880F807ECE
:10127000779BFECF9FB15FD080E05DD080E0DF91B3
:10128000CF9159C01F93CF93DF93EC018FEF53D0D1
:10129000182F8FEF50D09FEF9FB983FF1CC090E2B3
:1012A000199F900111243B832A83779BFECF9FB126
:1012B00099839FEF9FB9982F93702A81922B8695DF
:1012C000869586958C71982B9A83779BFECF8FB1EC
:1012D000888381E017C01B821A8298E0199F9001D1
:1012E000112439832883779BFECF9FB19FEF9FB94D
:1012F0008295869587709881982B9883779BFECFEF
:101300008FB180E0DF91CF911F910895CF93DF934C
:101310001F92CDB7DEB78CE11BDE982F8DE199834C
:1013200017DE99810F90DF91CF91089581E58DB9F6
:1013300081E08EB908958FB9779BFECF8FB1089564
:101340007DDAF4D92FEF8FE794E021508040904070
:10135000E1F700C00000E2D748D710DC9CD67894B3
:101360002DE088E190E00FB6F894A89581BD0FBEFE
:1013700021BDC1E0A8958ED87CDB24DD80917D0065
:10138000882339F010927D00809172008C27809321
:101390007200BCDFEFCFDC0101C06D9341505040C3
:1013A000E0F70895E199FECF9FBB8EBBE09A9927A5
:1013B0008DB30895262FE199FECF9FBB8EBB2DBB29
:1013C0000FB6F894E29AE19A0FBE01960895F89448
:0213D000FFCF4D
:1013D2000200C80000000101000103030404020529
:0213E200010008
:00000001FF
