:100000002EC048C047C046C045C044C027C142C0FA
:1000100041C040C03FC0CFC3FEC3F3C33BC03AC0E2
:1000200039C038C037C000000000000000000008E0
:1000300000000008000000080000000800000000A8
:1000400000000008000004B6E704B6D304B6C704F5
:10005000B6C302900703AC8103AC80029000112468
:100060001FBECFE5D4E0DEBFCDBF10E0A0E6B0E01C
:10007000ECEFF3E102C005900D92A237B107D9F77A
:1000800011E0A2E7B0E001C01D92A139B107E1F78C
:10009000ACD0B2C9B5CF83E661E0D8D48CEC9CEC8F
:1000A000A1E081509040A040E1F700C083E660E00D
:1000B000CDD480E061E0CAD48CEC9CECA1E081500E
:1000C0009040A040E1F700C086E696EEA0E08150A7
:1000D0009040A040E1F786E696EEA0E08150904087
:1000E000A040E1F780E060E0B1D481E061E0AED40F
:1000F0008CEC9CECA1E081509040A040E1F700C066
:1001000086E696EEA0E081509040A040E1F786E6BA
:1001100096EEA0E081509040A040E1F781E060E0E1
:1001200095D482E061E092D486E696EEA0E081501C
:100130009040A040E1F78CEC9CECA1E08150904015
:10014000A040E1F700C086E696EEA0E08150904026
:10015000A040E1F782E060E079D483E061E076D40A
:100160008CEC9CECA1E081509040A040E1F700C0F5
:1001700086E696EEA0E081509040A040E1F786E64A
:1001800096EEA0E081509040A040E1F783E060E06F
:100190005DD484E061E05AD48CEC9CECA1E0815009
:1001A0009040A040E1F700C086E696EEA0E08150C6
:1001B0009040A040E1F786E696EEA0E081509040A6
:1001C000A040E1F784E060E041D48CEC9CECA1E03D
:1001D00081509040A040E1F700C086E696EEA0E096
:1001E00081509040A040E1F708951F9359D3C7D2A2
:1001F0008FEF9FE7A4E081509040A040E1F700C05E
:100200000000B7D01ED0F3D446DF78942DE088E10B
:1002100090E00FB6F894A89581BD0FBE21BD11E006
:10022000A89565D159D4FED580917D00882339F0F9
:1002300010927D0080917200812780937200A6D871
:10024000EFCF8EB58D608EBD1DBC1CBC87E490E0E9
:100250009BBD8ABD89B7806189BF08951F920F92A7
:100260000FB60F9211242F933F934F935F936F9389
:100270007F938F939F93AF93BF93EF93FF9380915F
:100280006200909163009C012150304030936300E4
:1002900020936200009709F042C081E090E09093C3
:1002A00063008093620020B350B380B340B396B331
:1002B00030B36091770086958695869588705695BF
:1002C0005071852B429546954470842B3695369512
:1002D0003170832B220F220F220F207E822B990F49
:1002E0009270892B8095862790917A00982390951B
:1002F00090937A0020917900282329272093790070
:10030000892382239091770098279093770090918A
:100310007800209177002823292B20937800809162
:100320006000909161009C01215030403093610049
:1003300020936000009761F487EC90E09093610057
:100340008093600081E080937D0078D067D309D6E8
:10035000FF91EF91BF91AF919F918F917F916F919D
:100360005F914F913F912F910F900FBE0F901F9073
:1003700018950F931F93CF93DF93C5E8D0E00CE35C
:1003800010E01882C80123D888838F3F09F41882AF
:100390008881826089930F5F1F4F0834110589F7A8
:1003A000DF91CF911F910F910895843608F0845604
:1003B0008C30C8F5623078F4E82FF0E0EB57FF4F4F
:1003C0009081292F26602083662319F42E7F2083B5
:1003D00019C09760908367FF15C0262F30E0207703
:1003E000307094E0359527959A95E1F7E82FF0E085
:1003F000EB57FF4F922F90953081932367706223C4
:10040000962B90832FEF3FE744E02150304040404F
:10041000E1F700C00000E82FF0E0EB57FF4F6081EC
:10042000617091D50895833609F410D30895E5E8F5
:10043000F0E0E80FF11D8081817008950895EF923A
:10044000FF920F931F93DF93CF93CDB7DEB72E9715
:100450000FB6F894DEBF0FBECDBF26E636EE40E005
:10046000215030404040E1F795EA99839AE59A831C
:100470009BE09B8395E09C8370E06E5F7F4F35E04F
:10048000660F771F3A95E1F760616D831E821F82C8
:10049000188619861A861B868C8780E18D871E86B2
:1004A000FE013396CE010E9631912E85230F2E87B5
:1004B000E817F907C9F78E010F5F1F4F2EE0E22EF4
:1004C000F12CE00EF11EF80181918F01D0D10E15B3
:1004D0001F05C9F72E960FB6F894DEBF0FBECDBF2D
:1004E000CF91DF911F910F91FF90EF9008950F939F
:1004F0001F93CF93DF93C5E8D0E00CE310E0688151
:1005000061FF07C0862F8D7F88836170802F885D93
:1005100096DF688162FF06C0862F8B7F88836170BB
:10052000C8015DD721960F5F1F4F0834110539F7B9
:10053000DF91CF911F910F910895FF920F931F9319
:10054000CF93DF93EC01F62E072F142F862F972FD2
:1005500060E070E050E034D71882FC820D83FA82AC
:100560000B8319831F831E83DF91CF911F910F91FE
:10057000FF900895FC01A281B3818D9196819150E5
:1005800019F49181A91BB109B383A28396832FB774
:10059000F8949081915090832FBF0895EF92FF922D
:1005A0000F931F93DF93CF9300D0CDB7DEB77C01BD
:1005B000FC018081841790F0062F172F09C0C70116
:1005C00049836A83D7DFF80181938F016A8149816A
:1005D000802F861B841798F381E001C080E00F9084
:1005E0000F90CF91DF911F910F91FF90EF900895A1
:1005F000DC011296ED91FC91139780810895CF93C1
:10060000DF93FC0180818417A0F0A281B381268151
:10061000862F972FEC0180E008C09D91999321507F
:1006200019F42181A21BB1098F5F8417B0F381E017
:1006300001C080E0DF91CF910895FC01808190E0BE
:100640000895FC01908181819817A0F4A481B5815F
:100650006D938781815019F48181A81BB10987832B
:10066000B583A4839FB7F89480818F5F80839FBFF9
:1006700081E0089580E00895CF92DF92FF920F937A
:100680001F93DF93CF930F92CDB7DEB76C01F62E99
:10069000062F172F80E009C0F80161918F01C60174
:1006A0004983CFDF4981882321F0902F9F19941728
:1006B00098F30F90CF91DF911F910F91FF90DF90F2
:1006C000CF900895CF92DF92FF920F931F93DF9305
:1006D000CF930F92CDB7DEB76C01F62E062F172FF2
:1006E00080E00AC0F8016491C6014983AADF49810C
:1006F000882331F00F5F1F4F902F9F19941790F3AD
:100700000F90CF91DF911F910F91FF90DF90CF90CD
:1007100008950F931F93CF93DF93EC01062F10E002
:1007200006C0CE0127DF682FCE018BDF1F5F1017B9
:10073000C0F380E090E0DF91CF911F910F91089579
:10074000EF92FF920F931F93CF93DF938C01EB01F6
:100750008881F42E841708F4F82EEE2406C0CE010A
:1007600009DF682FC8016DDFE394EF14C0F38F2D0C
:10077000DF91CF911F910F91FF90EF9008958FB768
:1007800010BC9FEB99B9F89498ED9AB996E890BD92
:100790009CB15F99FDCF92EC9BB98FBF8DEF90E03C
:1007A00061E970E044E6C9DE85EF90E065E071E064
:1007B00040E5C3DE08951F920F920FB60F921124E9
:1007C0002F933F934F935F936F937F938F939F9359
:1007D000AF93BF93EF93FF936CB18DEF90E031DF58
:1007E000FF91EF91BF91AF919F918F917F916F9109
:1007F0005F914F913F912F910F900FBE0F901F90DF
:1008000018951F920F920FB60F9211240F900FBEE2
:100810000F901F9018951F920F920FB60F921124F0
:100820002F933F934F935F936F937F938F939F93F8
:10083000AF93BF93EF93FF938091F500882329F046
:1008400085EF90E097DE8CB901C05598FF91EF914C
:10085000BF91AF919F918F917F916F915F914F91D8
:100860003F912F910F900FBE0F901F901895682FFA
:1008700085EF90E0E6DE559A0895EF92FF92CF93D0
:10088000DF93E82EE7017E01F92EE70101C0EFDFDB
:1008900089918823E1F7DF91CF91FF90EF90089540
:1008A00085B38F7385BB8FE384BB81B3837081BBBA
:1008B00082B38C6F82BBB898C09A1092560108958B
:1008C000A4E6B0E0E5E8F0E09D91981719F4908176
:1008D00090FD07C0319690E0A037B907A9F780E0F6
:1008E000089581E00895FF920F931F93CF93DF93B4
:1008F000F82E062FC4E6D0E010E089918F1519F488
:10090000812F602F52DD1F5F1C30B9F7DF91CF912F
:100910001F910F91FF90089580915601823011F43C
:1009200010927C0090917C00992339F410927B0006
:10093000833019F481E080937C0080917C008130C9
:1009400009F065C080917B00813099F480E0B8DFC8
:10095000882361F481E0B4DF882341F483E0B0DFD1
:10096000882321F484E0ACDF882319F082E067EF6C
:10097000BADF80917B00823019F480E066EF15DDEC
:1009800080917B00833019F481E066EF0EDD809169
:100990007B00843019F482E066EF07DD80917B00F4
:1009A000853019F483E066EF00DD80917B008630AE
:1009B00019F484E066EFF9DC80917B00873019F44C
:1009C00085E066EFF2DC80917B00863011F466EF03
:1009D000ECDC80917B00873011F466EFE6DC8091DF
:1009E0007B00883011F466EFE0DC80917B00893079
:1009F00011F466EFDADC80917B008F3019F482E02D
:100A000066EF71DF80917B008F5F80937B00809128
:100A10007B008E3110F010927C0008958091700060
:100A2000982F915090937000882379F4809155010C
:100A300091E08927809355011092700080915701B1
:100A40008F5F80935701909358010895882331F464
:100A5000613081F5AC9A0895AC980895813021F405
:100A6000613059F5AB9A0895823019F006C0AB9801
:100A70000895613029F5AA9A0895833019F006C0C7
:100A8000AA9808956130F9F4A99A0895843019F06C
:100A900006C0A99808956130C9F4A89A08958336CC
:100AA00019F00895A8980895613099F4AD9A0895C1
:100AB000AD980895662381F208956623C1F20895E2
:100AC0006623F1F20895662321F30895662351F316
:100AD0000895662369F30895FF920F931F93CF93B0
:100AE000DF93C0E0D0E001E010E0FC2E2091780020
:100AF00030E00C2E02C0359527950A94E2F720FFCE
:100B000016C08091780098010C2E02C0220F331F6E
:100B10000A94E2F78227809378008C2FD1DE882315
:100B200019F08C2F66EF02C08C2F67EFDCDE8F2D63
:100B3000C7DE682F8F2D8ADF2196C530D105A9F633
:100B400080915601813069F0813030F0823071F04F
:100B5000833009F03FC015C08091770087FF23C024
:100B60002DC08091770087FF35C028C08091770025
:100B700087FD30C01092570188E762E0E4D183E03E
:100B800027C08091770087FD19C080915501882387
:100B900019F083E661E002C083E660E057DF8091F0
:100BA00057018630B8F083E660E050DF88E760E008
:100BB00046DC88E760E0C7D181E00AC083E661E0F7
:100BC00045DF88E761E03BDC88E761E0BCD182E09B
:100BD0008093560180915801882319F01092580192
:100BE0009BDEDF91CF911F910F91FF90089584E0DC
:100BF00017D286E290E018D382E092E0A1E0B0E064
:100C00008093590190935A01A0935B01B0935C01CA
:100C100080915D018E7F826080935D0182E0809390
:100C20005E0110925F011092600189E491E8A1E0F9
:100C3000BDE08093830190938401A0938501B093DC
:100C40008601809187018E7F82608093870123E0F7
:100C5000209388012093890131E030938A0110921A
:100C60008B0183E092E0A1E0B0E080937501909366
:100C70007601A0937701B0937801809179018E7FFE
:100C800082608093790188E080937A0110927B01E1
:100C900010927C0189E091E0A2E0B0E080936701CE
:100CA00090936801A0936901B0936A0180916B01F0
:100CB0008E7F826080936B0120936C0120936D0185
:100CC00030936E0110926F010895AF92BF92CF9250
:100CD000DF92EF92FF920F931F93DF93CF93CDB7E5
:100CE000DEB72E970FB6F894DEBF0FBECDBFFC0166
:100CF000A982BA82CB82DC8289819A81AB81BC8154
:100D00009C01AD011AE156954795379527951A959F
:100D1000D1F7277020839C01AD0176E15695479568
:100D2000379527957A95D1F72F7021839C01AD01D6
:100D30006EE056954795379527956A95D1F72283AA
:100D40009C01AD0196E056954795379527959A9564
:100D5000D1F723838F73848380E02E960FB6F894A7
:100D6000DEBF0FBECDBFCF91DF911F910F91FF90DE
:100D7000EF90DF90CF90BF90AF900895EF92FF92E9
:100D80000F931F93FC01608167706083A181AF7036
:100D9000A1832281E38084818F73848330E040E0EB
:100DA00050E0BEE0220F331F441F551FBA95D1F704
:100DB000FF2400E010E0F6E0EE0CFF1C001F111F06
:100DC000FA95D1F72E0D3F1D401F511F2050304086
:100DD00040405048280F311D411D511D70E080E0FA
:100DE00090E0EAE1660F771F881F991FEA95D1F717
:100DF000260F371F481F591F8A2F90E0A0E0B0E050
:100E000006E1880F991FAA1FBB1F0A95D1F7280F6B
:100E1000391F4A1F5B1FB901CA011F910F91FF9033
:100E2000EF900895DF93CF93CDB7DEB763970FB6FA
:100E3000F894DEBF0FBECDBF56D1882309F47AC027
:100E4000CE0106965DD1882309F474C08E819F81FE
:100E5000A885B9858F3F21E0920720E0A20720E016
:100E6000B20731F48A8581FF03C083E660E0EEDDDE
:100E70008E819F81A885B9859C01AD01EAE15695D7
:100E8000479537952795EA95D1F7277029839C01D7
:100E9000AD0176E156954795379527957A95D1F727
:100EA0002F702A839C01AD016EE0569547953795CA
:100EB00027956A95D1F72B839C01AD0196E0569555
:100EC0004795379527959A95D1F72C838F738D8306
:100ED000893081F4263071F48C858C3058F49D85EE
:100EE000913011F467EF61DA8D85882319F48C85D0
:100EF00066EF5BDA8D818A30E9F49C819630D1F41B
:100F00008C858A30B9F423E0298324E02A832B815D
:100F10002C839B838D83CE01019630DF6E837F838C
:100F20008887998782E08B878BE08C87CE01069635
:100F300037D1B1D863960FB6F894DEBF0FBECDBFE0
:100F4000CF91DF9108958093890160938A01809108
:100F50008B018F5F80938B0183E891E021D181E049
:100F60000895DF93CF9300D000D00F92CDB7DEB7B6
:100F700083E0898384E08A8385E08C8386E08B83A9
:100F80008AE08D83CE010196F9DE0F900F900F90CD
:100F90000F900F90CF91DF9108951F93DF93CF9320
:100FA0000F92CDB7DEB7182FC29882E0698303D2C3
:100FB000812F01D26981862FFED1C29A0F90CF91E5
:100FC000DF911F9108951F93182FC29883E0F3D1EA
:100FD000812FF1D18FEFEFD1C29A1F9108951F9306
:100FE000DF93CF9300D0CDB7DEB7182FC29885E03E
:100FF0004A836983E0D1812FDED16981862FDBD1DD
:101000004A81842FD8D1C29A0F900F90CF91DF914F
:101010001F910895C298CFD18FEFCDD1C29A089574
:10102000EF92FF920F931F93DF93CF930F92CDB761
:10103000DEB7182F883008F04DC0C29ABA9AC5980A
:10104000C398C498BD9ABB9ABC98B0D1C29880ECA2
:10105000B2D186E69EE00197F1F70000C29AEFEF69
:10106000FFE83197F1F700C00000C29882E0A3D1F9
:1010700088E2A1D183E0189F7001112487010A5BE7
:101080001F4F90E0F8018491998395D199819F5FDA
:101090000F5F1F4F9330B1F783E08DD1C29A8DE07F
:1010A00060E07BDFB998C19A8CE060E076DF89E28E
:1010B0008ADF182FC701895B9F4FFC0104918FE0E5
:1010C00060E06BDF101731F48EE07DDF807EE1F7AA
:1010D00081E001C080E00F90CF91DF911F910F91CF
:1010E000FF90EF90089581E0B19980E0089580EA43
:1010F00091DF982F947581E0943509F480E008958C
:10110000DF92EF92FF920F931F93CF93DF93EC0147
:1011100080EB80DFD82E082F10E080E4E82EF12C41
:10112000E022F122D6FC04C0D7FE31C084E901C020
:1011300080E9C29840D1CE01DFD08170880F9C81B8
:101140009D7F982B9C838FEF36D121E003FF20E019
:101150009C819E7F922B9C83182F1F701D83269647
:1011600000E004C08FEF27D189930F5F0117D0F300
:10117000C29AE114F10419F08CE261E002C08CE241
:1011800062E040E02CDF8D2D87708F5F01C080E032
:10119000DF91CF911F910F91FF90EF90DF90089515
:1011A000FF920F931F93CF93DF93EC0180EA32DF1E
:1011B00082FF06C084FF06C086FD2EC014E003C077
:1011C00010E001C012E0C298812F8064F4D06C81DD
:1011D00066956170CE015BD00D810F708C8180FFB0
:1011E00004C0802F8064E7D00AC0802FE4D0269608
:1011F000FF2403C08991DFD0F394F016D8F3C29A8C
:1012000085E08A95F1F7C298112309F411E0812F46
:101210008068D1D0C29A01C010E0812FDF91CF91B8
:101220001F910F91FF9008950F931F93CF93DF931A
:10123000EC018FE060EE40E8D2DE8EE0C4DE807E1E
:101240008038D9F780E664E0A8DE80E760E0A5DEBC
:1012500010E0C29882E0AFD0812FADD000E0103214
:1012600011F4083038F4FE0121968491A4D00F5F68
:101270000C30A9F7C29A105F103359F78FE060EE77
:1012800040E0ADDEDF91CF911F910F910895CF9394
:10129000DF93EC016623C9F08A819B8135E0969546
:1012A00087953A95E1F78FB99A81892F880F880F32
:1012B000880F807E88609370892B779BFECF9FB1CB
:1012C0007AD0898178D0888113C08881998123E080
:1012D000969587952A95E1F78FB988818295880F31
:1012E000807E779BFECF9FB166D080E064D080E0A7
:1012F00062D0DF91CF9108951F93CF93DF93EC01DC
:101300008FEF59D0182F8FEF56D0212F30E083FF69
:101310001FC09FEF9FB945E0220F331F4A95E1F7A9
:101320003B832A83779BFECF9FB199839FEF9FB921
:10133000982F93702A81922B8695869586958C712D
:10134000982B9A83779BFECF8FB1888381E01AC058
:101350009FEF9FB91B821A8293E0220F331F9A9549
:10136000E1F739832883779BFECF9FB19FEF9FB929
:101370008295869587709881982B9883779BFECF6E
:101380008FB180E0DF91CF911F910895DF93CF93CC
:101390000F92CDB7DEB78CE116DE982F8DE19983E1
:1013A00012DE99810F90CF91DF91089581E58DB97B
:1013B00081E08EB908958FB9779BFECF8FB10895E4
:1013C000DC0101C06D9341505040E0F70895E19970
:1013D000FECF9FBB8EBBE09A99278DB30895262F31
:1013E000E199FECF9FBB8EBB2DBB0FB6F894E29A5E
:0C13F000E19A0FBE01960895F894FFCF1B
:1013FC00C8000200000001010001030304040205FF
:02140C000100DD
:00000001FF
