:100000002EC048C047C046C045C044C072C042C0B0
:1000100041C040C03FC009C338C32DC33BC03AC034
:1000200039C038C037C000000000000000000008E0
:1000300000000008000000080000000800000000A8
:1000400000000008000004B6E704B6D304B6C704F5
:10005000B6C302900703AC8103AC80029000112468
:100060001FBECFE5D4E0DEBFCDBF10E0A0E6B0E01C
:10007000E4E4F1E102C005900D92A237B107D9F78F
:1000800011E0A2E7B0E001C01D92A039B107E1F78D
:1000900002D056C8B5CF1F933DD3ABD28FEF9FE7A9
:1000A000A4E081509040A040E1F700C00000ABD038
:1000B00013D0C5D4789411E054D147D487D580911A
:1000C0007D00882339F010927D0080917200812795
:1000D00080937200FFD7F0CF8EB58D608EBD1DBCB2
:1000E0001CBC87E490E09BBD8ABD89B7806189BF55
:1000F00008951F920F920FB60F9211242F933F93E2
:100100004F935F936F937F938F939F93AF93BF931F
:10011000EF93FF9380916200909163009C012150C6
:1001200030403093630020936200009709F042C092
:1001300081E090E0909363008093620020B350B31D
:1001400080B340B396B330B36091770086958695BF
:100150008695887056955071852B429546954470CA
:10016000842B369536953170832B220F220F220F68
:10017000207E822B990F9270892B809586279091F3
:100180007A009823909590937A0020917900282303
:10019000292720937900892382239091770098273B
:1001A0009093770090917800209177002823292B55
:1001B0002093780080916000909161009C01215013
:1001C00030403093610020936000009759F487EC31
:1001D00090E0909361008093600081E080937D00C7
:1001E00067D056D3FF91EF91BF91AF919F918F91BF
:1001F0007F916F915F914F913F912F910F900FBE23
:100200000F901F9018950F931F93CF93DF93C5E81E
:10021000D0E00CE310E01882C8017DD788838F3FBF
:1002200009F418828881826089930F5F1F4F083418
:10023000110589F7DF91CF911F910F9108958436B1
:1002400008F084568C3048F5623078F4E82FF0E0FE
:10025000EB57FF4F9081292F26602083662319F4E6
:100260002E7F208308959760908367FF19C0262F03
:1002700030E02077307094E0359527959A95E1F736
:10028000E82FF0E0EB57FF4F822F80959081892374
:1002900067706223862B80830895833609F40FD319
:1002A0000895E5E8F0E0E80FF11D80818170089580
:1002B0000895EF92FF920F931F93DF93CF93CDB7E3
:1002C000DEB72E970FB6F894DEBF0FBECDBF26E681
:1002D00036EE40E0215030404040E1F795EA998306
:1002E0009AE59A839BE09B8395E09C8370E06E5F28
:1002F0007F4F35E0660F771F3A95E1F760616D83B8
:100300001E821F82188619861A861B868C8780E1BA
:100310008D871E86FE013396CE010E9631912E8575
:10032000230F2E87E817F907C9F78E010F5F1F4FBC
:100330002EE0E22EF12CE00EF11EF80181918F01EA
:10034000D0D10E151F05C9F72E960FB6F894DEBF53
:100350000FBECDBFCF91DF911F910F91FF90EF9016
:1003600008950F931F93CF93DF93C5E8D0E00CE37C
:1003700010E0688161FF07C0862F8D7F88836170E0
:10038000802F885D96DF688162FF06C0862F8B7F95
:1003900088836170C801C7D621960F5F1F4F08344C
:1003A000110539F7DF91CF911F910F910895FF92B9
:1003B0000F931F93CF93DF93EC01F62E072F142F8B
:1003C000862F972F60E070E050E09ED61882FC8266
:1003D0000D83FA820B8319831F831E83DF91CF91D4
:1003E0001F910F91FF900895FC01A281B3818D911F
:1003F0009681915019F49181A91BB109B383A2830D
:1004000096832FB7F8949081915090832FBF0895D1
:10041000EF92FF920F931F93DF93CF9300D0CDB74E
:10042000DEB77C01FC018081841790F0062F172F26
:1004300009C0C70149836A83D7DFF80181938F011F
:100440006A814981802F861B841798F381E001C05F
:1004500080E00F900F90CF91DF911F910F91FF904F
:10046000EF900895DC011296ED91FC911397808135
:100470000895CF93DF93FC0180818417A0F0A281BF
:10048000B3812681862F972FEC0180E008C09D91D3
:100490009993215019F42181A21BB1098F5F841710
:1004A000B0F381E001C080E0DF91CF910895FC01BD
:1004B000808190E00895FC01908181819817A0F4DB
:1004C000A481B5816D938781815019F48181A81B26
:1004D000B1098783B583A4839FB7F89480818F5F28
:1004E00080839FBF81E0089580E00895CF92DF92DE
:1004F000FF920F931F93DF93CF930F92CDB7DEB789
:100500006C01F62E062F172F80E009C0F8016191CB
:100510008F01C6014983CFDF4981882321F0902FC5
:100520009F19941798F30F90CF91DF911F910F911E
:10053000FF90DF90CF900895CF92DF92FF920F93BC
:100540001F93DF93CF930F92CDB7DEB76C01F62EDA
:10055000062F172F80E00AC0F8016491C601498375
:10056000AADF4981882331F00F5F1F4F902F9F1919
:10057000941790F30F90CF91DF911F910F91FF90FF
:10058000DF90CF9008950F931F93CF93DF93EC01EB
:10059000062F10E006C0CE0127DF682FCE018BDFCB
:1005A0001F5F1017C0F380E090E0DF91CF911F91A3
:1005B0000F910895EF92FF920F931F93CF93DF93C4
:1005C0008C01EB018881F42E841708F4F82EEE24B8
:1005D00006C0CE0109DF682FC8016DDFE394EF1478
:1005E000C0F38F2DDF91CF911F910F91FF90EF906E
:1005F00008958FB710BC9FEB99B9F89498ED9AB90C
:1006000096E890BD9CB15F99FDCF92EC9BB98FBFEE
:100610008DEF90E061E970E044E6C9DE85EF90E09F
:1006200065E071E040E5C3DE08951F920F920FB6BA
:100630000F9211242F933F934F935F936F937F9368
:100640008F939F93AF93BF93EF93FF936CB18DEF15
:1006500090E031DFFF91EF91BF91AF919F918F912A
:100660007F916F915F914F913F912F910F900FBEAE
:100670000F901F9018951F920F920FB60F92112492
:100680000F900FBE0F901F9018951F920F920FB6EC
:100690000F9211242F933F934F935F936F937F9308
:1006A0008F939F93AF93BF93EF93FF938091F50048
:1006B000882329F085EF90E097DE8CB901C055982A
:1006C000FF91EF91BF91AF919F918F917F916F912A
:1006D0005F914F913F912F910F900FBE0F901F9000
:1006E0001895682F85EF90E0E6DE559A0895EF9211
:1006F000FF92CF93DF93E82EE7017E01F92EE70109
:1007000001C0EFDF89918823E1F7DF91CF91FF905E
:10071000EF90089585B38F7385BB8FE384BB81B35E
:10072000837081BB82B38C6F82BBB898C09A1092E1
:1007300056010895A4E6B0E0E5E8F0E09D91981731
:1007400019F4908190FD07C0319690E0A037B90769
:10075000A9F780E0089581E00895FF920F931F9319
:10076000CF93DF93F82E062FC4E6D0E010E08991F6
:100770008F1519F4812F602F62DD1F5F1C30B9F7D0
:10078000DF91CF911F910F91FF90089580915601B5
:10079000823011F410927C0090917C00992339F4FE
:1007A00010927B00833019F481E080937C0080916B
:1007B0007C00813009F065C080917B00813099F424
:1007C00080E0B8DF882361F481E0B4DF882341F45E
:1007D00083E0B0DF882321F484E0ACDF882319F0C4
:1007E00082E067EFBADF80917B00823019F480E00D
:1007F00066EF25DD80917B00833019F481E066EFA0
:100800001EDD80917B00843019F482E066EF17DDF5
:1008100080917B00853019F483E066EF10DD8091D4
:100820007B00863019F484E066EF09DD80917B005F
:10083000873019F485E066EF02DD80917B00863019
:1008400011F466EFFCDC80917B00873011F466EFD9
:10085000F6DC80917B00883011F466EFF0DC80914B
:100860007B00893011F466EFEADC80917B008A30EE
:1008700019F482E066EF71DF80917B008F5F8093D7
:100880007B0080917B008E3110F010927C000895E7
:1008900080917000982F915090937000882371F48C
:1008A0008091550191E08927809355011092700045
:1008B000809157018F5F8093570168DF08958823E7
:1008C00031F4613081F5AC9A0895AC980895813087
:1008D00021F4613059F5AB9A0895823019F006C0C1
:1008E000AB980895613029F5AA9A0895833019F0DC
:1008F00006C0AA9808956130F9F4A99A0895843041
:1009000019F006C0A99808956130C9F4A89A08950D
:10091000833619F00895A8980895613099F4AD9A36
:100920000895AD980895662381F208956623C1F273
:1009300008956623F1F20895662321F3089566234E
:1009400051F30895662369F30895FF920F931F935F
:10095000CF93DF93C0E0D0E001E010E0FC2E2091C7
:10096000780030E00C2E02C0359527950A94E2F706
:1009700020FF16C08091780098010C2E02C0220F33
:10098000331F0A94E2F78227809378008C2FD2DEFF
:10099000882319F08C2F66EF02C08C2F67EFDDDE05
:1009A0008F2DC8DE682F8F2D8ADF2196C530D105A7
:1009B000A9F680915601813061F0813028F08230B3
:1009C00069F08330B1F512C08091770087FF20C0B5
:1009D00027C08091770087FF2CC022C080917700CC
:1009E00087FD27C01092570183E021C080917700D6
:1009F00087FD16C080915501882319F083E661E0D8
:100A000002C083E660E05BDF80915701863088F0AA
:100A100083E660E054DF88E760E04BDC81E007C0FC
:100A200083E661E04CDF88E761E043DC82E08093AD
:100A30005601DF91CF911F910F91FF90089584E0AF
:100A400093D186E290E094D282E092E0A1E0B0E01F
:100A50008093580190935901A0935A01B0935B0180
:100A600080915C018E7F826080935C0182E0809344
:100A70005D0110925E0110925F0189E491E8A1E0AE
:100A8000BDE08093820190938301A0938401B09391
:100A90008501809186018E7F82608093860123E0AC
:100AA000209387012093880131E0309389011092CF
:100AB0008A0183E092E0A1E0B0E08093740190931A
:100AC0007501A0937601B0937701809178018E7FB4
:100AD00082608093780188E08093790110927A0196
:100AE00010927B0189E091E0A2E0B0E08093660182
:100AF00090936701A0936801B093690180916A01A6
:100B00008E7F826080936A0120936B0120936C0139
:100B100030936D0110926E010895AF92BF92CF9203
:100B2000DF92EF92FF920F931F93DF93CF93CDB796
:100B3000DEB72E970FB6F894DEBF0FBECDBFFC0117
:100B4000A982BA82CB82DC8289819A81AB81BC8105
:100B50009C01AD011AE156954795379527951A9551
:100B6000D1F7277020839C01AD0176E1569547951A
:100B7000379527957A95D1F72F7021839C01AD0188
:100B80006EE056954795379527956A95D1F722835C
:100B90009C01AD0196E056954795379527959A9516
:100BA000D1F723838F73848380E02E960FB6F89459
:100BB000DEBF0FBECDBFCF91DF911F910F91FF9090
:100BC000EF90DF90CF90BF90AF900895EF92FF929B
:100BD0000F931F93DF93CF93CDB7DEB72F970FB649
:100BE000F894DEBF0FBECDBF22D1882309F46BC0BD
:100BF000CE01019629D1882309F465C0E980FA80E5
:100C00000B811C812E2D2F732F8789E0E81681E040
:100C1000F80682E0080780E0180779F48F818430B5
:100C200061F48885813019F484E063EB96DD888572
:100C3000882319F48F8162EB90DD2F85293011F51F
:100C4000D801C70106E0B695A795979587950A95AF
:100C5000D1F78630B9F48F818C30A0F4988591302B
:100C600011F463EBECDA8885882319F48F8162EB49
:100C7000E6DA8F818093880188858093890182E8F4
:100C800091E032D189819A81AB81BC81823021E0AF
:100C9000920722E0A20720E0B207A9F488858130FC
:100CA00019F48F8163EB59DD8885882319F48F81CE
:100CB00062EB53DD8F8180935E01888580935F01B5
:100CC00088E591E011D12F960FB6F894DEBF0FBEE4
:100CD000CDBFCF91DF911F910F91FF90EF900895BD
:100CE00008951F93DF93CF930F92CDB7DEB7182FE0
:100CF000C29882E0698303D2812F01D26981862F55
:100D0000FED1C29A0F90CF91DF911F9108951F934A
:100D1000182FC29883E0F3D1812FF1D18FEFEFD15B
:100D2000C29A1F9108951F93DF93CF9300D0CDB740
:100D3000DEB7182FC29885E04A836983E0D1812FFE
:100D4000DED16981862FDBD14A81842FD8D1C29A26
:100D50000F900F90CF91DF911F910895C298CFD13E
:100D60008FEFCDD1C29A0895EF92FF920F931F9308
:100D7000DF93CF930F92CDB7DEB7182F883008F0EE
:100D80004DC0C29ABA9AC598C398C498BD9ABB9AE6
:100D9000BC98B0D1C29880ECB2D186E69EE00197B3
:100DA000F1F70000C29AEFEFFFE83197F1F700C0CA
:100DB0000000C29882E0A3D188E2A1D183E0189F0D
:100DC0007001112487010A5B1F4F90E0F8018491A4
:100DD000998395D199819F5F0F5F1F4F9330B1F732
:100DE00083E08DD1C29A8DE060E07BDFB998C19A33
:100DF0008CE060E076DF89E28ADF182FC701895B2B
:100E00009F4FFC0104918FE060E06BDF101731F41D
:100E10008EE07DDF807EE1F781E001C080E00F9011
:100E2000CF91DF911F910F91FF90EF90089581E096
:100E3000B19980E0089580EA91DF982F947581E060
:100E4000943509F480E00895DF92EF92FF920F93BA
:100E50001F93CF93DF93EC0180EB80DFD82E082F18
:100E600010E080E4E82EF12CE022F122D6FC04C050
:100E7000D7FE31C084E901C080E9C29840D1CE01DB
:100E8000DFD08170880F9C819D7F982B9C838FEF92
:100E900036D121E003FF20E09C819E7F922B9C8332
:100EA000182F1F701D83269600E004C08FEF27D1F6
:100EB00089930F5F0117D0F3C29AE114F10419F07E
:100EC0008CE261E002C08CE262E040E02CDF8D2D1C
:100ED00087708F5F01C080E0DF91CF911F910F91EC
:100EE000FF90EF90DF900895FF920F931F93CF93A1
:100EF000DF93EC0180EA32DF82FF06C084FF06C088
:100F000086FD2EC014E003C010E001C012E0C298BC
:100F1000812F8064F4D06C8166956170CE015BD0C6
:100F20000D810F708C8180FF04C0802F8064E7D01A
:100F30000AC0802FE4D02696FF2403C08991DFD019
:100F4000F394F016D8F3C29A85E08A95F1F7C29827
:100F5000112309F411E0812F8068D1D0C29A01C019
:100F600010E0812FDF91CF911F910F91FF90089595
:100F70000F931F93CF93DF93EC018FE060EE40E877
:100F8000D2DE8EE0C4DE807E8038D9F780E664E071
:100F9000A8DE80E760E0A5DE10E0C29882E0AFD076
:100FA000812FADD000E0103211F4083038F4FE018A
:100FB00021968491A4D00F5F0C30A9F7C29A105FDC
:100FC000103359F78FE060EE40E0ADDEDF91CF9156
:100FD0001F910F910895CF93DF93EC016623C9F021
:100FE0008A819B8135E0969587953A95E1F78FB98F
:100FF0009A81892F880F880F880F807E8860937070
:10100000892B779BFECF9FB17AD0898178D0888158
:1010100013C08881998123E0969587952A95E1F7F9
:101020008FB988818295880F807E779BFECF9FB194
:1010300066D080E064D080E062D0DF91CF910895E7
:101040001F93CF93DF93EC018FEF59D0182F8FEFC1
:1010500056D0212F30E083FF1FC09FEF9FB945E09E
:10106000220F331F4A95E1F73B832A83779BFECFFC
:101070009FB199839FEF9FB9982F93702A81922BEC
:101080008695869586958C71982B9A83779BFECF53
:101090008FB1888381E01AC09FEF9FB91B821A82AB
:1010A00093E0220F331F9A95E1F739832883779BCA
:1010B000FECF9FB19FEF9FB98295869587709881EB
:1010C000982B9883779BFECF8FB180E0DF91CF91F3
:1010D0001F910895DF93CF930F92CDB7DEB78CE1C8
:1010E00016DE982F8DE1998312DE99810F90CF91B2
:1010F000DF91089581E58DB981E08EB908958FB9AA
:10110000779BFECF8FB10895DC0101C06D934150F4
:101110005040E0F70895E199FECF9FBB8EBBE09A67
:1011200099278DB30895262FE199FECF9FBB8EBBE3
:101130002DBB0FB6F894E29AE19A0FBE019608957E
:04114000F894FFCF51
:10114400C8000200000001010001030304040205B9
:02115400010098
:00000001FF
