:100000001EC038C037C036C035C034C0EBC032C0A7
:1000100031C030C02FC095C3C4C3B9C32BC02AC0E0
:1000200029C028C027C004B6E704B6D304B6C70465
:10003000B6C302900703AC8103AC80029000112488
:100040001FBECFE5D4E0DEBFCDBF10E0A0E6B0E03C
:10005000E2E7F3E102C005900D92A239B107D9F7AA
:1000600011E0A2E9B0E001C01D92A13BB107E1F7A8
:1000700037D97DC9C5CF61E083E6A6D42CEC8CECE2
:1000800091E0215080409040E1F700C060E083E6BD
:100090009BD461E080E098D42CEC8CEC91E0215072
:1000A00080409040E1F700C026E686EE90E02150C7
:1000B00080409040E1F726E686EE90E021508040B7
:1000C0009040E1F760E080E07FD461E081E07CD4A3
:1000D0002CEC8CEC91E0215080409040E1F700C086
:1000E00026E686EE90E0215080409040E1F726E63B
:1000F00086EE90E0215080409040E1F760E081E0A2
:1001000063D461E082E060D426E686EE90E0215080
:1001100080409040E1F72CEC8CEC91E02150804045
:100120009040E1F700C026E686EE90E02150804046
:100130009040E1F760E082E047D461E083E044D49E
:100140002CEC8CEC91E0215080409040E1F700C015
:1001500026E686EE90E0215080409040E1F726E6CA
:1001600086EE90E0215080409040E1F760E083E02F
:100170002BD461E084E028D42CEC8CEC91E021506D
:1001800080409040E1F700C026E686EE90E02150E6
:1001900080409040E1F726E686EE90E021508040D6
:1001A0009040E1F760E084E00FD42CEC8CEC91E01F
:1001B000215080409040E1F700C026E686EE90E0B6
:1001C000215080409040E1F708958EB58D608EBD3E
:1001D0001DBC1CBC87E490E09BBD8ABD89B78061D3
:1001E00089BF08951F920F920FB60F9211242F937B
:1001F0003F934F935F936F937F938F939F93AF93AF
:10020000BF93EF93FF9380916000909161000097FE
:1002100031F00197909361008093600046C081E0C7
:1002200090E0909361008093600020B360B340B38E
:1002300050B386B3E0B37091940090E0880F991F9B
:1002400082709927F8E02F9F90011124207E822B45
:10025000469546954695487066956071462B529531
:1002600056955470452BE2FB992790F9492B842B26
:100270008095872720919900282320952093990025
:1002800090919A009823922790939A008223892331
:1002900090919400982790939400209193009091CE
:1002A00094009823922B90939300809162009091F8
:1002B0006300009731F00197909363008093620090
:1002C0000CC087EC90E0909363008093620081E023
:1002D00080939D0077D060D3F4D5FF91EF91BF91CB
:1002E000AF919F918F917F916F915F914F913F91CE
:1002F0002F910F900FBE0F901F9018950F931F9383
:10030000CF93DF93C5EAD0E00CE310E01882C80178
:1003100019D88F3F11F0888301C0188288818260CC
:1003200089930F5F1F4F0834110581F7DF91CF913B
:100330001F910F910895843608F084568C30B8F5DB
:10034000623078F4E82FF0E0EB55FF4F9081292FD1
:1003500026602083611103C09E7F966017C097605E
:10036000908367FF14C0262F207730E094E0359506
:1003700027959A95E1F7E82FF0E0EB55FF4F922F84
:1003800090953081932367706223962B90832FEF93
:100390003FE794E0215030409040E1F700C000007A
:1003A000E82FF0E0EB55FF4F608161707CC583362C
:1003B00009F40AC30895E82FF0E0EB55FF4F808160
:1003C000817008950895EF92FF920F931F93CF933A
:1003D000DF93CDB7DEB72E970FB6F894DEBF0FBE12
:1003E000CDBF26E636EE90E0215030409040E1F758
:1003F00095EA99839AE59A839BE09B8395E09C8399
:1004000070E06E5F7F4F35E0660F771F3A95E1F73A
:1004100060616D831E821F82188619861A861B866C
:100420008C8780E18D871E86FE013396CE010E9665
:1004300031912E85230F2E87E817F907C9F78E0112
:100440000F5F1F4F7801EEE0EE0EF11CF801819175
:100450008F01D3D10E151F05C9F72E960FB6F8944C
:10046000DEBF0FBECDBFDF91CF911F910F91FF90E7
:10047000EF9008950F931F93CF93DF93C5EAD0E0D9
:100480000CE310E0688161FF07C0862F8D7F8883B1
:100490006170802F885D97DF688162FF06C0862FBC
:1004A0008B7F88836170C80155D721960F5F1F4FDE
:1004B0000834110539F7DF91CF911F910F910895FD
:1004C000FF920F931F93CF93DF93EC01F62E072F2C
:1004D000142F50E060E070E08F2D902F2CD7188201
:1004E000FC820D83FA820B8319831F831E83DF91A5
:1004F000CF911F910F91FF900895FC01A281B381CC
:100500008D919681915019F49181A91BB109B38302
:10051000A28396832FB7F8949081915090832FBF38
:100520000895EF92FF920F931F93CF93DF9300D024
:10053000CDB7DEB78C01FC018081841788F07B0188
:1005400009C0C80149836A83D8DFF70181937F011D
:100550006A8149818E2D861B841798F381E001C042
:1005600080E00F900F90DF91CF911F910F91FF903E
:10057000EF900895DC011296ED91FC911397808124
:100580000895CF93DF93DC018C918417C0F012960D
:10059000CD91DC91139716968C911697FB0109C0AB
:1005A00099919193815029F411968C911197C81BC0
:1005B000D1099E2F961B941798F381E001C080E02B
:1005C000DF91CF910895FC01808190E00895FC01B6
:1005D000908181819817A0F4A481B5816D93878162
:1005E000815019F48181A81BB1098783B583A48345
:1005F0009FB7F89480818F5F80839FBF81E00895CB
:1006000080E00895CF92DF92FF920F931F93CF93D4
:10061000DF931F92CDB7DEB78C01F62EC62ED72EF4
:1006200080E009C0F60161916F01C8014983CFDF05
:100630004981882321F09C2D9F19941798F30F90DE
:10064000DF91CF911F910F91FF90DF90CF90089590
:10065000CF92DF92FF920F931F93CF93DF931F925E
:10066000CDB7DEB78C01F62EC62ED72E80E00BC09C
:10067000F6018FEFC81AD80A6491C8014983A7DF31
:100680004981882321F09C2D9F19941788F30F909E
:10069000DF91CF911F910F91FF90DF90CF90089540
:1006A0000F931F93CF93DF93EC01062F10E006C04A
:1006B000CE0123DF682FCE018ADF1F5F1013F8CF32
:1006C00080E090E0DF91CF911F910F910895EF921C
:1006D000FF920F931F93CF93DF938C01EB018881DF
:1006E000E42E841708F4E82EF12C06C0CE0105DFB5
:1006F000682FC8016CDFF394FE10F8CF8F2DDF91C7
:10070000CF911F910F91FF90EF9008958FB710BC7C
:100710009FEB99B9F89498ED9AB996E890BD9CB181
:100720005F99FDCF92EC9BB98FBF44E661EB70E01F
:100730008DE191E0C5DE40E565E271E085E191E0A3
:10074000BFCE1F920F920FB60F9211242F933F939B
:100750004F935F936F937F938F939F93AF93BF93C9
:10076000EF93FF936CB18DE191E031DFFF91EF9159
:10077000BF91AF919F918F917F916F915F914F91B9
:100780003F912F910F900FBE0F901F9018951F92C1
:100790000F920FB60F9211240F900FBE0F901F9063
:1007A00018951F920F920FB60F9211242F933F931B
:1007B0004F935F936F937F938F939F93AF93BF9369
:1007C000EF93FF9380911501882329F085E191E053
:1007D00094DE8CB901C05598FF91EF91BF91AF9114
:1007E0009F918F917F916F915F914F913F912F9149
:1007F0000F900FBE0F901F901895682F85E191E024
:10080000E6DE559A0895CF93DF93EC0101C0F5DF42
:1008100089918111FCCFDF91CF91089585B38F73BA
:1008200085BB8FE384BB81B3837081BB82B38C6F44
:1008300082BBB898C09A109276010895E4E6F0E081
:10084000A5EAB0E09191981303C09C9190FD07C078
:10085000119690E0E037F907A9F780E0089581E06C
:100860000895FF920F931F93CF93DF93082FF62ED7
:10087000C4E6D0E010E08991801303C06F2D812F72
:100880005ADD1F5F1C30B9F7DF91CF911F910F9197
:10089000FF90089580917601823011F410929B00B0
:1008A00090919B00911107C010929C00833019F425
:1008B00081E080939B0080919B00813009F065C0AE
:1008C00080919C00813099F480E0B8DF81110CC0E8
:1008D00081E0B4DF811108C083E0B0DF811104C082
:1008E00084E0ACDF882319F067EF82E0BADF809103
:1008F0009C00823019F466EF80E01DDD80919C0041
:10090000833019F466EF81E016DD80919C0084301D
:1009100019F466EF82E00FDD80919C00853019F4B8
:1009200066EF83E008DD80919C00863019F466EF65
:1009300084E001DD80919C00873019F466EF85E04A
:10094000FADC80919C00863011F466EFF4DC809133
:100950009C00873011F466EFEEDC80919C008830BB
:1009600011F466EFE8DC80919C00893011F466EFA9
:10097000E2DC80919C008F3019F466EF82E071DF39
:1009800080919C008F5F80939C0080919C008E31B1
:1009900010F010929B00089580917000982F915054
:1009A0009093700081110FC08091750191E08927AB
:1009B0008093750110927000809177018F5F809312
:1009C0007701909378010895811106C0613021F577
:1009D000AC9A0895AC980895813009F5613011F50D
:1009E000AB9A0895AB980895613011F5AA9A0895CD
:1009F000AA9808956130F9F4A99A0895A9980895DC
:100A0000613009F5A89A0895A89808956130F1F425
:100A1000AD9A0895AD9808956623E1F20895823065
:100A200019F303C06623F1F20895833019F306C069
:100A30006623F1F20895662309F30895843001F3E3
:100A4000833621F308956623F9F20895662311F39E
:100A50000895FF920F931F93CF93DF93C0E0D0E0F0
:100A600001E010E0FC2E2091930030E00C2E02C03B
:100A7000359527950A94E2F720FF14C080919300E2
:100A800098010C2E01C0220F0A94EAF78227809366
:100A900093008C2FD3DE882311F066EF01C067EF3F
:100AA0008C2FDFDE8F2DCADE682F8F2D8DDF2196F4
:100AB000C530D105B9F680917601813059F028F022
:100AC000823069F08330C1F515C08091940087FFB2
:100AD00020C028C08091940087FF2EC023C0809141
:100AE000940087FD29C01092770162E088E7DBD18E
:100AF00083E020C08091940087FD14C0809175012F
:100B0000882311F0AD9A01C0AD98809177018630AD
:100B100098F0AD9860E088E756DC60E088E7C3D1E4
:100B200081E008C0AD9A61E088E74DDC61E088E7CC
:100B3000BAD182E08093760180917801882341F0D8
:100B400010927801DF91CF911F910F91FF90A2CE6B
:100B5000DF91CF911F910F91FF90089584E0F5D11F
:100B600081E790E0F8D282E092E0A1E0B0E08093EB
:100B7000790190937A01A0937B01B0937C01EDE71A
:100B8000F1E080818E7F8260808382E080937E01AD
:100B900010927F011092800189E491E8A1E0BDE00C
:100BA0008093A3019093A401A093A501B093A60103
:100BB000E7EAF1E080818E7F8260808323E02093EA
:100BC000A8012093A90131E03093AA011092AB0152
:100BD00083E092E0A1E0B0E08093950190939601CC
:100BE000A0939701B0939801E9E9F1E080818E7FAD
:100BF0008260808388E080939A0110929B0110921A
:100C00009C0189E091E0A2E0B0E08093870190939D
:100C10008801A0938901B0938A01EBE8F1E080811B
:100C20008E7F8260808320938C0120938D0130938E
:100C30008E0110928F010895AF92BF92CF92DF92F2
:100C4000EF92FF920F931F93CF93DF93CDB7DEB751
:100C50002E970FB6F894DEBF0FBECDBFFC01A98260
:100C6000BA82CB82DC8249815A816B817C81DB0133
:100C7000CA012AE1B695A795979587952A95D1F748
:100C800087709927AA27BB2780838A019B01A6E149
:100C90003695279517950795AA95D1F70F701127C7
:100CA000222733270183DB01CA011EE0B695A795F1
:100CB000979587951A95D1F78283DB01CA0106E0E3
:100CC000B695A795979587950A95D1F783834F7326
:100CD000552766277727448380E02E960FB6F89431
:100CE000DEBF0FBECDBFDF91CF911F910F91FF905F
:100CF000EF90DF90CF90BF90AF900895CF92DF92AA
:100D0000EF92FF920F931F93FC0140814770408345
:100D100081818F7081830281C38094819F739483CA
:100D200010E020E030E05EE0000F111F221F331FB3
:100D30005A95D1F7D12CE12CF12C66E0CC0CDD1CBE
:100D4000EE1CFF1C6A95D1F70C0D1D1D2E1D3F1DBD
:100D50003058090F111D211D311D50E060E070E079
:100D6000EAE1440F551F661F771FEA95D1F7040F7C
:100D7000151F261F371F90E0A0E0B0E0F6E1880FB6
:100D8000991FAA1FBB1FFA95D1F7080F191F2A1F19
:100D90003B1FB801C9011F910F91FF90EF90DF90A9
:100DA000CF900895AF92BF92CF92DF92EF92FF92D1
:100DB0000F931F93CF93DF93CDB7DEB763970FB633
:100DC000F894DEBF0FBECDBF1CD1882309F45AC0F2
:100DD000CE01019625D1882309F454C089819A81D6
:100DE000AB81BC818F3F9140A105B10531F48D816C
:100DF00081FF03C060E083E6E7DDA980BA80CB8095
:100E0000DC80ED80FE800F81188529853A854B8531
:100E10005C856D857E85CE010F960EDF8B898930CE
:100E200089F48A89863071F48F818C3058F49885E2
:100E3000913011F467EF7FDA8885811103C066EF86
:100E40008F8179DA8B898A30E9F49A899630D1F4E6
:100E50008F818A30B9F423E02F8724E0288B2989F9
:100E60002A8B998B8B8BCE010F9648DF69837A830F
:100E70008B839C8382E08E838BE08F83CE010196EF
:100E80001CD1F9D863960FB6F894DEBF0FBECDBF64
:100E9000DF91CF911F910F91FF90EF90DF90CF9056
:100EA000BF90AF9008958093A9016093AA01EBEAE7
:100EB000F1E080818F5F808383EA91E0FED081E062
:100EC000089508951F93CF93DF931F92CDB7DEB798
:100ED000182FC29882E06983FED1812FFCD16981ED
:100EE000862FF9D1C29A0F90DF91CF911F9108956B
:100EF000CF93C82FC29883E0EED18C2FECD18FEF27
:100F0000EAD1C29ACF9108951F93CF93DF9300D077
:100F1000CDB7DEB7182FC29885E04A836983DBD14D
:100F2000812FD9D16981862FD6D14A81842FD3D1FF
:100F3000C29A0F900F90DF91CF911F910895C298A0
:100F4000CAD18FEFC8D1C29A08950F931F93CF9340
:100F5000DF93C82F883010F080E04EC0C29ABA9A52
:100F6000C598C398C498BD9ABB9ABC98AFD1C29893
:100F700080ECB1D186E69EE00197F1F70000C29ABD
:100F80008FEF9FE80197F1F700C00000C29882E060
:100F9000A2D188E2A0D100E010E08C2F90E0EC011B
:100FA000CC0FDD1FC80FD91FF801EC0FFD1FEA5D44
:100FB000FF4F849190D10F5F1F4F03301105A1F7B0
:100FC00083E089D1C29A60E08DE07CDFB998C19A54
:100FD00060E08CE077DF89E28BDF182FFE01E95DAE
:100FE000FF4FC49160E08FE06DDF1C13B5CF8EE042
:100FF0007FDF807EE1F781E0DF91CF911F910F913C
:10100000089586B38695817091E08927089580EAD6
:1010100096DF982F947581E0943509F480E0089567
:10102000DF92EF92FF920F931F93CF93DF93EC0128
:1010300080EB85DFF82E20E4D22ED82286FD04C076
:1010400087FF32C084E901C080E9C29844D1CE0153
:10105000E9D09C8180FB91F99C838FEF3CD1F3FA1E
:10106000222720F99C8120FB90F99C839FE0E92EA8
:10107000E822ED8200E010E008C08FEF2CD1FE01E5
:10108000E00FF11F86830F5F1F4F0E15B0F3C29A5A
:1010900040E0DD2011F061E001C062E08CE234DF6D
:1010A0008F2D87708F5F01C080E0DF91CF911F91FE
:1010B0000F91FF90EF90DF900895EF92FF920F93C2
:1010C0001F93CF93DF93EC0180EA39DF82FF07C0E3
:1010D00084FF07C086FD36C094E0F92E04C0F12CD1
:1010E00002C082E0F82EC2988F2D8064F4D06C810B
:1010F00066956170CE0161D0ED808FE0E8228C8131
:1011000080FF04C08E2D8064E6D00EC08E2DE3D00B
:1011100000E010E007C0FE01E00FF11F8681DBD088
:101120000F5F1F4F0E15B8F3C29A85E08A95F1F74D
:10113000C298F11002C0FF24F3948F2D8068CBD0A9
:10114000C29A01C0F12C8F2DDF91CF911F910F9189
:10115000FF90EF9008950F931F93CF93DF93EC01CF
:1011600040E860EE8FE0D0DE8EE0C2DE807E803828
:10117000D9F764E080E6A6DE60E080E7A3DE10E059
:10118000C29882E0A8D0812FA6D000E0103211F4DE
:10119000083038F4FE01219684919DD00F5F0C3009
:1011A000A9F7C29A105F103359F740E060EE8FE064
:1011B000DF91CF911F910F91A7CECF93DF93EC01D9
:1011C0006623D1F08A819B8135E0969587953A9583
:1011D000E1F78FB98A8198E0899F90011124207EE0
:1011E000332728608370822B779BFECF9FB173D00B
:1011F000898171D0888113C08881998123E0969577
:1012000087952A95E1F78FB988818295880F807E2E
:10121000779BFECF9FB15FD080E05DD080E0DF9113
:10122000CF9159C01F93CF93DF93EC018FEF53D031
:10123000182F8FEF50D09FEF9FB983FF1CC090E213
:10124000199F900111243B832A83779BFECF9FB186
:1012500099839FEF9FB9982F93702A81922B86953F
:10126000869586958C71982B9A83779BFECF8FB14C
:10127000888381E017C01B821A8298E0199F900131
:10128000112439832883779BFECF9FB19FEF9FB9AD
:101290008295869587709881982B9883779BFECF4F
:1012A0008FB180E0DF91CF911F910895CF93DF93AD
:1012B0001F92CDB7DEB78CE11BDE982F8DE19983AD
:1012C00017DE99810F90DF91CF91089581E58DB957
:1012D00081E08EB908958FB9779BFECF8FB10895C5
:1012E0009DDA14DA2FEF8FE794E021508040904090
:1012F000E1F700C0000002D868D730DCBCD6789493
:101300002DE088E190E00FB6F894A89581BD0FBE5E
:1013100021BDC1E0A895AED89CDB44DD80919D0045
:10132000882339F010929D00809192008C27809341
:101330009200BCDFEFCFDC0101C06D934150504003
:10134000E0F70895E199FECF9FBB8EBBE09A992705
:101350008DB30895262FE199FECF9FBB8EBB2DBB89
:101360000FB6F894E29AE19A0FBE01960895F894A8
:02137000FFCFAD
:101372000200C80000000101000103030404020589
:10138200010000000000000000000800000008004A
:101392000000080000000800000000000000080033
:0213A200000049
:00000001FF
