:100000002AC044C043C042C041C040C07CC03EC0C2
:100010003DC03CC03BC030C35FC354C337C036C0D3
:1000200035C034C033C0B1C3B7C3BBC3C0C3C9C379
:10003000E7C304C407C4000000000000000000087B
:100040000000000800000008000000080000000098
:1000500000000008000011241FBECFE5D4E0DEBF81
:10006000CDBF10E0A0E6B0E0E4E1FAE002C0059008
:100070000D92AA3CB107D9F711E0AAECB0E001C09B
:100080001D92A83BB107E1F702D0C2C4B9CFE8D3B3
:10009000D7D280E690E052D381E790E04FD389E950
:1000A00090E04CD38FEF9FE7A4E081509040A040B8
:1000B000E1F700C0000093D019D0789438D14FD424
:1000C000F89482E591E01AD2181619065CF482E5DC
:1000D00091E0B1D147D3883029F48091B10160918A
:1000E000B0019BD078948091D300E8CF8EB58D601D
:1000F0008EBD1DBC1CBC87E490E09BBD8ABD89B74A
:10010000806189BF08951F920F920FB60F9211243C
:100110002F933F934F935F936F937F938F939F930F
:10012000AF93BF93EF93FF938091BE009091BF0078
:100130009C01215030403093BF002093BE000097B7
:1001400031F581E090E09093BF008093BE009091E4
:10015000CE0080B3809589279091D1009823909507
:100160009093D1002091D000282329272093D000FC
:10017000892382239091CE0098279093CE0090916E
:10018000CF002091CE002823292B2093CF008091EF
:10019000BC009091BD009C01215030403093BD00C7
:1001A0002093BC00009751F487EC90E09093BD0041
:1001B0008093BC0081E08093D30052D0FF91EF91F7
:1001C000BF91AF919F918F917F916F915F914F916F
:1001D0003F912F910F900FBE0F901F9018950F9386
:1001E0001F93CF93DF93CCEDD0E00CE310E01882A7
:1001F000C801F9D388838F3F09F41882888182600F
:1002000089930F5F1F4F0634110589F71092E400A0
:10021000DF91CF911F910F910895843608F0845695
:10022000603519F0603721F402C060E001C061E080
:10023000883090F4623098F4E82FF0E0E452FF4FF9
:100240008081982F96609083662319F49E7F908317
:100250000895876080830895833609F43AD308951A
:100260008091C000982F91509093C000882369F42A
:100270008091DB0091E089278093DB001092C00021
:100280008091E5008F5F8093E5000895EF92FF92E3
:100290000F931F93DF93CF93CDB7DEB72E970FB693
:1002A000F894DEBF0FBECDBF95EA99839AE59A8395
:1002B0009BE09B8395E09C8370E06E5F7F4F35E011
:1002C000660F771F3A95E1F760616D831E821F828A
:1002D000188619861A861B868C8780E18D871E8674
:1002E000FE013396CE010E9631912E85230F2E8777
:1002F000E817F907C9F78E010F5F1F4F2EE0E22EB6
:10030000F12CE00EF11EF80181918F0111D20E1532
:100310001F05C9F72E960FB6F894DEBF0FBECDBFEE
:10032000CF91DF911F910F91FF90EF9008950F9360
:100330001F93CF93DF93CCEDD0E00CE310E0688106
:1003400061FF07C0862F8D7F88836170802F885D55
:100350009DDF688162FF06C0862F8B7F8883617076
:10036000C80149D321960F5F1F4F0634110539F795
:100370009091CE008091E40097FF0CC0823010F085
:100380008330B9F583E661E0A4D28EE661E07EDFDA
:1003900082E02DC0882349F483E660E09AD28EE69D
:1003A00060E074DF81E08093E4008091E4008230BB
:1003B00029F41092E50083E08093E4008091E4004A
:1003C0008330B9F48091DB00882319F083E661E083
:1003D00002C083E660E07DD28091E500863048F07F
:1003E00083E660E076D28EE660E050DF81E08093C5
:1003F000E400DF91CF911F910F910895FF920F9329
:100400001F93CF93DF93EC01F62E072F142F862F27
:10041000972F60E070E050E0DFD21882FC820D83FD
:10042000FA820B8319831F831E83DF91CF911F9163
:100430000F91FF900895FC01A281B3818D91968167
:10044000915019F49181A91BB109B383A2839683BA
:100450002FB7F8949081915090832FBF0895EF9219
:10046000FF920F931F93DF93CF9300D0CDB7DEB7EA
:100470007C01FC018081841790F0062F172F09C0A2
:10048000C70149836A83D7DFF80181938F016A81AD
:100490004981802F861B841798F381E001C080E09A
:1004A0000F900F90CF91DF911F910F91FF90EF90E0
:1004B0000895DC011296ED91FC91139780810895C7
:1004C000CF93DF93FC0180818417A0F0A281B381D8
:1004D0002681862F972FEC0180E008C09D9199938B
:1004E000215019F42181A21BB1098F5F8417B0F349
:1004F00081E001C080E0DF91CF910895FC0180810F
:1005000090E00895FC01908181819817A0F4A48166
:10051000B5816D938781815019F48181A81BB10940
:100520008783B583A4839FB7F89480818F5F80838E
:100530009FBF81E0089580E00895CF92DF92FF92FF
:100540000F931F93DF93CF930F92CDB7DEB76C015C
:10055000F62E062F172F80E009C0F80161918F0158
:10056000C6014983CFDF4981882321F0902F9F194D
:10057000941798F30F90CF91DF911F910F91FF90F7
:10058000DF90CF900895CF92DF92FF920F931F9349
:10059000DF93CF930F92CDB7DEB76C01F62E062F07
:1005A000172F80E00AC0F8016491C6014983AADFD1
:1005B0004981882331F00F5F1F4F902F9F199417A7
:1005C00090F30F90CF91DF911F910F91FF90DF90EB
:1005D000CF9008950F931F93CF93DF93EC01062FD5
:1005E00010E006C0CE0127DF682FCE018BDF1F5F32
:1005F0001017C0F380E090E0DF91CF911F910F9131
:100600000895EF92FF920F931F93CF93DF938C0186
:10061000EB018881F42E841708F4F82EEE2406C02E
:10062000CE0109DF682FC8016DDFE394EF14C0F33A
:100630008F2DDF91CF911F910F91FF90EF90089533
:100640008FB710BC9FEB99B9F89498ED9AB996E8DA
:1006500090BD9CB15F99FDCF92EC9BB98FBF82E5B5
:1006600091E066EE70E044E6C9DE8AE491E06AE576
:1006700071E040E5C3DE08951F920F920FB60F920E
:1006800011242F933F934F935F936F937F938F9397
:100690009F93AF93BF93EF93FF936CB182E591E08B
:1006A00031DFFF91EF91BF91AF919F918F917F913A
:1006B0006F915F914F913F912F910F900FBE0F90CF
:1006C0001F9018951F920F920FB60F9211240F9042
:1006D0000FBE0F901F9018951F920F920FB60F929A
:1006E00011242F933F934F935F936F937F938F9337
:1006F0009F93AF93BF93EF93FF9380914A01882319
:1007000029F08AE491E097DE8CB901C05598FF91F9
:10071000EF91BF91AF919F918F917F916F915F9179
:100720004F913F912F910F900FBE0F901F901895F2
:10073000682F8AE491E0E6DE559A0895EF92FF92E1
:10074000CF93DF93E82EE7017E01F92EE70101C088
:10075000EFDF89918823E1F7DF91CF91FF90EF9050
:1007600008950895E091D2009E2F9250953028F47C
:100770009091B601980F9093B601F0E0E830F10542
:1007800008F067C0ED5EFF4F0994853A09F063C039
:100790001092B60181E008C08A3509F05AC082E0A3
:1007A00003C08093AB0183E08093D20054C0809358
:1007B000AC0184E08093D2008093AA018093B701BA
:1007C0004AC09091AA01992309F445C0943019F4C4
:1007D0008093B0010EC0933019F48093AF0109C02B
:1007E000923019F48093AE0104C0913011F48093DB
:1007F000AD0191509093AA01992369F585E0D4CF7A
:100800009091B701992339F1943019F48093B40190
:100810000EC0933019F48093B30109C0923019F4DB
:100820008093B20104C0913011F48093B1019150D2
:100830009093B701992379F486E0B6CF8093B50100
:1008400087E0B2CF1092D2009091B601981719F4B8
:1008500005C01092D2008091D200089588E00895DA
:1008600085B38F7385BB8FE384BB81B3837081BBFA
:1008700082B38C6F82BB0895A1ECB0E0ECEDF0E0A8
:100880009D91981719F4908190FD07C0319690E0E2
:10089000A93CB907A9F780E0089581E00895FF9287
:1008A0000F931F93CF93DF93F82E062FC1ECD0E068
:1008B00010E089918F1519F4812F602FAEDC1F5F36
:1008C0001830B9F7DF91CF911F910F91FF900895E4
:1008D0000895882331F4613081F5A99A0895A99883
:1008E0000895813021F4613059F5AA9A0895823033
:1008F00019F006C0AA980895613029F5AB9A0895B9
:10090000833019F006C0AB9808956130F9F4AC9AC1
:100910000895843019F006C0AC9808956130C9F488
:10092000AD9A0895833619F00895AD980895613011
:1009300099F4A89A0895A8980895662381F20895D5
:100940006623C1F208956623F1F20895662321F328
:100950000895662351F30895662369F30895FF927D
:100960000F931F93CF93DF93C2E0D0E001E010E03C
:10097000AE018EEF480FF42E2091CF0030E00C2E08
:1009800002C0359527950A94E2F720FF16C08091A2
:10099000CF0098010C2E02C0220F331F0A94E2F7F9
:1009A00082278093CF008F2D67DF882319F08F2D4A
:1009B00060E002C08F2D61E072DF8F2D5DDF682F58
:1009C0008F2D87DF2196C730D10591F6DF91CF912A
:1009D0001F910F91FF900895DC0101C06D9341506C
:1009E0005040E0F70895E199FECF9FBB8EBBE09A9F
:1009F00099278DB30895262FE199FECF9FBB8EBB1B
:100A00002DBB0FB6F894E29AE19A0FBE01960895B5
:040A1000F894FFCF88
:100A14000A0D53797374656D2052656164790A0D0A
:100A240000436F6D70696C6965727420616D204A52
:100A3400616E203134203230313220756D203231F4
:100A44003A32393A30330D0A00436F6D70696C697C
:100A5400657274206D697420474343205665727330
:100A6400696F6E20342E352E330D0A00C800020043
:0A0A74000100010001020304040068
:00000001FF
