:100000000C94A7030C94CC030C94CC030C94CC0359
:100010000C94CC030C94CC030C94CC030C94CC0324
:100020000C94CC030C94CC030C94CC030C94730F61
:100030000C94CC030C94CC030C94CC030C94CC0304
:100040000C94CC030C94CC030C94C7040C94CC03F8
:100050000C94CC030C94CC030C94CC030C94CC03E4
:100060000C94CC030C94CC030A0D53797374656D16
:100070002052656164790A0D00436F6D70696C6987
:1000800065727420616D204A616E203132203230F9
:10009000313420756D2030303A31303A32390D0A22
:1000A00000436F6D70696C69657274206D697420AE
:1000B0004743432056657273696F6E20342E372E86
:1000C000320D0A0044484350206661696C0D0A00F5
:1000D0000D0A49502020202531692E2531692E2511
:1000E00031692E2531690D0A004D41534B202531D0
:1000F000692E2531692E2531692E2531690D0A00B9
:1001000047572020202531692E2531692E25316958
:100110002E2531690D0A0063616E5F696E6974286E
:10012000424954524154455F3132355F4B4250533E
:10013000290D0A000D0A0052656164790D0A0D0A45
:10014000004552524F520D0A0D0A00646863702038
:100150006C656173652072656E6577616C206661A0
:10016000696C65640D0A0047657420504F4E473A2C
:100170002025692E25692E25692E25690D0A005234
:100180004553455420202D20726573657420746892
:100190006520415652202D20436F6E74726F6C6C37
:1001A00065720D0A415250202020202D206C697369
:1001B000742074686520415250207461626C650D32
:1001C0000A544350202020202D206C697374207421
:1001D000686520746370207461626C650D0A495013
:1001E00020202020202D206C6973742F6368616E9D
:1001F00067652069700D0A4E4554202020202D206F
:100200006C6973742F6368616E6765206E65746DC9
:1002100061736B0D0A524F55544552202D206C6965
:1002200073742F6368616E676520726F7574657291
:100230002069700D0A4E5450202020202D206C691A
:1002400073742F6368616E6765204E54500D0A4EBB
:100250005450522020202D204E545020526566725A
:100260006573680D0A4D4143202020202D206C69C4
:100270007374204D41432D616464726573730D0A7C
:10028000564552202020202D206C69737420656E05
:10029000632076657273696F6E206E756D6265722C
:1002A0000D0A535620202020202D207365742076BF
:1002B00061726961626C650D0A50494E47202020C9
:1002C0002D2073656E642050696E670D0A54494D88
:1002D000452020202D206765742074696D650D0A06
:1002E00048454C502020202D207072696E742048A3
:1002F000656C70746578740D0A3F202020202020E2
:100300002D207072696E742048656C707465787405
:100310000D0A004D792049503A202531692E2531AA
:10032000692E2531692E2531690D0A004E45544D3F
:1003300041534B3A202531692E2531692E253169EB
:100340002E2531690D0A00526F757465722049506F
:100350003A202531692E2531692E2531692E253126
:10036000690D0A004D79204D41433A202532783AF3
:100370002532783A2532783A2532783A2532783A59
:100380002532780D0A00454E4332384A36302D5614
:10039000657273696F6E3A202531780D0A00253237
:1003A0006920204D41433A253278002E25327800CD
:1003B0002E253278002E253278002E253278002E18
:1003C00025327800202049503A253369002E253304
:1003D00069002E253369002E2533690020205469D9
:1003E0006D653A2534690D0A0025326900202049DF
:1003F000503A253369002E253369002E25336900D4
:100400002E253369002020504F52543A253469007C
:10041000202054696D653A2534690D0A0025630072
:100420004142434445464748494A4B4C4D4E4F5044
:100430005152535455565758595A61626364656610
:100440006768696A6B6C6D6E6F70717273747576C4
:100450007778797A303132333435363738392B2F53
:100460003D000400051A06FF071F080009000AFFE7
:100470000B19C100C00DC233CAEECB05C415C6129C
:10048000E400E522E2F9E301E038E1C87500FFFF8E
:10049000000100140740FFFF53746172742054651B
:1004A0006C6E6574205365727665723A0D0A002A87
:1004B0002A204C4344204441544120474554204283
:1004C000797465733A202569202A2A0D0A00474568
:1004D00054202F676C6F62616C7765617468657218
:1004E0002E61736D782F4765745765617468657206
:1004F0003F436974794E616D653D50616465726218
:100500006F726E26436F756E7472794E616D653DC4
:100510004765726D616E7920485454502F312E31E9
:100520000D0A486F73743A207777772E7765627378
:10053000657276696365782E6E65740D0A4B656524
:10054000702D416C6976653A203330300D0A436F67
:100550006E6E656374696F6E3A204B6565702D41F0
:100560006C6976650D0A0D0A002563004152502022
:10057000526571756573740A0D00544350204569C6
:100580006E74726167206E69636874206765667552
:100590006E64656E2028485454505F434C49454E64
:1005A0005429210D0A005443502045696E7472612C
:1005B0006720676566756E64656E202848545450E0
:1005C0005F434C49454E5429210D0A000D0A0D0A7E
:1005D0000D0A446174656E20416E666F72646572C7
:1005E0006E0D0A000D0A49502020202531692E2564
:1005F00031692E2531692E2531690D0A00444843A1
:10060000502074696D656F75740D0A004C45415337
:1006100045202532782532782532782532780D0A22
:1006200000444953434F5645522073656E740D0A7A
:1006300000524551554553542073656E740D0A00A0
:1006400057726F6E672044484350206D7367207463
:100650007970650D0A000D0A6D79697020202025DA
:1006600031692E2531692E2531692E2531690D0A12
:10067000000D0A6F66666572697020202025316959
:100680002E2531692E2531692E2531690D0A005537
:100690006E6B6E6F776E204F7074696F6E3A2025A7
:1006A00032780D0A004448435020746F6F2062690D
:1006B000672C206469736361726465640D0A005776
:1006C000726F6E6720444843502049442C2064696F
:1006D000736361726465640D0A004F7074696F6EB4
:1006E000203532204572726F720D0A002A2A20448A
:1006F000484350204F4646455220524543564421D8
:10070000202A2A0D0A002A2A204448435020414327
:100710004B20524543564421202A2A0D0A002A2AFA
:100720002044484350204E414B20524543564421DB
:10073000202A2A0D0A0004B6E704B6D304B6C7047B
:10074000B6C302900703AC8103AC80029000112471
:100750001FBECFEFD8E0DEBFCDBFEFEEF7E08AEAF5
:1007600099E08193E030F907E0F311E0A0E0B1E017
:10077000ECEBF7E502C005900D92A439B107D9F76B
:1007800017E0A4E9B1E001C01D92AF3EB107E1F767
:100790000E9454280C94DC2B0C9400009B01AC01AB
:1007A00088E98093C10084E0220F331F441F551F46
:1007B0008A95D1F760E072E18AE790E00E945329C0
:1007C00021502093C400809173028B7F8093730229
:1007D00008959091730292FD06C09091C00095FF1C
:1007E000FCCF8093C6000895CF93DF93EC0102C045
:1007F0000E94E90389918111FBCFDF91CF91089588
:100800006F927F928F929F92AF92BF92CF92DF9220
:10081000EF92FF920F931F93CF93DF93CDB7DEB785
:1008200064970FB6F894DEBF0FBECDBFFE01B5963C
:10083000819091908F01612C7E018BE0E80EF11C7C
:10084000CC24C394D12CCC0EDD1E20E3722E01C02B
:1008500045015401EFEFAE1ABE0AF40184918823DA
:1008600009F480C0853209F07AC0F501540182E0B4
:10087000A80EB11CE4918E2F90E0C0970A9760F407
:10088000E9831A82C6010E948C2A682EF501540160
:1008900083E0A80EB11CE491E93659F128F4E23660
:1008A00051F0E336A9F617C0E33739F0E837F9F02D
:1008B000EF3671F61AC042E01DC0F8010E5F1F4FFF
:1008C0008080918002C00E94E903F40181914F0170
:1008D0008111F9CFBDCF4801F2E08F0E911CF801D4
:1008E00080810E94E9038401B3CF48E003C040E166
:1008F00001C04AE04801F2E08F0E911C50E0B701C0
:10090000F801808191810E94082BF701CF018E1997
:100910009F0921912111FACF262D30E082179307EC
:10092000C4F4681AF601862D90E001C071929F010F
:100930002C193D0928173907CCF3F601E80FF91FE8
:100940001082B701C6010E94DE2AB601C7010E94CB
:10095000E92AC7010E94F4038401612C79CF0E9427
:10096000E90376CF64960FB6F894DEBF0FBECDBF15
:10097000DF91CF911F910F91FF90EF90DF90CF907B
:10098000BF90AF909F908F907F906F9008951F922F
:100990000F920FB60F9211242F933F934F935F93B3
:1009A0006F937F938F939F93AF93BF93CF93EF9367
:1009B000FF938091730282FD52C0C091C6008C2FBC
:1009C0000E94E9038091730280FF04C0809173024A
:1009D00082602CC0C83089F4809194019091950177
:1009E000892B09F458C08091940190919501019749
:1009F00090939501809394014EC0CD30D1F4E09155
:100A00009401F0919501E150FD4F80818C3589F082
:100A1000E0919401F0919501E050FD4F1082109209
:100A2000950110929401809173028160809373020A
:100A300032C020919401309195012133310558F550
:100A40002091940130919501F901E050FD4FC08350
:100A50002F5F3F4F30939501209394011CC0E0918C
:100A60000201F09103018091000190910101019731
:100A7000E817F90781F08091C6008193F093030194
:100A8000E0930201E153F34031F480E093E090936E
:100A9000030180930201FF91EF91CF91BF91AF913C
:100AA0009F918F917F916F915F914F913F912F9186
:100AB0000F900FBE0F901F901895382F292FC90146
:100AC0000895CF92DF92EF92FF920F931F93362FEC
:100AD000222711270027C92EDD24EE24FF240C0D28
:100AE0001D1D2E1D3F1D6B017C01CC24DD24FF2428
:100AF000CD2CDE2CEF2CFF240C0D1D1D2E1D3F1DBB
:100B0000DC01CB018827AA27BB27BA2FA92F982F52
:100B10008827080F191F2A1F3B1FB801C9011F9101
:100B20000F91FF90EF90DF90CF900895CF92DF92DA
:100B3000EF92FF920F931F93CF93DF93CDB7DEB762
:100B400028970FB6F894DEBF0FBECDBF8E010F5FA2
:100B50001F4F7E0125E0E20EF11C6C01C01AD10A84
:100B6000F999FECFC601800F911F4D835E836F837D
:100B700078870E94412BF80181938F014D815E811E
:100B80006F817885EE15FF0559F709811A812B8150
:100B90003C810F3FFFEF1F072F073F0711F48A012A
:100BA0009B01B801C90128960FB6F894DEBF0FBEAD
:100BB000CDBFDF91CF911F910F91FF90EF90DF900C
:100BC000CF9008950F931F93CF93DF930E94600FF0
:100BD0004AE05AE267E173E68EE190E00E949605F2
:100BE000C1E9D5E0688379838A839B834FEF5FEF08
:100BF0006FEF70E082E290E00E94960509E915E04F
:100C0000F801608371838283938340EC58EA60E04B
:100C100071E086E290E00E949605609395057093DE
:100C200096058093970590939805F80100811181AE
:100C300022813381D901C80180959095A095B09506
:100C4000488159816A817B81402351236223732328
:100C5000842B952BA62BB72B80939D0590939E05F7
:100C6000A0939F05B093A0051092B50582E28093F2
:100C7000B60589EF8093B70581E08093B80588E3D6
:100C80008093B90588EC8093BA05DF91CF911F91CD
:100C90000F910C94311680E090E04CE0489FF001F9
:100CA000499FF00D1124EC5CFD4F22853385232BE9
:100CB00059F41082118212821382148215821682D4
:100CC00017821086118606C022853385215031098E
:100CD0003387228701968530910501F7089540E01A
:100CE00001C04F5F24E0429FF0011124E455FE4F04
:100CF00020813181232BA9F7453020F49183808313
:100D0000738362830895A0E001C0AF5F44E0A49FB5
:100D100090011124F901E455FE4F408151814115A4
:100D2000510519F4A53028F008954817590769F7B7
:100D3000F9CFF901E455FE4F71836083089540E0D7
:100D400001C04F5F24E0429FF0011124E856FE4F9E
:100D500020813181232BA9F7453020F491838083B2
:100D6000738362830895E8E9F1E0208131812817D7
:100D7000390711F411821082349621E0EC3AF2071F
:100D8000A1F708958F929F92BF92CF92DF92EF9238
:100D9000FF920F931F93CF93DF93E0913E03F09167
:100DA0003F0380914E0390914F03A0915003B09167
:100DB000510340914C0350914D0360914E0370914B
:100DC0004F0320E030E01CE0E830C6E0FC0789F487
:100DD000129FE001139FD00D1124CC5CDD4FCE801B
:100DE000DF80E884F984C816D906EA06FB06A9F470
:100DF00064C0E830F10589F4129FE001139FD00D23
:100E00001124CC5CDD4FCE80DF80E884F984C416E9
:100E1000D506E606F70609F450C02F5F3F4F253090
:100E2000310591F620E030E0CCE0BC2EB29E4001CE
:100E3000B39E900C112484010C5C1D4FE801CE8000
:100E4000DF80E884F984CD28CE28CF28D9F5E83092
:100E5000D6E0FD07D1F448E353E020E030E0E401C0
:100E6000FA016191AF01FE01E20FF31FEC5CFD4F4F
:100E700060832F5F3F4F2630310591F7CC5CDD4F0B
:100E80008E839F83A887B98718C0389709F5A8E390
:100E9000B3E080E090E0E4012D91FE01E80FF91F3E
:100EA000EC5CFD4F2083019686309105A9F7CC5C60
:100EB000DD4F4E835F836887798784E690E09B8768
:100EC0008A8706C02F5F3F4F2530310509F0AECF2E
:100ED000DF91CF911F910F91FF90EF90DF90CF9016
:100EE000BF909F908F9008950F931F9340E050E024
:100EF000BCE0A42FB49FF001B59FF00D1124EC5C71
:100F0000FD4F0681178120853185061717072807B1
:100F1000390731F04F5F5F4F4530510551F7A5E07C
:100F20008A2F1F910F910895CF93DF93EC01CB018E
:100F3000BA010E947407853059F4E5EBF5E09FEFA4
:100F4000999381918D8365E0EB3BF607C9F71CC04F
:100F5000AE01A5EBB5E020E030E0ECE08E9FC001F3
:100F60001124FC01E20FF31FEC5CFD4F6081FA01DC
:100F70006193AF016D91FE01E20FF31F66832F5F56
:100F80003F4F2630310569F7DF91CF910895CF9318
:100F9000DF9380914003909141038115914009F0C6
:100FA000A2C08091420390914303089709F09BC02F
:100FB00080914403863009F096C0809145038430C7
:100FC00009F091C0409158035091590360915A0320
:100FD00070915B038091910590919205A09193058A
:100FE000B0919405481759076A077B0709F07BC041
:100FF0008091460390914703811561E0960709F0BF
:101000006BC00E94C20640914E0350914F03609105
:1010100050037091510382E393E00E94940788E0AB
:1010200096E090933F0380933E0360914E0370914E
:101030004F0380915003909151030E9474078530B3
:1010400070F180E092E09093470380934603809193
:101050004E0390914F03A0915003B09151038093A0
:10106000580390935903A0935A03B0935B03809164
:10107000910590919205A0919305B091940580936C
:101080004E0390934F03A0935003B093510362E338
:1010900073E08CE390E0DF91CF910C94D51542E59D
:1010A00053E0C5EBD5E0A8E4B3E020E030E0ECE0AD
:1010B0008E9FC0011124FC01E20FF31FEC5CFD4F79
:1010C0006081FA016193AF0169916D932F5F3F4F8A
:1010D0002630310581F7B5CF8115924021F4DF919B
:1010E000CF910C94C206DF91CF910895EF92FF92B9
:1010F0000F931F93CF93DF93DB01FC010EC00081A0
:1011000011813296D02FE12CCE2D7E01E10EF11C03
:101110002E0D3F1D411D511D1297A230B10578F7CC
:10112000FB01EE7FE80FF91F60FF06C0908180E0B1
:10113000280F391F411D511DDA01C901AA27BB27FC
:1011400066277727480F591F6A1F7B1FDB01CA01DB
:10115000AA27BB27AB0166277727480F591F6A1FAD
:101160007B1F9A0120953095C901DF91CF911F9186
:101170000F91FF90EF900895CF92DF92EF92FF9240
:10118000CF93DF93EC016A017B010E94940788E012
:1011900090E09D878C8780919601909197010196B0
:1011A000909397018093960120E430E03D8B2C8B47
:1011B00020E82E8B9827892798279B8B8A8B85E49C
:1011C0008E871F86CE8EDF8EE8A2F9A24091910510
:1011D0005091920560919305709194054A8F5B8FB1
:1011E0006C8F7D8F198E188E20E030E0A90164E1AC
:1011F00070E0CE010E960E947608982789279827DE
:10120000998F888FDF91CF91FF90EF90DF90CF90F3
:101210000895EF92FF920F931F93CF93DF93409324
:10122000540320935503F0925903E092580310930E
:101230005B0300935A03C6E5D3E01982188202E4E7
:1012400013E020E034E5F8013183208321E020938E
:101250004903AB01BC0182E393E00E94BC08F801A2
:1012600060817181762767277627809140038F7090
:10127000F4E08F9F60197109112420E030E0A9018A
:1012800084E593E00E947608982789279827998318
:10129000888362E373E082E690E0DF91CF911F9153
:1012A0000F91FF90EF900C94D515CF92DF92EF92B3
:1012B000FF921F93CF93DF93FC01428D538D648D7A
:1012C000758D80E090E016E1189FD001199FB00D58
:1012D0001124AB58BD4FCD90DD90ED90FC9013974D
:1012E000C416D506E606F70609F056C01496CD9149
:1012F000DC91159722A133A1C217D30709F04CC086
:1013000042A553A564A575A518964D935D936D935D
:101310007C931B9746A157A160A571A51C964D9380
:101320005D936D937C931F9727A550962C935097B0
:1013300053962C9153972F3F19F023E053962C93FB
:10134000C088D188DC24CD24DC2424E1C21AD10851
:1013500026A5207F30E03595279535952795C21A2B
:10136000D30AE12CF12C26E1289FE001299FD00D22
:101370001124CB58DD4F6C857D858E859F850E941D
:1013800061056C0D7D1D8E1D9F1D0E9461056C8782
:101390007D878E879F8759C001968530910509F01A
:1013A00093CF20E030E0C6E1C29FC001C39F900D03
:1013B0001124DC01AB58BD4FCD90DD90ED90FC9039
:1013C0001397CD28CE28CF28D1F54D935D936D93FB
:1013D0007C93139722A133A115963C932E931497D7
:1013E00024A135A117963C932E93169742A553A599
:1013F00064A575A518964D935D936D937C931B978B
:1014000046A157A160A571A51C964D935D936D9360
:101410007C931F9727A550962C93509752961C9219
:101420001E92519723E053962C93539754961C92F7
:10143000FC01E657FD4F80818E7F808306C02F5FC1
:101440003F4F2530310509F0AFCFDF91CF911F918C
:10145000FF90EF90DF90CF9008950F931F93CF935D
:10146000DF93E0E0F0E0D6E1CE2FDE9FD001DF9FFA
:10147000B00D1124AB58BD4F0D911D912D913C9194
:101480001397061717072807390739F414962D9173
:101490003C9115972417350729F03196E530F10571
:1014A00019F7C5E08C2FDF91CF911F910F9108950F
:1014B000209156033091570332272327322740E0EB
:1014C00001C04F5F84E0489FF0011124E856FE4FB1
:1014D00080819181009741F08217930791F70280F4
:1014E000F381E02D80E009940895EF92FF920F932D
:1014F0001F93CF93DF93EC017627672776277093AE
:10150000550360935403542745275427509357039A
:101510004093560308969827892798279093590354
:101520008093580352E4E52E53E0F52ECE014C96FD
:10153000982789279827F7019183808381E18093F9
:101540004903B901A80182E393E00E94BC080AE5BF
:1015500013E0F80111821082F70160817181762712
:1015600067277627685F7F4F809140038F70F4E094
:101570008F9F6019710911249B01275F3F4F40E045
:1015800050E08CE493E00E947608982789279827FA
:10159000F8019183808362E373E0CE018A96DF9144
:1015A000CF911F910F91FF90EF900C94D515EF9272
:1015B000FF920F931F93CF93DF93EC01E62EF12C54
:1015C00086E1689F800111240B581D4FF801868128
:1015D00097819093550380935403848195819093D0
:1015E000570380935603109267031092660381E0BD
:1015F00094EF909363038093620380E5809360038C
:1016000064857585868597850E946105F801208926
:1016100020936103208921FF15C06F5F7F4F8F4F9B
:101620009F4F22E02093680324E02093690321E088
:1016300020936A0324EF20936B0320E6209360033A
:10164000C4E0D0E00E94610560935C0370935D0389
:1016500080935E0390935F0386E18E9D80018F9D52
:10166000100D11240B581D4FF80180859185A2851E
:10167000B3858093580390935903A0935A03B09372
:101680005B03CE0188969827892798279093430378
:101690008093420386E080934903408151816281B7
:1016A000738182E393E00E94BC081092650310925C
:1016B000640360914203709143037627672776277E
:1016C000685F7F4F809140038F70F4E08F9F6019B7
:1016D000710911249B012250310940E050E08CE453
:1016E00093E00E94760898278927982790936503AE
:1016F0008093640362E373E0CE01C6960E94D51521
:10170000F801108ADF91CF911F910F91FF90EF9018
:10171000089596E1899FF0011124EB58FD4F2FEFBA
:101720003FEF328B218B91E1908B682F80E090E02E
:101730000C94D70AECEAF1E020E030E096E1899FD2
:10174000D0011124A558BD4F4D915C91119754279C
:1017500045275427608171816417750739F02F5F21
:101760003F4F34962630310579F70895253059F0EA
:10177000F901EE0FFF1FEE0FFF1FE455FE4F028031
:10178000F381E02D09940895863008F526E1829FC3
:10179000C0011124FC01EB58FD4F1082118212820E
:1017A0001382158214821782168210861186128681
:1017B00013861486158616861786108A128A118A51
:1017C000138AFC01E657FD4F80818E7F8083089548
:1017D0009F92AF92BF92CF92DF92EF92FF920F93C0
:1017E0001F93CF93DF936B017C018A01590180E045
:1017F00090E026E1982E289FE001299FD00D11242A
:10180000CB58DD4F488159816A817B81452B462B1E
:10181000472BE9F40E94C40BC882D982EA82FB827A
:101820001D830C83BF82AE8282ED94E0A0E0B0E025
:1018300088879987AA87BB8789E299E0A0E0B0E012
:101840008C879D87AE87BF878EE18B8B06C0019604
:101850008530910579F675E0972E86E1989EF00126
:101860001124EB58FD4F82E0808B692D80E090E0E1
:10187000DF91CF911F910F91FF90EF90DF90CF906C
:10188000BF90AF909F900C94D70AFF920F931F9335
:10189000CF93DF93209156033091570332272327AC
:1018A000322740E001C04F5F84E0489FE0011124EF
:1018B0008E0104551E4FD8018D919C91009709F41B
:1018C0003FC18217930779F733C182E393E00E9407
:1018D0005509409154035091550360914C03709108
:1018E0004D0380914E0390914F030E942D0A182FB3
:1018F000853008F025C1B6E18B9FE0011124CB585B
:10190000DD4F8EE18B8B6C857D858E859F850E945A
:1019100061056F5F7F4F8F4F9F4F0E9461056C87FE
:101920007D878E879F8780E1888B612F80E090E0A4
:101930000E94D70A81E090E09A8B898B01C18230A6
:1019400039F582E393E00E94550940915403509188
:10195000550360914C0370914D0380914E0390911B
:101960004F030E942D0A853008F0EAC026E1829FCD
:10197000F0011124EB58FD4F92E1908B682F80E02D
:1019800090E0DF91CF911F910F91FF900C94D70AB7
:10199000409154035091550360914C0370914D0355
:1019A00080914E0390914F030E942D0AF82E84E0FF
:1019B0008F1528F580916103857009F4C1C082E319
:1019C00093E00E94550996E1F99EE0011124CB585D
:1019D000DD4F6C857D858E859F850E9461056F5FDB
:1019E0007F4F8F4F9F4F0E9461056C877D878E8749
:1019F0009F87888980FF43C080E1888B3BC082E35A
:101A000093E00E9455098F2D90E0A6E1FA9EF00127
:101A10001124EB58FD4F208920FD03C0208922FFAF
:101A200036C026E1289F8001299F100D11240B58F4
:101A30001D4FF80164857585868597850E9461052F
:101A40006F5F7F4F8F4F9F4F0E946105D8011C969B
:101A50006D937D938D939C931F9750968C9180FFEF
:101A60000EC0C455DE4FEA81FB818F2D099581E1BF
:101A7000F801808B6F2D80E090E00E94D70A8F2DB7
:101A8000DF91CF911F910F91FF900C94C40B20898F
:101A900023FF10C0208924FF0DC0818992890196FF
:101AA000928B818B88E1808BD8011296ED91FC910D
:101AB000139737C026E1289FF001299FF00D1124CC
:101AC000DF01AB58BD4F50962C9124FF09C0E6575B
:101AD000FD4F208120FD04C080818160808330C063
:101AE00046E1489F9001499F300D1124F901EB58C0
:101AF000FD4F808984FF24C0D901A657BD4F8C912A
:101B000080FF1EC0818992890196D1F080E1808B8F
:101B1000818992890196928B818BC455DE4FEA812F
:101B2000FB818F2DDF91CF911F910F91FF90099431
:101B300080916103982F9271923109F000CFC5CE48
:101B4000DF91CF911F910F91FF900895EF92FF9237
:101B50000F931F9380913E0390913F03883026E0BE
:101B6000920731F41F910F91FF90EF900C94C707EB
:101B7000089709F075C08091500390915103A0918E
:101B80005203B09153034091910550919205609199
:101B900093057091940584179507A607B70709F078
:101BA0004BC00E94C206809149038130B9F58091F3
:101BB00054038823C1F0883009F052C0E0905803E4
:101BC000F090590300915A0310915B0360914C030C
:101BD00070914D0380914E0390914F0320E040E0BF
:101BE0000E9409093DC040918B0550918C05609180
:101BF0008D0570918E0580914C0390914D03A091BD
:101C00004E03B0914F03481759076A077B0741F508
:101C10008091900581608093900522C0863011F4F8
:101C20000E94450C809149038131D1F41F910F919D
:101C3000FF90EF900C94580A8F3F2FEF9207A20766
:101C4000B20781F340919D0550919E0560919F05DB
:101C50007091A00584179507A607B70709F4E2CF8E
:101C60001F910F91FF90EF900895FF920F931F9394
:101C7000CF93DF93C0E0D0E016E103E0E4E1FE2E75
:101C80001C9FF0011D9FF00D1124EB58FD4F83891F
:101C900081111DC080819181A281B381892B8A2B02
:101CA0008B2BD9F0038B8489982F9F5F948B863080
:101CB00050F0F08A6C2F80E090E00E94D70A8C2FC1
:101CC0000E94C40B0AC08C2F0E949A0B06C0838905
:101CD0008F3F19F083898150838B2196C530D105C0
:101CE00079F6DF91CF911F910F91FF900895809128
:101CF000720281FF09C00E94350E0E944B0680913E
:101D000072028D7F80937202199B0FC0089562E367
:101D100073E088E592E00E94A616009731F0FC017E
:101D2000EE5CFC4F11820E94A60D199BF0CF8091B2
:101D300072028E7F8093720208958F929F92AF926B
:101D4000BF92CF92DF92EF92FF920F931F93CF93A8
:101D5000DF93CDB7DEB7AA970FB6F894DEBF0FBEFC
:101D6000CDBF6B017C018091910590919205A0916E
:101D70009305B09194058C259D25AE25BF254091F6
:101D8000990550919A0560919B0570919C0584235B
:101D90009523A623B723892B8A2B8B2B49F0B09050
:101DA0009505A0909605909097058090980504C0A1
:101DB000BC2CAD2C9E2C8F2C88E096E09E878D87C6
:101DC0004B2D5A2D692D782DCE0101960E94940736
:101DD0000091910510919205209193053091940501
:101DE0000D8F1E8F2F8F38A3BFA2A8A699A68AA6F3
:101DF000E5EBF5E0CE014796AE014F5D5F4F2191D7
:101E0000DC012D93CD01DA011D92AD01B5E0EB3B74
:101E1000FB07A9F780E091E0988B8F8728E030E0FE
:101E20003A8B298B26E02B8B24E02C8B9E8B8D8B81
:101E3000BE016F5F7F4F8AE290E00E94D51514E1EA
:101E4000C701B6010E947407082F6B2D7A2D892DCA
:101E5000982D0E947407853028F00530E8F020E0C6
:101E600030E00DC00530C0F02CE0829FF00111245D
:101E7000EC5CFD4FC682D782E086F1860DC0000083
:101E80002F5F3F4F203187E23807C9F70E94770E56
:101E90001150B1F680E001C081E0AA960FB6F89427
:101EA000DEBF0FBECDBFDF91CF911F910F91FF908D
:101EB000EF90DF90CF90BF90AF909F908F9008955C
:101EC000E1E8F0E080818D608083109285001092BF
:101ED000840086E290E0909389008093880082E0FD
:101EE00080936F0008951F920F920FB60F921124E6
:101EF0002F933F934F935F936F937F938F939F9312
:101F0000AF93BF93EF93FF938091040190910501EC
:101F1000009731F00197909305018093040128C048
:101F200081E090E090930501809304019091C101BC
:101F300086B1809589279091C601982390959093BA
:101F4000C6012091C701282329272093C70189238F
:101F500082239091C10198279093C1019091C00173
:101F60002091C1012823292B2093C0010E94232402
:101F700080910601909107019C0121503109309315
:101F8000070120930601892B09F05BC087EC90E0E4
:101F900090930701809306018091FC029091FD02CD
:101FA000A091FE02B091FF020196A11DB11D809388
:101FB000FC029093FD02A093FE02B093FF02809179
:101FC000FA029091FB029C012F5F3F4F3093FB027E
:101FD0002093FA02813B944018F0E0E0F0E009948D
:101FE000809172028260809372020E94BE1F0E94E2
:101FF0001F248091300290913102A0913202B09161
:102000003302892B8A2B8B2B99F08091300290918F
:102010003102A0913202B09133020197A109B109B6
:102020008093300290933102A0933202B093330236
:1020300080917402882329F08091740281508093EA
:102040007402FF91EF91BF91AF919F918F917F911A
:102050006F915F914F913F912F910F900FBE0F9015
:102060001F901895E0E0F0E0099408950895089510
:1020700008950895FF920F931F93CF93DF93CFE7B7
:10208000D1E00DE114E0FE012196F4901F92FF9241
:102090001F930F930E9400040F900F900F900F90CA
:1020A000F110F1CFDF91CF911F910F91FF90089523
:1020B0002F923F924F925F926F927F928F929F9258
:1020C000AF92BF92CF92DF92EF92FF920F931F9346
:1020D000CF93DF93212C312C79EE472E73E0572ECE
:1020E000EDEEAE2EE3E0BE2EF6EFCF2EF3E0DF2EC8
:1020F000ABEFEA2EA3E0FA2E00E014E0B5E08B2E61
:10210000B4E09B2EC0E16C2EC4E07C2E3F922F9257
:102110005F924F920E94000486E1829DE001839DC0
:10212000D00D1124CB58DD4F488159816A817B81C4
:102130005527662777277F936F935F934F93BF92BF
:10214000AF920E940004488159816A817B81452FAA
:1021500050E060E070E07F936F935F934F93DF9266
:10216000CF920E940004488159816A817B81462F69
:1021700050E060E070E07F936F935F934F93FF9226
:10218000EF920E940004488159816A817B81472F28
:102190005527662777277F936F935F934F931F93FE
:1021A0000F930E9400044C815D812C813D81232F7F
:1021B0003327542F4427242B352B3F932F939F9263
:1021C0008F920E9400042B898DB79EB780960FB620
:1021D000F8949EBF0FBE8DBF1F922F937F926F9278
:1021E0000E9400049FEF291A390A0F900F900F9058
:1021F0000F9085E02816310409F088CFDF91CF9148
:102200001F910F91FF90EF90DF90CF90BF90AF9014
:102210009F908F907F906F905F904F903F902F9006
:1022200008952F923F924F925F926F927F928F927A
:102230009F92AF92BF92CF92DF92EF92FF920F9355
:102240001F93CF93DF9300D000D0CDB7DEB7E12C42
:10225000F12C8EE993E02BEAA22E23E0B22E30EB94
:10226000C32E33E0D32E0AEB13E04FEB842E43E072
:10227000942E54EC652E53E0752E6DEC462E63E0E3
:10228000562E72ED272E73E0372E4CE04E9D9001B6
:102290004F9D300D11242C5C3D4F3C832B83F90165
:1022A00040811F924F93FF92EF929F938F93898368
:1022B0009A830E940004EB81FC8141811F924F931D
:1022C000BF92AF920E940004EB81FC8142811F9279
:1022D0004F93DF92CF920E940004EB81FC814381F7
:1022E0001F924F9325EB33E03F932F930E940004FE
:1022F000EB81FC8144811F924F931F930F930E94A7
:102300000004EB81FC8145811F924F939F928F9235
:102310000E940004EB81FC814681578160857185B4
:102320005527662777277F936F935F934F937F920D
:102330006F920E940004EB81FC8146815781608589
:1023400071850FB6F894DEBF0FBECDBF452F50E0AC
:1023500060E070E07F936F935F934F935F924F9233
:102360000E940004EB81FC81468157816085718564
:10237000462F50E060E070E07F936F935F934F9340
:102380003F922F920E940004EB81FC81468157818D
:1023900060857185472F5527662777277F936F9331
:1023A0005F934F9327ED33E03F932F930E940004F8
:1023B000EB81FC81428553855F934F932CED33E095
:1023C0003F932F930E940004EFEFEE1AFE0A0FB620
:1023D000F894DEBF0FBECDBF89819A8135E0E31648
:1023E000F10409F052CF0F900F900F900F90DF91F2
:1023F000CF911F910F91FF90EF90DF90CF90BF9002
:10240000AF909F908F907F906F905F904F903F9094
:102410002F9008958091C8011F928F9386E893E0D2
:102420009F938F930E9400040F900F900F900F9036
:1024300008958091BA051F928F938091B9051F92DC
:102440008F938091B8051F928F938091B7051F924B
:102450008F938091B6051F928F938091B5051F923F
:102460008F9384E693E09F938F930E9400048DB72F
:102470009EB70E960FB6F8949EBF0FBE8DBF0895FF
:10248000CF92DF92EF92FF920F931F938091A1055D
:102490009091A205892B09F449C02091A1053091A2
:1024A000A2056091A3057091A405C090A505D090E8
:1024B000A6050091A7051091A805CB01A0E0B0E00A
:1024C0006627782F892F9A2FE12CF12C7601DD24B5
:1024D000CC246C0D7D1D8E1D9F1D620F731F811DF1
:1024E000911D20E030E0302F222711270027600FB8
:1024F000711F821F931F60938B0570938C058093CF
:102500008D0590938E050E949D0E60918B057091B4
:102510008C0580918D0590918E05EE24E394F12C2D
:1025200001E010E020E048E00E9409091F910F91AE
:10253000FF90EF90DF90CF900895DF92EF92FF929F
:102540000F931F93CF93DF9300D0CDB7DEB79A835D
:10255000898361E571E0CE0101960E94F02A8C0129
:10256000D12C0BC0D39484E0D89EF0011124E85FF5
:10257000FE4F80819181892B89F184E0D89E700182
:102580001124F701E85FFE4FB801808191810E941C
:10259000CB2A892B39F700E010E06FE471E0CE011F
:1025A00001960E94F02A40E050E060E070E00E9456
:1025B0007529F801EE0FFF1FEF55FA4F7183608305
:1025C0000F5F1F4F0A30110541F7F701E85FFE4F1B
:1025D0000280F381E02D099581E001C080E00F9039
:1025E0000F90DF91CF911F910F91FF90EF90DF90AF
:1025F00008950F931F93CF93DF938C018091A105D2
:102600009091A205892BA1F0C0E0D0E0F999FECF0E
:10261000FE01EE0FFF1FEF55FA4F60817181CE0171
:10262000800F911F0E94492B2196C430D10571F76C
:10263000DF91CF911F910F91089586E290E00E9463
:10264000F91240EC58EA60E071E086E290E00E9406
:102650009605E5E9F5E06083718382839383809139
:1026600098051F928F93809197051F928F93809169
:1026700096051F928F9380811F928F9387E493E03A
:102680009F938F930E9400048DB79EB70A960FB652
:10269000F8949EBF0FBE8DBF0895CF92DF92EF9248
:1026A000FF920F931F9382E290E00E94F9124FEF86
:1026B0005FEF6FEF70E082E290E00E949605E9E93B
:1026C000F5E060837183828393838B019C01009585
:1026D000109520953095C0909105D0909205E0908E
:1026E0009305F0909405C622D722E822F9220C29FE
:1026F0001D292E293F2900939D0510939E052093A7
:102700009F053093A00580919C051F928F93809127
:102710009B051F928F9380919A051F928F938081C2
:102720001F928F938CE293E09F938F930E940004FB
:102730008DB79EB70A960FB6F8949EBF0FBE8DBF99
:102740001F910F91FF90EF90DF90CF9008950F931E
:102750001F938EE190E00E94F9124AE05AE267E18D
:1027600073E68EE190E00E949605E1E9F5E0608372
:102770007183828393830091990510919A0520912A
:102780009B0530919C05DC01CB0180239123A22382
:10279000B323B901A8014095509560957095842B9D
:1027A000952BA62BB72B80939D0590939E05A09308
:1027B0009F05B093A005809194051F928F938091FF
:1027C00093051F928F93809192051F928F93808122
:1027D0001F928F9383E193E09F938F930E94000455
:1027E0008DB79EB70A960FB6F8949EBF0FBE8DBFE9
:1027F0001F910F91089508950F931F93CF93DF9327
:1028000001E915E0CEE1D0E0F999FECFF801619140
:102810008F01CE010E94492B2196C232D105A1F72A
:1028200009E915E0C2E2D0E0F999FECFF801619123
:102830008F01CE010E94492B2196C632D105A1F706
:1028400005E915E0C6E2D0E0F999FECFF801619103
:102850008F01CE010E94492B2196CA32D105A1F7E2
:10286000DF91CF911F910F9108950F931F93CF93F5
:10287000DF934AE05AE267E173E68EE190E00E945E
:102880009605C1E9D5E0688379838A839B834FEFFE
:102890005FEF6FEF70E082E290E00E94960509E939
:1028A00015E0F801608371838283938340EC58EADA
:1028B00060E071E086E290E00E94960560939505E5
:1028C000709396058093970590939805F801008181
:1028D000118122813381D901C80180959095A095FD
:1028E000B095488159816A817B81402351236223BD
:1028F0007323842B952BA62BB72B80939D05909348
:102900009E05A0939F05B093A005DF91CF911F91E5
:102910000F910895CF93DF93FC01DB0132C08695C0
:1029200086958C93808183708295807F11968C939D
:1029300011979181911103C0129682E025C0929562
:102940009F70980F11969C93119781818F70880FBB
:10295000880F12968C9312979281911103C013964F
:1029600081E012C09295969596959370980F129665
:102970009C93129782818F7313968C93139714965E
:10298000339680818111CBCF1C92EB0107C0E88187
:10299000EF73F0E0E05EFB4FE491E993CA17DB07C9
:1029A000B1F7982FFE012DE301C021939150E8F774
:1029B000C80FD11D1882DF91CF910895019728F09B
:1029C0000000000000000000F9CF08958EBD0DB496
:1029D00007FEFDCF0895CF93DF931F92CDB7DEB7EB
:1029E0002A988F71806A69830E94E6146981862F14
:1029F0000E94E6142A9A0F90DF91CF910895CF9309
:102A0000DF931F92CDB7DEB72A988F7180686983F4
:102A10000E94E6146981862F0E94E6142A9A0F907C
:102A2000DF91CF910895FF920F931F93CF93DF9380
:102A3000182F9FE1F92EF82289E18F15C8F0C12FD8
:102A4000C076D0E085E0D595C7958A95E1F70C2F43
:102A50008091CB01C81761F063E08FE10E94EB1415
:102A6000CC2321F06C2F8FE10E94FF140093CB0147
:102A70002A988F2D0E94E61480E00E94E61417FF2A
:102A800003C080E00E94E6148EB52A9ADF91CF91B0
:102A90001F910F91FF900895FF920F931F93CF9373
:102AA000DF93F62E082F0F710A31C8F4C82FC076B5
:102AB000D0E025E0D595C7952A95E1F71C2F8091A8
:102AC000CB01C81761F063E08FE10E94EB14CC23C7
:102AD00021F06C2F8FE10E94FF141093CB012A98F4
:102AE000802F80640E94E6148F2D0E94E6142A9A9B
:102AF000DF91CF911F910F91FF9008950F931F9336
:102B0000CF93DF93EC018B012A988AE30E94E614AD
:102B10000C0F1D1F05C080E00E94E6148EB589933E
:102B2000C017D107C1F72A9ADF91CF911F910F915A
:102B300008950F931F93CF93DF93EC018B012A9895
:102B40008AE70E94E6140C0F1D1F03C089910E94A2
:102B5000E614C017D107D1F72A9ADF91CF911F91C0
:102B60000F9108951F93CF93DF931F92CDB7DEB7D8
:102B7000162F682F84ED79830E944C15612F86ED06
:102B80000E944C157981672F87ED0E944C158AE0D1
:102B900090E00E94DE148AEE0E94131580FDFBCFA8
:102BA0000F90DF91CF911F910895CF92DF92EF9216
:102BB000FF920F931F93CF93DF931F92CDB7DEB792
:102BC0008C016B01198235E6E32EF12C0FC08FE1E9
:102BD0000E94131583FD06C08FE10E94131583FF29
:102BE00012C009C088EE93E00E94DE1481E0E81A6A
:102BF000F10869F7F1CF60E88FE10E94FF1460E807
:102C00008FE10E94EB1460E082E00E944C156AE1C3
:102C100083E00E944C15602F86E00E944C15C8018D
:102C2000965E692F87E00E944C1561E070E0CE014E
:102C300001960E949915B801C6010E94991568E095
:102C40008CE10E94EB1468E08FE10E94FF140F906A
:102C5000DF91CF911F910F91FF90EF90DF90CF9078
:102C600008950F931F93CF93DF93229A2A9A84B1EA
:102C7000886284B92D9A2498229A80E58CBD81E0DF
:102C80008DBD80E197E20E94DE142A988FEF0E94AA
:102C9000E6142A9A88EE93E00E94DE148DE10E94E9
:102CA000131580FFFBCF82E70E9413158093C801A4
:102CB0001092B50582E28093B60589EF8093B7053F
:102CC00081E08093B80588E38093B90588EC809310
:102CD000BA05C0E0D0E0FE01EE59FB4F8491FE0141
:102CE000ED59FB4F229664918F3F11F46F3F19F01D
:102CF0000E944C15F0CFFE01EE59FB4F84919E01CE
:102D00002E5F3F4FFE01ED59FB4FE4918F3F11F4D1
:102D1000EF3F61F01E2F00E02396F901EE59FB4FC3
:102D20002491B801622B0E94B215E5CF1092CA011E
:102D30001092C90160EC8BE10E944C1564E08FE1B8
:102D4000DF91CF911F910F910C94FF14CF92DF92DE
:102D5000EF92FF920F931F93CF93DF9300D000D099
:102D600000D0CDB7DEB77C016B0189E30E9413155B
:102D7000882309F46AC06091C9017091CA0180E09A
:102D80000E944C158091C9019091CA01692F81E080
:102D90000E944C1566E070E0CE0101960E947E15FF
:102DA000898190E09093CA018093C9018091C90103
:102DB0009091CA013A8120E0822B932B9093CA0113
:102DC0008093C9018B811C8100E0082B8D813E819D
:102DD00020E0282B27FF05C037FD03C0E016F106D1
:102DE00010F40E94311604501109E016F10608F49F
:102DF0008701B801C6010E947E158091C90190919A
:102E0000CA01019781159A4198F48091C901909166
:102E1000CA016091C9017091CA0161508CE00E94A1
:102E20004C158091C9019091CA010197692F05C085
:102E30006FEF8CE00E944C1569E18DE00E944C150B
:102E400060E48EE10E94FF1402C000E010E0C801BF
:102E500026960FB6F894DEBF0FBECDBFDF91CF919F
:102E60001F910F91FF90EF90DF90CF90089569EA46
:102E700077E187E190E00C946F06CF93DF93409168
:102E800002015091030180917002909171024817E4
:102E9000590709F45BC020E030E076E1622F729FB1
:102EA000F001739FF00D1124EB58FD4F868197813F
:102EB00081159741E1F58091F90280FD47C080912D
:102EC000F90281608093F9028091000190910101E3
:102ED0009093710280937002A8E6B3E080E090E0E6
:102EE000C0E0D3E00EC071917D93F0937102E09346
:102EF00070020196E153F34021F4D0937102C09324
:102F00007002E0917002F09171024E175F0759F75D
:102F100046E1429FE001439FD00D1124CB58DD4F85
:102F200028E1288B0E94D70A83E08B8B0FC02F5F8C
:102F30003F4F2530310509F0B1CF8091730282FFF8
:102F400005C0809173028B7F80937302DF91CF91D4
:102F500008951F93CF93DF93182FA82FB0E086E139
:102F6000189FF0011124EB58FD4F808980FF06C0A7
:102F7000809173028B7F80937302B4C081899289A0
:102F8000892B21F081899289019731F586E18A9F09
:102F9000E0018B9FD00D1124CB58DD4F81E090E0F4
:102FA0009A8B898B46E150E068E974E088E693E00B
:102FB0000E94B22A612F86E190E00E94D70A809198
:102FC00073028460809373028091F9028E7F8093F4
:102FD000F9028FEF8B8B86C081899289029708F462
:102FE00049C0808983FF46C082E090E0928B818B4C
:102FF00020916003207F30E0359527953595279502
:103000002E5D3F4F0CC08091C00085FFFCCFF901C1
:10301000EE5CFC4F80818093C6002F5F3F4F809114
:103020004203D82F80E0C82F80914303AE01480FA0
:10303000511D4E5D5F4FE0916003E07FF0E0F5953C
:10304000E795F595E7954E1B5F0B24173507DCF2E6
:1030500086E18A9FF0018B9FF00D1124EB58FD4F04
:1030600080E1808B612F80E090E0DF91CF911F9114
:103070000C94D70A86E18A9FF0018B9FF00D1124F2
:10308000EB58FD4F818992890297B8F0808984FFBF
:1030900014C08091F90280FF10C08FEF838B809164
:1030A00070029091710290930101809300018091D0
:1030B000F9028E7F8093F90215C086E18A9FF001A4
:1030C0008B9FF00D1124EB58FD4F808981110AC0B0
:1030D0008091F9028E7F8093F902DF91CF911F9149
:1030E0000C943D17DF91CF911F9108959091420369
:1030F00080E020914303820F911D4C979F938F9303
:103100008FEA94E09F938F930E9400040F900F909A
:103110000F900F90089566E778E189E591E00C94AF
:103120009F06CF92DF92EF92FF920F931F93CF9360
:10313000DF931F92CDB7DEB790916003907FC92EC9
:10314000D12CD594C794D594C79492E2C90ED11CC2
:1031500039E6E32E35E0F32E13C0F601EE5CFC4FAA
:1031600090811F929F93FF92EF9289830E940004A7
:10317000EFEFCE1ADE0A0F900F900F900F9089811B
:103180001091420300E0909143039801290F311DF3
:103190002E5D3F4F40916003407F50E0559547952D
:1031A00055954795241B350BC216D306B4F296E10C
:1031B000899FF0011124EB58FD4F9FEF938B90E115
:1031C000908B682F80E090E00F90DF91CF911F915E
:1031D0000F91FF90EF90DF90CF900C94D70ACF9291
:1031E000DF92EF92FF92CF93DF938091CC01909189
:1031F000CD01029778F08091CC019091CD01449758
:1032000048F48091CC019091CD0101969093CD012D
:103210008093CC018091CC019091CD01892B09F054
:103220007AC08CE695E09F938F930E94000461E939
:1032300078E182E399E00E946F0661ED72EA8AEB21
:103240009CE30E949D0E0F900F90882309F45DC0AF
:1032500080E894E8AEE1B0E000000197A109B1096F
:10326000D9F729E032E340E050E561ED72EA8AEBFC
:103270009CE30E94E80BC0E245E0C42ED12CE12C77
:10328000F12CD6E11DC040E050E561ED72EA8AEB19
:103290009CE30E942D0AC82ED12CE12CF12CC150A8
:1032A00049F48AE795E09F938F930E9400040F9062
:1032B0000F906DC085E0C816D104E104F10458F008
:1032C000DC9DF001DD9DF00D1124EB58FD4F81894F
:1032D00092890197C1F686EA95E09F938F930E94A9
:1032E000000486E18C9DF0018D9DF00D1124E657C0
:1032F000FD4F80818160808382E090E09093CD01DA
:103300008093CC010F900F9006C081E090E09093E5
:10331000CD018093CC018091CC019091CD010B9790
:10332000B0F18091CC019091CD01449780F58CEC67
:1033300095E09F938F930E94000440E050E561ED7B
:1033400072EA8AEB9CE30E942D0AC82FC82ED12C6A
:103350004AE950E06EEC74E088E693E00E94B22AFD
:1033600086E18C9DF0018D9DF00D1124EB58FD4FF1
:1033700088E1808B0F900F906C2F8AE990E0DF91AD
:10338000CF91FF90EF90DF90CF900C94D70ADF9110
:10339000CF91FF90EF90DF90CF900895CF93DF9380
:1033A000809194051F928F93809193051F928F9324
:1033B000809192051F928F93C1E9D5E088811F9279
:1033C0008F9384EE95E09F938F930E9400046EEF9D
:1033D0007CE184E490E00E949F061092BB05188275
:1033E00019821A821B828AE09AE2A7E1B3E68093EF
:1033F000BC059093BD05A093BE05B093BF058DB7E6
:103400009EB70A960FB6F8949EBF0FBE8DBFDF9190
:10341000CF9108950F931F93ECE5F3E0119295E09F
:10342000E038F907D9F791E090935C0390935D033E
:1034300046E040935E0358EC5093600368E360936A
:1034400061039093620379EF7093630320E830E0A7
:1034500030936703209366031092780322E220934F
:10346000790370937A0390937B0360937C0350936A
:103470007D0323E62093480432E83093490433E582
:1034800030934A0420934B0425E320934C049093FB
:103490004D0480934E0427E320934F0423E02093B0
:1034A000500490935104209352044093530492E3A8
:1034B0009093540494E0909355042091BC0520937C
:1034C00056042091BD05209357042091BE052093FA
:1034D00058042091BF0520935904813019F083309E
:1034E00041F505C08093BB0581E296E024C086E3E8
:1034F00080935A0490935B048091D60580935C047A
:103500008091D70580935D048091D80580935E04F7
:103510008091D90580935F049093BB0581E396E089
:103520009F938F930E9400040F900F90E0E6F4E0C9
:103530000AC080E496E09F938F930E9400040F904E
:103540000F90EAE5F4E08CE08083818381E482835C
:1035500086E5838382E584839DE295839CE496835C
:1035600099E4978397E4908798E4918794E592870C
:1035700023E42387948785878FEF86870FEF1FEFDC
:10358000980143E450E064E470E084E292E00E9439
:10359000750A809194051F928F93809193051F92D5
:1035A0008F93809192051F928F93809191051F9226
:1035B0008F9386E596E09F938F930E9400048091FD
:1035C000BF051F928F938091BE051F928F938091AC
:1035D000BD051F928F938091BC051F928F9381E749
:1035E00096E09F938F930E9400048DB79EB74496F8
:1035F0000FB6F8949EBF0FBE8DBF1F910F91089517
:103600008F929F92AF92BF92DF92EF92FF920F93B1
:103610001F93CF93DF938091BB05883081F4809115
:10362000300290913102A0913202B091330288357C
:103630009240A105B10518F483E08093BB05F12CFD
:1036400085E0E82E0CE016E098E0D92E10C083E06B
:103650008F1568F487E08093BB058DEF95E09F930D
:103660008F930E9400040F900F9081E0B8C080916A
:10367000BB058330F1F020F4813079F0A8F407C065
:10368000853031F1E0F0863009F0A1C09EC081E0C4
:103690000E940A1AE09274029AC080917402811109
:1036A00096C01092BB0512C083E08093BB05F12C3D
:1036B0008EC0E092740283E00E940A1A88C0809152
:1036C0007402811184C083E08093BB05F3947FC0B2
:1036D0008091D5051F928F938091D4051F928F936F
:1036E0008091D3051F928F938091D2051F928F9363
:1036F0001F930F930E9400049091D405D92F20E0CE
:10370000C22FCE01AA2797FDA095BA2F2091D505EB
:10371000820F911DA11DB11D809330029093310243
:10372000A0933202B09333028090BC059090BD0507
:10373000A090BE05B090BF05809291059092920531
:10374000A0929305B09294054091CE055091CF057B
:103750006091D0057091D1054093990550939A05D9
:1037600060939B0570939C05DB01CA018095909541
:10377000A095B095482159216A217B21842B952B56
:10378000A62BB72B80939D0590939E05A0939F0534
:10379000B093A0058091C2059091C305A091C40586
:1037A000B091C5058093950590939605A0939705D4
:1037B000B0939805D092BB058DB79EB70A960FB609
:1037C000F8949EBF0FBE8DBF02C01092BB050E9431
:1037D000770E8091BB05883009F039CF80E0DF910A
:1037E000CF911F910F91FF90EF90DF90BF90AF901E
:1037F0009F908F900895FC0104962191DB012D93F9
:10380000BD01E817F907C9F708952F923F924F922B
:103810005F926F927F928F929F92AF92BF92CF9260
:10382000DF92EF92FF920F931F93CF93DF9300D01D
:1038300000D0CDB7DEB79C838B838B011A01612C3E
:10384000712C9B012E5E3F4F3A8329832B0136E179
:10385000430E511C6B018EE0C80ED11C5B0192E03F
:10386000A90EB11C7B01E6E0EE0EF11C4B01FAE063
:103870008F0E911CEB81FC81E60DF71D8081833357
:1038800009F456C048F48130E9F0C0F0833011F1FA
:10389000863009F07BC02FC0863309F468C038F445
:1038A000843309F44DC0853309F070C050C08336AD
:1038B00009F468C08F3F09F069C07EC02FEF621A1B
:1038C000720A7AC02181C3010296243009F056C0E1
:1038D000B60107C02181C3010296243009F04EC011
:1038E000B5012B813C81820F931F0E94FB1B36E0A8
:1038F000630E711C61C02181C3010296243011F452
:10390000B701EFCF2830D1F5B7012B813C81820F71
:10391000931F0E94FB1BC3010696B4012B813C81BF
:10392000820F931F0E94FB1B3AE0630E711C44C080
:103930002181C3010296243009F569817A81D1CFB2
:103940008181813071F48281F801818306C0818197
:10395000813039F48281F8018083F3E06F0E711CAD
:103960002BC022E0620E711C680E711C25C02181E3
:10397000C3010296243011F4B201B3CF3C01620EB0
:10398000711C1AC084E0680E711C16C01F928F93C0
:10399000EFE8F6E0FF93EF930E940004EB81FC81D7
:1039A000E60DF71D818132E0630E711C680E711CFB
:1039B0000F900F900F900F90EB81FC81E60DF71D9B
:1039C00080818F3F21F06214730408F453CF0F906D
:1039D0000F900F900F90DF91CF911F910F91FF905B
:1039E000EF90DF90CF90BF90AF909F908F907F909F
:1039F0006F905F904F903F902F900895CF9380915C
:103A00004203909143030E945D058935924018F06E
:103A100085EA96E019C0E0ECF5E0119285E0EA3D18
:103A2000F807D9F780916003883C61F480916103C5
:103A3000883341F480916203813021F480916303E3
:103A4000893F39F08FEB96E09F938F930E9400049B
:103A500070C080914203909143030E945D05AC01C8
:103A60004850514060EC75E088E494E00E94051CE9
:103A70008091C105813031F030F1823051F08330D6
:103A8000D1F410C040E850E060EC75E088EC93E0C1
:103A900006C040E450E060EC75E088E893E00E94E6
:103AA000051C11C040E850E060EC75E088EC93E044
:103AB0000E94051CEECF8AED96E09F938F930E94A3
:103AC00000040F900F90C091C005C530B9F0C6300A
:103AD00041F1C23081F580916C0390916D03A0910A
:103AE0006E03B0916F038093BC059093BD05A093C6
:103AF000BE05B093BF058CEE96E015C080916C03B7
:103B000090916D03A0916E03B0916F038093BC05FB
:103B10009093BD05A093BE05B093BF0586E097E0E6
:103B200002C08EE197E09F938F930E940004C093A0
:103B3000BB050F900F90CF9108950F931F930091A5
:103B4000990510919A0520919B0530919C05D9010A
:103B5000C80180959095A095B095409191055091A0
:103B6000920560919305709194054023512362233F
:103B70007323842B952BA62BB72B80939D059093B5
:103B80009E05A0939F05B093A00580914801909158
:103B900049010E94B30668E27FE18091480190915B
:103BA00049010E949F068AE09AE2A0E0BFE6809366
:103BB000D2019093D301A093D401B093D5018AE0B0
:103BC0009AE2A0E0B5E78093CE019093CF01A09355
:103BD000D001B093D1011F910F9108950F931F93BE
:103BE000CF93DF9342E050E062E370E088E491E03D
:103BF0000E94312B8091480190914901019631F446
:103C000089E395E090934901809348018AB1886FD8
:103C10008AB98BB187708BB987B1807E87B988B13B
:103C20008F6188B9CBEDD5E00CE310E01882C801B4
:103C30000E94412B8F3F11F0888301C0188221968A
:103C40000F5F1F4F0834110589F71092E705DF91C8
:103C5000CF911F910F9108950F931F93CF93DF93EF
:103C6000C82FD62F8C3008F053C08C5E80935C0335
:103C700060935D030091D2011091D3012091D40192
:103C80003091D50146E259E066E279E082E090E0C9
:103C90000E94750A0091CE011091CF012091D001B0
:103CA0003091D10146E259E066E279E082E090E0AD
:103CB0000E94750ACB3009F45DC0CC2309F1C130F4
:103CC00091F0C23091F0C33081F0C43081F0C53042
:103CD00081F0C63081F0C73071F0C83071F0C93062
:103CE00071F0C7E00DC0C0E00BC0C1E009C0C2E088
:103CF00007C0C3E005C0C4E003C0C5E001C0C6E022
:103D0000C0935C03D0935D030FEF1FEF98012AC0AF
:103D1000883781F58AE080935C0360935D030FEF41
:103D20001FEF980146E259E066E279E082E090E018
:103D30000E94750A0091D2011091D3012091D40103
:103D40003091D50146E259E066E279E082E090E008
:103D50000E94750A0091CE011091CF012091D001EF
:103D60003091D10146E259E066E279E082E090E0EC
:103D70000E94750ADF91CF911F910F910895AF9224
:103D8000BF92CF92DF92EF92FF920F931F93CF9348
:103D9000DF93CDB7DEB763970FB6F894DEBF0FBEE3
:103DA000CDBF0E94F826882301F1CE0101960E9422
:103DB00008278823D1F0A980BA80CB80DC80ED80F1
:103DC000FE800F81188529853A854B855C856D8538
:103DD0007E85CE010F960E942B24CE0101960E9473
:103DE000882168858F810E942C1E8091DA058823A6
:103DF00071F01092DA050E9437288FEF8F87888B39
:103E0000898B8A8B8B8BCE010F960E948D246396B3
:103E10000FB6F894DEBF0FBECDBFDF91CF911F91DB
:103E20000F91FF90EF90DF90CF90BF90AF900895EB
:103E3000E82FF0E0E552FA4F8081982F926090834E
:103E4000611103C08E7F826001C08360808308950A
:103E5000CF93DF9380915C03853A09F08CC0809109
:103E60005D038A3509F087C0D0915E03C0915F037E
:103E7000DC30A8F5C23098F5D11107C06C2F80E076
:103E80000E94181F6C2F81E028C0D13009F06BC050
:103E90006C2F82E00E94181F6C2F83E01EC06C2FD5
:103EA00084E01BC0D33019F46C2F85E016C0D430E9
:103EB00009F05DC06C2F86E00E94181F6C2F87E010
:103EC0000CC06C2F88E009C0D63019F46C2F89E043
:103ED00004C0D73021F46C2F8AE00E94181F8D2F68
:103EE00084518B3008F047C0C23008F044C0D43150
:103EF00019F46C2F80E018C0D53119F46C2F81E0D3
:103F000013C0D63119F46C2F82E00EC0D73119F4EA
:103F10006C2F83E009C0D83119F46C2F84E004C001
:103F2000D93129F46C2F85E00E94181F24C0DA31A2
:103F300019F46C2F86E013C0DB3119F46C2F87E085
:103F40000EC0DC3119F46C2F88E009C0DD3119F4A2
:103F50006C2F89E004C0DE3171F46C2F8AE0DF91B0
:103F6000CF910C94181FD23009F09CCF98CFD53048
:103F700009F0AACFA6CFDF91CF910895CF93DF9319
:103F800000D000D01F92CDB7DEB780914A01982FA4
:103F9000915090934A0181110DC08091DA0591E012
:103FA00089278093DA0510924A018091E8058F5F96
:103FB0008093E8058091D601882319F08150809381
:103FC000D6016091D2017091D3018091D40190917A
:103FD000D5010E947407E82F4091910550919205F8
:103FE0006091930570919405452B462B472B19F151
:103FF0006091D2017091D3018091D4019091D5014B
:104000006115710581059105B1F0E53059F02CE09D
:10401000E29FF0011124EC5CFD4F228533852A30AC
:10402000310548F42091D601211105C02CE32093DD
:10403000D6010E949D0E80914B01882319F081507A
:1040400080934B016091CE017091CF018091D0019E
:104050009091D1010E947407E82F409191055091F1
:1040600092056091930570919405452B462B472B43
:1040700019F16091CE017091CF018091D0019091A2
:10408000D1016115710581059105B1F0E53059F057
:104090002CE0E29FF0011124EC5CFD4F228533857A
:1040A0002A30310548F420914B01211105C02CE341
:1040B00020934B010E949D0E8FEF89838A838B830F
:1040C0008C838D83CE0101960E948D240F900F90DA
:1040D0000F900F900F90DF91CF910895CF92DF92C4
:1040E000EF92FF920F931F93CF93DF93CDB7DEB77D
:1040F0006C970FB6F894DEBF0FBECDBFD82EC62E7C
:1041000085EA8F878AE5888B8BE0898B85E08A8BAF
:10411000262F30E02E5F3F4F95E0220F331F9A95F8
:10412000E1F720612B8B1C8A1D8A1E8A1F8A188E3C
:10413000198EDA8E80E18B8F1C8EFE0171969E01A6
:10414000245E3F4F81919C8D980F9C8FE217F3075F
:10415000C9F78E01015F1F4F78018EE0E80EF11C58
:10416000F80181918F010E94E9030E151F05C1F727
:1041700049E851E461E07DE049835A836B837C83A5
:104180009D819E7F92609D8383E08E83C8868D2D66
:1041900084568F83CE0101960E945B27CE01019643
:1041A0000E9488216C960FB6F894DEBF0FBECDBF7B
:1041B000DF91CF911F910F91FF90EF90DF90CF9003
:1041C00008950F931F93CF93DF930E94BF1ECBEDF3
:1041D000D5E00CE310E0688161FF0DC0862F8D7F74
:1041E00088836170802F885D0E946E206881617075
:1041F000C8010E94492B21960F5F1F4F08341105FB
:1042000051F7DF91CF911F910F91089580914C014B
:1042100090914D010E94B30664E472E280914C01DA
:1042200090914D010C949F068FE790E190934D0182
:1042300080934C014AE069EE75E08BE996E00E94BC
:10424000E1244AE063EA76E083EF95E00C94E12410
:10425000CF93DF93FC01EB01408151816281738137
:10426000488359836A837B8384818D839E012A5F7F
:104270003F4F4481389650E0BF01C9010E94BB2ADC
:1042800088819981AA81BB812C81B7FF02C02260FD
:1042900001C02D7F2C83BF7188839983AA83BB8340
:1042A000DF91CF9108950F931F93CF93DF938C01EC
:1042B000EB0180E1FB0111928A95E9F7F801408159
:1042C000518162817381488359836A837B838581AD
:1042D0008C839E01285F3F4F4581C801069650E0C0
:1042E000BC01C9010E94BB2AF801848181FF09C079
:1042F00088819981AA81BB81B06888839983AA83C8
:10430000BB8381E08D83DF91CF911F910F91089541
:104310001F93CF93DF93EC010E942626182F83EF83
:1043200095E00E94662509979CF41F3F89F080E183
:10433000189FB00111246355794FCE010E9453217B
:10434000612F83EF95E0DF91CF911F910C946A2547
:1043500083EF95E00E94662509972CF08091E1019A
:104360008F5F8093E1011F3F29F48091E0018F5F0F
:104370008093E001DF91CF911F910895CF93DF9358
:10438000EC0183EF95E00E94662518161906ACF43F
:1043900083EF95E00E94FF2490E1899FF0011124B2
:1043A000E355F94F158290E1DE0101900D929A9547
:1043B000E1F70E940F2681E001C080E0DF91CF91FC
:1043C00008950F931F9380E1ECE5F3E0DF011D9268
:1043D0008A95E9F7CF010E94BE219091E3019230C6
:1043E00009F080E09091E201913039F492E09093ED
:1043F000E20196E09093610318C0933049F492E093
:104400009093E201909361039AE09093D9010DC0DB
:104410008823B9F180916103816080936103809169
:10442000E6018F5F8093E60102C08111F3CF809196
:10443000E601809362038091E5018F5F80936303BF
:104440006091EA017091EB018091EC019091ED0196
:104450000E9474078530A9F00091EA011091EB01E8
:104460002091EC013091ED01011511052105310577
:1044700041F04FE750E16FE770E180E190E00E948A
:10448000750A1F910F910895CF93DF93CDB7DEB7D3
:104490002F970FB6F894DEBF0FBECDBF90914203A9
:1044A00080E020914303820F911D8C9709F0CCC0CE
:1044B000809161038093E401909162039093E701FE
:1044C000909163039093E90184FF16C01092E60176
:1044D0001092E8011092E9011092E7011092E501B3
:1044E0001092E3011092E2011092EA011092EB01A6
:1044F0001092EC011092ED014091E30141111FC0B7
:1045000082FFA2C08091E7018093E80181E080935F
:10451000E2018093E30180914C0390914D03A091BF
:104520004E03B0914F038093EA019093EB01A09367
:10453000EC01B093ED0180E00E94E12185C04130A3
:1045400059F481FF81C08091E90181508093E60197
:1045500082E08093E30178C0423009F075C080FFAB
:1045600073C080E1E1E1F2E0DF011D928A95E9F795
:104570002091E8012F5F30E05091E701852F90E016
:104580002817390781F0CE0101963EE0FC01119217
:104590003A95E9F7498330EA3C834E832F83588765
:1045A0000E94882107C083E08093E2015093E501D7
:1045B0005093E80180915C0390915D03A0915E03AC
:1045C000B0915F038093110290931202A0931302A3
:1045D000B0931402409160034093150229E132E048
:1045E00084E693E050E0BC01C9010E94BB2A61E26D
:1045F00072E081E192E00E9428210E942626682F25
:104600008BE996E06F870E9466256F850997BCF459
:104610006F3FA9F081E080931602F0E16F9FD00117
:104620001124A355B94F80E1E1E1F2E001900D9230
:104630008A95E1F78BE996E00E946A2505C0809192
:10464000DF018F5F8093DF012F960FB6F894DEBFF6
:104650000FBECDBFDF91CF910895CF93DF93C0916F
:10466000EE01D0E08BE996E00E946625C817D907D5
:1046700034F48BE996E00E9466258093EE018BE985
:1046800096E00E9466251816190644F50E94FE263B
:10469000882321F18EE0EFEEF1E0DF011D928A9593
:1046A000E9F78BE996E00E94FF24C82FB0E18B9FC9
:1046B000C00111246FEE71E08355994F0E942821AB
:1046C0008C2F0E940F268FEE91E00E945B278111B4
:1046D00005C08091E1018F5F8093E10181E00E943C
:1046E000E1218091E201823039F48091D901811178
:1046F00003C083E08093E2018091D801882309F40C
:104700009BC01092D8018091FD01882319F081503F
:104710008093FD016091EA017091EB018091EC01C1
:104720009091ED010E947407E82F409191055091FE
:1047300092056091930570919405452B462B472B6C
:1047400019F16091EA017091EB018091EC01909177
:10475000ED016115710581059105B1F0E53059F064
:104760002CE0E29FF0011124EC5CFD4F22853385A3
:104770002A30310548F42091FD01211105C02CE3B8
:104780002093FD010E949D0E80914E01982F915023
:1047900090934E01811150C085E080934E0188E7CF
:1047A00096E5A4E3B2E18093FE019093FF01A0930C
:1047B0000002B093010280910202826080930202A3
:1047C00088E0809303020E94322690930402809333
:1047D00005028EE0809306028091EE01809307022D
:1047E0008091E101809308028091E00180930902A9
:1047F0008091DF0180930A028FEE80930B028FEF8E
:1048000080930C0280930D0280930E0280930F021E
:10481000809310028CE092E00E948D246093FE0150
:104820007093FF0180930002909301028EEF91E05C
:10483000DF91CF910C948821DF91CF91089581E091
:104840008093D80108958091D901882319F081506F
:104850008093D9010895AF92BF92CF92DF92EF92E9
:10486000FF920F931F93CF93DF93CDB7DEB72E97B1
:104870000FB6F894DEBF0FBECDBFFC01A982BA828D
:10488000CB82DC8249815A816B817C81DB01CA0148
:104890002AE1B695A795979587952A95D1F78770C0
:1048A0009927AA27BB2780838A019B01A6E1369519
:1048B000279517950795AA95D1F70F7011272227ED
:1048C00033270183DB01CA011EE0B695A7959795B2
:1048D00087951A95D1F78283DB01CA0106E0B69568
:1048E000A795979587950A95D1F783834F73552799
:1048F00066277727448380E02E960FB6F894DEBFB4
:104900000FBECDBFDF91CF911F910F91FF90EF9020
:10491000DF90CF90BF90AF900895CF92DF92EF924B
:10492000FF920F931F93FC01408147704083818168
:104930008F7081830281C38094819F73948310E080
:1049400020E030E05EE0000F111F221F331F5A9558
:10495000D1F7D12CE12CF12C66E0CC0CDD1CEE1C47
:10496000FF1C6A95D1F70C0D1D1D2E1D3F1D3058E3
:10497000090F111D211D311D50E060E070E0EAE1DA
:10498000440F551F661F771FEA95D1F7040F151FB7
:10499000261F371F90E0A0E0B0E0F6E1880F991FD6
:1049A000AA1FBB1FFA95D1F7080F191F2A1F3B1F1B
:1049B000B801C9011F910F91FF90EF90DF90CF9048
:1049C0000895FF920F931F93CF93DF93EC01F62E80
:1049D000072F142F50E060E070E08F2D902F0E9481
:1049E000C42A1882FC820D83FA820B8319831F83E9
:1049F0001E83DF91CF911F910F91FF900895FC01CD
:104A0000A281B3818D919681915019F49181A91B56
:104A1000B109B383A28396832FB7F8949081915004
:104A200090832FBF0895EF92FF920F931F93CF9320
:104A3000DF9300D0CDB7DEB78C01FC0180818417F5
:104A400090F07B010AC0C80149836A830E94FF2459
:104A5000F70181937F016A8149818E2D861B84171E
:104A600090F381E001C080E00F900F90DF91CF9133
:104A70001F910F91FF90EF900895DC011296ED9138
:104A8000FC91139780810895CF93DF93DC018C9183
:104A90008417C0F01296CD91DC91139716968C91E5
:104AA0001697FB0109C099919193815029F41196B1
:104AB0008C911197C81BD1099E2F961B941798F3C0
:104AC00081E001C080E0DF91CF910895FC018081F9
:104AD00090E00895FC01908181819817A0F4A48151
:104AE000B5816D938781815019F48181A81BB1092B
:104AF0008783B583A4839FB7F89480818F5F808379
:104B00009FBF81E0089580E00895CF92DF92FF92E9
:104B10000F931F93CF93DF931F92CDB7DEB78C0116
:104B2000F62EC62ED72E80E00AC0F60161916F01E5
:104B3000C80149830E946A254981882321F09C2D60
:104B40009F19941790F30F90DF91CF911F910F91C0
:104B5000FF90DF90CF900895CF92DF92FF920F9356
:104B60001F93CF93DF931F92CDB7DEB78C01F62E44
:104B7000C62ED72E80E00CC0F6018FEFC81AD80AD7
:104B80006491C80149830E946A254981882321F0E4
:104B90009C2D9F19941780F30F90DF91CF911F9157
:104BA0000F91FF90DF90CF9008950F931F93CF93B5
:104BB000DF93EC01062F10E008C0CE010E94FF2415
:104BC000682FCE010E946A251F5F1013F6CF80E088
:104BD00090E0DF91CF911F910F910895EF92FF9296
:104BE0000F931F93CF93DF938C01EB018881E42E09
:104BF000841708F4E82EF12C08C0CE010E94FF248F
:104C0000682FC8010E946A25F394FE10F6CF8F2DFD
:104C1000DF91CF911F910F91FF90EF90089520E1C8
:104C2000829FC00111248355994FFC0180E1DF016F
:104C30001D928A95E9F70895CF93C0E08C2F0E94CA
:104C40000F26CF5FC431D1F7CF910895E2EBF6E0A4
:104C500080E09081992329F08F5F70968431C9F7A5
:104C60008FEF0895EFEEF7E02EEF30E081918A3A72
:104C700031F42F5F3F4FE11589E0F807B8F3C90120
:104C800008951F93CF93DF931F92CDB7DEB7182FF0
:104C9000409882E069830E944E28812F0E944E280E
:104CA0006981862F0E944E28409A0F90DF91CF9104
:104CB0001F910895CF93C82F409883E00E944E28FB
:104CC0008C2F0E944E288FEF0E944E28409ACF9141
:104CD00008951F93CF93DF9300D0CDB7DEB7182F81
:104CE000409885E04A8369830E944E28812F0E9464
:104CF0004E286981862F0E944E284A81842F0E9467
:104D00004E28409A0F900F90DF91CF911F910895F8
:104D100040980E944E288FEF0E944E28409A089596
:104D20000F931F93CF93DF93C82F883010F080E04C
:104D30005AC0409A389A2D982B982C98259A239AE5
:104D400024980E944928409880EC0E944E288FECBD
:104D500097E00197F1F700C00000409A8FE19EE4D0
:104D60000197F1F700C00000409882E00E944E28B1
:104D700088E20E944E2800E010E08C2F90E0EC01C9
:104D8000CC0FDD1FC80FD91FF801EC0FFD1FEA5C27
:104D9000F84F84910E944E280F5F1F4F033011057A
:104DA00099F783E00E944E28409A60E08DE00E94CF
:104DB00041263998419A60E08CE00E94412689E2C0
:104DC0000E945A26182FFE01E95CF84FC49160E05A
:104DD0008FE00E9441261C13AACF8EE00E945A2623
:104DE000807ED9F781E0DF91CF911F910F910895D7
:104DF00086B18695817091E08927089580EA0E94A6
:104E00008826982F947581E0943509F480E0089500
:104E1000DF92EF92FF920F931F93CF93DF93EC01FA
:104E200080EB0E948826F82E20E4D22ED82286FD20
:104E300004C087FF37C084E901C080E940980E9420
:104E40004E28CE010E94ED279C8180FB91F99C8326
:104E50008FEF0E944E28F3FA222720F99C8120FB35
:104E600090F99C839FE0E92EE822ED8200E010E0BB
:104E700009C08FEF0E944E28FE01E00FF11F8683CC
:104E80000F5F1F4F0E15A8F3409A40E0DD2011F090
:104E900061E001C062E08CE20E9469268F2D87707C
:104EA0008F5F01C080E0DF91CF911F910F91FF9044
:104EB000EF90DF900895EF92FF920F931F93CF939F
:104EC000DF93EC0180EA0E94882682FF07C084FFFE
:104ED00007C086FD3DC094E0F92E04C0F12C02C04D
:104EE00082E0F82E40988F2D80640E944E286C81BD
:104EF00066956170CE010E94B127ED808FE0E822B7
:104F00008C8180FF05C08E2D80640E944E2810C0C9
:104F10008E2D0E944E2800E010E008C0FE01E00F38
:104F2000F11F86810E944E280F5F1F4F0E15B0F3B0
:104F3000409A82E08A95F1F700C04098F11002C0D3
:104F4000FF24F3948F2D80680E944E28409A01C060
:104F5000F12C8F2DDF91CF911F910F91FF90EF904A
:104F60000895CF93DF93EC016623E9F08A819B815A
:104F700035E0969587953A95E1F78EBD8A8198E060
:104F8000899F90011124207E332728608370822B13
:104F90000DB407FEFDCF9EB50E944E2889810E9468
:104FA0004E28888116C08881998123E0969587953F
:104FB0002A95E1F78EBD88818295880F807E0DB499
:104FC00007FEFDCF9EB50E944E2880E00E944E282D
:104FD00080E0DF91CF910C944E281F93CF93DF9305
:104FE000EC018FEF0E944E28182F8FEF0E944E2861
:104FF0009FEF9EBD83FF1EC090E2199F9001112478
:105000003B832A830DB407FEFDCF9EB599839FEFA6
:105010009EBD982F93702A81922B869586958695B2
:105020008C71982B9A830DB407FEFDCF8EB58883C3
:1050300081E019C01B821A8298E0199F9001112407
:10504000398328830DB407FEFDCF9EB59FEF9EBD2B
:105050008295869587709881982B98830DB407FE6A
:10506000FDCF8EB580E0DF91CF911F910895CF9352
:10507000DF931F92CDB7DEB78CE10E945A26982F9E
:105080008DE199830E945A2699810F90DF91CF91EB
:10509000089581E58CBD81E08DBD08958EBD0DB470
:1050A00007FEFDCF8EB508951AB860E875E280E07E
:1050B00090E00E94CE0388E690E09F938F930E9439
:1050C000000489E790E09F938F930E94000481EA97
:1050D00090E09F938F930E9400042FEF89E698E160
:1050E000215080409040E1F700C000000E94E2059E
:1050F0000E94EE1D0E94142178940E949D1D0E9422
:1051000006210E94CE190E94001B0F900F900F9055
:105110000F900F900F90811103C00E94FC130AC0E2
:1051200084EC90E09F938F930E9400040E943514BA
:105130000F900F90809194051F928F93809193050B
:105140001F928F93809192051F928F93809191056A
:105150001F928F9380ED90E09F938F930E940004A5
:1051600080919C051F928F9380919B051F928F9336
:1051700080919A051F928F93809199051F928F932A
:1051800089EE90E09F938F930E9400048091980590
:105190001F928F93809197051F928F938091960510
:1051A0001F928F93809195051F928F9380E091E0DD
:1051B0009F938F930E94000484E00E94902687E1D1
:1051C00091E09F938F930E9400048DB79EB78096C5
:1051D0000FB6F8949EBF0FBE8DBF04E311E081E4CB
:1051E000E82E81E0F82E97E3C92E91E0D92E2BE42A
:1051F000A22E21E0B22EC7E6D1E00E94770E809168
:10520000730280FF1AC01F930F930E94000480E076
:1052100093E00E949D120F900F90882319F0DF9267
:10522000CF9202C0FF92EF920E9400040F900F9065
:10523000809173028E7F809373020E94001B8823EB
:1052400049F0BF92AF920E940004E0E0F0E00994C0
:105250000F900F90F8940E94E1200E942D237894E3
:1052600080919005882349F280918E051F928F933B
:1052700080918D051F928F9380918C051F928F9343
:1052800080918B051F928F93DF93CF930E94000430
:10529000109290058DB79EB70A960FB6F8949EBFF0
:1052A0000FBE8DBFAACFA1E21A2EAA1BBB1BFD0108
:1052B0000DC0AA1FBB1FEE1FFF1FA217B307E407F5
:1052C000F50720F0A21BB30BE40BF50B661F771F4D
:1052D000881F991F1A9469F760957095809590952D
:1052E0009B01AC01BD01CF010895A0E0B0E0EBE768
:1052F000F9E20C94902B2B018A016115710519F0CC
:10530000FB01808391830115110539F0980122502A
:1053100031092332310508F0E6C07C01F701C19163
:105320007F013F018C2F90E00E94AA2A892BB1F7C0
:10533000CD3229F4F701C1913F01D1E006C0CB3253
:1053400019F4F701C1913F01D0E00115110509F4ED
:10535000D8C00031110581F4D0C0F30180818837B5
:1053600019F0883509F0C3C0F301C181F2E06F0E76
:10537000711CD26000E110E008301105D9F024F46E
:1053800002301105F9F407C00A30110551F000315F
:105390001105C1F425C0C12CD12CE12C30E4F32E31
:1053A00024C00AE010E02CECC22EDC2CEC2C2CE00B
:1053B000F22E1BC008E010E0C12CD12CE12C90E1B2
:1053C000F92E13C09801442737FD4095542F60E013
:1053D00070E080E090E80E94532969017A0105C0DD
:1053E000C12CD12CE12C88E0F82E40E060E070E088
:1053F000CB014801AA2497FCA094BA2CEC2FE053CF
:10540000EA3060F02C2F21542A3110F4E75006C006
:105410002C2F21562A3128F5EC2FE7552E2F30E07E
:1054200020173107F4F447FD18C0C616D706E80662
:10543000F90680F09B01AC01C501B4010E946A2B02
:105440006E0F711D811D911D61307105810520E870
:10545000920710F04FEF01C041E0F301C1913F010D
:10546000CDCF4114510491F0442339F0F1E06F1A8B
:105470007108F2017182608209C0D1FF1BC0F2E0A5
:105480006F1A7108F2017182608214C047FF12C066
:10549000D0FF05C060E070E080E090E804C06FEFEE
:1054A0007FEF8FEF9FE722E230E03093EE0720930B
:1054B000ED0716C0D0FF08C0909580957095619556
:1054C0007F4F8F4F9F4F0CC097FF0AC082E290E042
:1054D0009093EE078093ED076FEF7FEF8FEF9FE7DD
:1054E0006B017C0112C0C12CD12C76010EC0C0E32F
:1054F0000115110509F45ECF3FCFC03309F03CCF51
:105500002CCFC03309F04DCF28CFB601C701CDB79E
:10551000DEB7E0E10C94AC2BFC0188279927E894D6
:1055200021912032E9F3293010F02E30C8F32B32CC
:1055300041F02D3239F4689404C00E94292B820F67
:10554000911D219120532A30C0F31EF4909581952E
:105550009F4F08959111ABC0803219F0895085504A
:10556000D0F70895FB01DC0102C005900D92415077
:105570005040D8F70895FB01DC0102C001900D9264
:1055800041505040D8F70895DC0101C06D9341505F
:105590005040E0F70895FB01DC018D9181341CF04F
:1055A0008B350CF4805E619161341CF06B350CF42A
:1055B000605E861B611189F3990B0895FB01DC0184
:1055C0000D900020E9F7119701900D920020E1F76E
:1055D0000895FB01DC0101900D920020E1F7089590
:1055E000FC01A081B181AD01109681F03D91FB01DC
:1055F000019003160110E1F7C9F7002011F4D00162
:1056000002C01E921196FC01A083B183CA010895C5
:10561000FB019F01E8944230C4F04532B4F44A30B3
:1056200029F497FB1EF4909581959F4F642F77275F
:105630000E947A2B805D8A330CF0895D8193CB01C7
:105640000097A1F716F45DE251931082C9010C9402
:105650005A2B7AE0979F902D879F802D910D1124D2
:105660000895DC01CB01FC01F999FECF06C0F2BD23
:10567000E1BDF89A319600B40D9241505040B8F710
:105680000895F999FECF92BD81BDF89A992780B50A
:105690000895262FF999FECF1FBA92BD81BD20BD76
:1056A0000FB6F894FA9AF99A0FBE019608959927C1
:1056B00088270895DC01FC01672F71917723E1F7BA
:1056C000329704C07C916D9370836291AE17BF07CF
:1056D000C8F30895DB018F939F930E94C52BBF9160
:1056E000AF91A29F800D911DA39F900DB29F900D31
:1056F00011240895AA1BBB1B51E107C0AA1FBB1FA1
:10570000A617B70710F0A61BB70B881F991F5A954D
:10571000A9F780959095BC01CD0108952F923F92F5
:105720004F925F926F927F928F929F92AF92BF92B1
:10573000CF92DF92EF92FF920F931F93CF93DF935D
:10574000CDB7DEB7CA1BDB0B0FB6F894DEBF0FBEBA
:10575000CDBF09942A88398848885F846E847D8407
:105760008C849B84AA84B984C884DF80EE80FD8009
:105770000C811B81AA81B981CE0FD11D0FB6F8947F
:10578000DEBF0FBECDBFED0108950E94D02BA59FB7
:10579000900DB49F900DA49F800D911D112408952C
:1057A000A29FB001B39FC001A39F01D0B29F700D13
:0C57B000811D1124911D0895F894FFCF75
:1057BC00000300030200C8005301321059011111FB
:1057CC005D0158106101A71364014D1368011D138D
:1057DC006F0136107301191277010A127B01371011
:1057EC007E01381083013910880140128D013A1066
:1057FC0092013A1000000000390501057F10032EBC
:10580C002C200052455345540041525000544350F3
:10581C00004950004E455400524F55544552004ECD
:10582C005450004D414300564552005356005449C4
:10583C004D45004E5450520050494E470048454C7F
:04584C0050003F00C9
:00000001FF
