:100000000C94D0020C94ED020C94ED020C94ED02D1
:100010000C94ED020C94ED020C94ED020C94ED02A4
:100020000C94ED020C94ED020C94ED020C947A11F8
:100030000C94ED020C94ED020C94ED020C94ED0284
:100040000C94ED020C94ED020C94ED020C94ED0274
:100050000C94ED020C94ED020C94ED020C94ED0264
:100060000C94ED020C94ED0247657420504F4E47FE
:100070003A2025692E25692E25692E25690D0A004D
:100080004552524F520D0A0D0A0052656164790DB6
:100090000A0D0A000D0A0047572020202531692E3D
:1000A0002531692E2531692E2531690D0A004D4112
:1000B000534B202531692E2531692E2531692E2596
:1000C00031690D0A000D0A49502020202531692E82
:1000D0002531692E2531692E2531690D0A00436FBE
:1000E0006D70696C69657274206D69742047434353
:1000F0002056657273696F6E20342E332E330D0ACD
:1001000000436F6D70696C6965727420616D204188
:100110007567203238203230313120756D2031370B
:100120003A32313A31300D0A000A0D537973746551
:100130006D2052656164790A0D0052455345542083
:10014000202D2072657365742074686520415652B5
:10015000202D20436F6E74726F6C6C65720D0A41B6
:100160005250202020202D206C6973742074686503
:1001700020415250207461626C650D0A5443502036
:100180002020202D206C69737420746865207463AE
:1001900070207461626C650D0A4950202020202077
:1001A0002D206C6973742F6368616E6765206970B8
:1001B0000D0A4E4554202020202D206C6973742F89
:1001C0006368616E6765206E65746D61736B0D0A9F
:1001D000524F55544552202D206C6973742F63681B
:1001E000616E676520726F757465722069700D0AA3
:1001F0004E5450202020202D206C6973742F63688A
:10020000616E6765204E54500D0A4E5450522020A6
:10021000202D204E545020526566726573680D0A79
:100220004D4143202020202D206C697374204D41C6
:10023000432D616464726573730D0A564552202024
:1002400020202D206C69737420656E6320766572A2
:1002500073696F6E206E756D6265720D0A5356205C
:10026000202020202D2073657420766172696162E0
:100270006C650D0A50494E472020202D2073656E75
:10028000642050696E670D0A54494D452020202D89
:10029000206765742074696D650D0A48454C5020CF
:1002A00020202D207072696E742048656C70746512
:1002B00078740D0A3F2020202020202D20707269A4
:1002C0006E742048656C70746578740D0A0025633F
:1002D00000202054696D653A2534690D0A002020FC
:1002E000504F52543A253469002E253369002E258B
:1002F0003369002E25336900202049503A2533699F
:100300000025326900202054696D653A2534690D55
:100310000A002E253369002E253369002E25336906
:1003200000202049503A253369002E253278002ECE
:10033000253278002E253278002E253278002E25A1
:1003400032780025326920204D41433A2532780029
:10035000454E4332384A36302D56657273696F6E9A
:100360003A202531780D0A004D79204D41433A203D
:100370002532783A2532783A2532783A2532783A59
:100380002532783A2532780D0A00526F75746572FD
:100390002049503A202531692E2531692E253169B1
:1003A0002E2531690D0A004E45544D41534B3A20DC
:1003B0002531692E2531692E2531692E2531690DAA
:1003C0000A004D792049503A202531692E2531699E
:1003D0002E2531692E2531690D0A004142434445DD
:1003E000464748494A4B4C4D4E4F50515253545535
:1003F000565758595A6162636465666768696A6BE3
:100400006C6D6E6F707172737475767778797A30FF
:100410003132333435363738392B2F3D000400055F
:100420001A06FF071F080009000AFF0B19C100C0C8
:100430000DC233CAEECB05C415C612E400E522E2B4
:10044000F9E301E038E1C87500FFFF00010014077F
:1004500042FFFF53746172742054656C6E657420A2
:100460005365727665723A0D0A002A2A204C43447D
:100470002044415441204745542042797465733AE1
:10048000202569202A2A0D0A00474554202F676C31
:100490006F62616C776561746865722E61736D78E7
:1004A0002F476574576561746865723F4369747955
:1004B0004E616D653D5061646572626F726E264378
:1004C0006F756E7472794E616D653D4765726D61D1
:1004D0006E7920485454502F312E310D0A486F73D5
:1004E000743A207777772E776562736572766963E1
:1004F00065782E6E65740D0A4B6565702D416C69CB
:1005000076653A203330300D0A436F6E6E65637442
:10051000696F6E3A204B6565702D416C6976650D8B
:100520000A0D0A000D0A0D0A0D0A446174656E2059
:10053000416E666F726465726E0D0A0054435020FE
:1005400045696E7472616720676566756E64656E75
:100550002028485454505F434C49454E5429210D9E
:100560000A005443502045696E74726167206E69B9
:1005700063687420676566756E64656E20284854EC
:1005800054505F434C49454E5429210D0A004152B5
:100590005020526571756573740A0D002563000063
:1005A00011241FBECFEFD8E0DEBFCDBF11E0A0E029
:1005B000B1E0E6E7F2E402C005900D92A239B1077E
:1005C000D9F715E0A2E9B1E001C01D92A036B1074C
:1005D000E1F70E94EF020C9439210C940000CF92B5
:1005E000DF92EF92FF920F931F93CF93DF9317B891
:1005F0001AB860E875E280E090E00E94FF0300D046
:1006000089E291E0ADB7BEB712969C938E93119795
:100610000E94C40481E091E0EDB7FEB7928381832C
:100620000E94C4048EED90E0ADB7BEB712969C93C5
:100630008E9311970E94C40420E137E20F900F902F
:1006400048EC50E0CA010197F1F721503040D1F752
:100650000E94FD100E94731E78940E94B41EEDB794
:10066000FEB73A970FB6F894FEBF0FBEEDBF3196B6
:1006700085EC90E0ADB7BEB712969C938E93119720
:10068000809129058283138280912A0584831582B3
:1006900080912B058683178280912C058087118697
:1006A0000E94C404EDB7FEB731968EEA90E0ADB774
:1006B000BEB712969C938E931197809131058283D9
:1006C000138280913205848315828091330586835D
:1006D000178280913405808711860E94C404EDB78B
:1006E000FEB7319687E990E0ADB7BEB712969C93FE
:1006F0008E93119780912D058283138280912E0510
:100700008483158280912F0586831782809130051E
:10071000808711860E94C404EDB7FEB73A960FB6E3
:10072000F894FEBF0FBEEDBF94E9C92E90E0D92E1C
:1007300080E8E82E80E0F82E0AE810E0C8E6D0E075
:100740000E94940F80910B0280FF27C000D0ADB7AC
:10075000BEB71296DC92CE9211970E94C4040F90FD
:100760000F9088E992E00E949016882331F000D023
:10077000EDB7FEB71283018307C000D0ADB7BEB797
:100780001296FC92EE9211970E94C4040F900F9063
:1007900080910B028E7F80930B020E94441D8091FA
:1007A0002805882369F2EDB7FEB73A970FB6F8949B
:1007B000FEBF0FBEEDBF3196ADB7BEB71296DC934C
:1007C000CE93119780912305828313828091240513
:1007D0008483158280912505868317828091260562
:1007E000808711860E94C40410922805EDB7FEB7D9
:1007F0003A960FB6F894FEBF0FBEEDBFA1CF9B0196
:10080000AC0188E98093C10084E0220F331F441FAC
:10081000551F8A95D1F760E072E18AE790E00E9467
:10082000E71E21502093C40080910B028B7F8093A0
:100830000B020895982F80910B0282FD06C08091D3
:10084000C00085FFFCCF9093C6000895CF93DF933F
:10085000EC0103C021960E941A0488818823D1F7F5
:10086000DF91CF9108951F920F920FB60F9211242E
:100870001F932F933F934F935F936F937F938F9328
:100880009F93AF93BF93EF93FF9380910B0282FDF1
:100890004CC01091C600812F0E941A0480910B0257
:1008A00080FF04C080910B02826028C0183069F478
:1008B0008091920190919301892B09F453C080910A
:1008C00092019091930101972BC01D30D1F4E091DA
:1008D0009201F0919301E956FD4F80818C3589F0AA
:1008E000E0919201F0919301E856FD4F1082109231
:1008F00093011092920180910B02816080930B0210
:1009000031C08091920190919301C19758F58091E7
:10091000920190919301FC01E856FD4F10830196DE
:1009200090939301809392011DC02091000130911A
:100930000101809102019091030101972817390765
:1009400089F08091C600F9018193F0930101E09351
:100950000001E95CF24031F4205330403093010152
:1009600020930001FF91EF91BF91AF919F918F91E3
:100970007F916F915F914F913F912F911F910F90B8
:100980000FBE0F901F9018956F927F928F929F923B
:10099000AF92BF92CF92DF92EF92FF920F931F938D
:1009A000DF93CF93CDB7DEB764970FB6F894DEBF71
:1009B0000FBECDBF8E010B5D1F4FF801E190F1908E
:1009C0008F01BB243E010894611C711C5BE0852EE5
:1009D000912C8C0E9D1E40E3A42E02C0680186015E
:1009E000F7018491882309F489C00894E11CF11C63
:1009F000853209F080C0F7010894E11CF11C2491B4
:100A0000822F90E0C0970A9710F0822F0BC02B879F
:100A10001C86C4010E943820B82EF7010894E11CFE
:100A2000F11C8491893671F08A3628F4823661F09F
:100A30008336A1F61DC0833749F0883729F18F36F8
:100A400069F620C04AE021C042E01FC032E0C32E58
:100A5000D12CC00ED11EF8010081118104C00F5F9E
:100A60001F4F0E941A04F80180818823C1F7B7CF75
:100A700022E0C22ED12CC00ED11EF80180810E942E
:100A80001A04ADCF48E001C040E192E0C92ED12C5C
:100A9000C00ED11EF80180819181B30150E00E9407
:100AA000A42020E030E0A9014F5F5F4FF301E20F87
:100AB000F31F8081882311F09A01F5CF8B2D90E0F0
:100AC000281739079CF4B21AF401C4018B0D911D4B
:100AD00001C0A192E817F907E1F71082C401B30140
:100AE0000E947A20C301B4010E948520C3010E94A4
:100AF0002604BB2474CF0E941A0470CF64960FB6EC
:100B0000F894DEBF0FBECDBFCF91DF911F910F9143
:100B1000FF90EF90DF90CF90BF90AF909F908F901D
:100B20007F906F900895282F892F922F0895EF922C
:100B3000FF920F931F93162F0027FF24EE24292FD7
:100B4000332744275527E20EF31E041F151F9B0170
:100B5000AC01207030705070232F342F452F552753
:100B6000E20EF31E041F151F607080709070982FA6
:100B7000872F762F6627E60EF71E081F191FB7016D
:100B8000C8011F910F91FF90EF90089540E050E051
:100B90009A01220F331F240F351FD901AA0FBB1F43
:100BA000AA0FBB1FA453BE4F1A968D919C911B9701
:100BB000892B09F51C9211961C921197F901EE0FE1
:100BC000FF1FEE0FFF1FE253FE4F108213961C9281
:100BD0001397F901EE0FFF1FEE0FFF1FE053FE4FBB
:100BE000108215961C92159716961D921D921D92B5
:100BF0001C92199709C01A968D919C911B97019789
:100C00001B969C938E931A974F5F5F4F453051050B
:100C100009F0BECF0895AC0120E001C02F5FA22FE4
:100C2000B0E0FD01EE0FFF1FEE0FFF1FEC56FE4F71
:100C300080819181892B91F7253050F45183408335
:100C4000AA0FBB1FAA0FBB1FAA56BE4F6D937C9362
:100C5000089520E001C02F5FA22FB0E0FD01EE0F4C
:100C6000FF1FEE0FFF1FEC56FE4F0190F081E02DAD
:100C7000309719F0E817F90771F7253040F4AA0FFB
:100C8000BB1FAA0FBB1FAC56BE4F6D937C9308953C
:100C9000AC0120E001C02F5FA22FB0E0FD01EE0FFC
:100CA000FF1FEE0FFF1FE855FE4F80819181892BBA
:100CB00091F7253050F451834083AA0FBB1FAA0F30
:100CC000BB1FA655BE4F6D937C9308959C01E8EA27
:100CD000F1E0808191818217930711F411821082D3
:100CE000349681E0EC3BF807A1F708950F931F932A
:100CF000CF93DF930091D6021091D70260E070E0AD
:100D000086E008301807C1F4FB01EE0FFF1FE60F65
:100D1000F71FEE0FFF1FEE0FFF1FE453FE4F26815C
:100D20003781408551858091E6029091E702A0913C
:100D3000E802B091E9021AC00830110509F5FB017B
:100D4000EE0FFF1FE60FF71FEE0FFF1FEE0FFF1F47
:100D5000E453FE4F26813781408551858091E4021E
:100D60009091E502A091E602B091E70228173907B9
:100D70004A075B0729F484E690E09387828788C05E
:100D80006F5F7F4F6530710509F0BACF20E030E02A
:100D9000A901440F551F420F531FEA01CC0FDD1F5D
:100DA000CC0FDD1FC453DE4FBE016A5F7F4F8E81C3
:100DB0009F81A885B9850097A105B10509F062C09A
:100DC000E6E008301E0749F58091D00288838091C3
:100DD000D10289838091D202FA01EE0FFF1FEE0F3C
:100DE000FF1FE253FE4F80838091D3028B8380915B
:100DF000D402FA01EE0FFF1FEE0FFF1FE053FE4F6C
:100E000080838091D5028D838091E6029091E702E4
:100E1000A091E802B091E9022BC008301105C1F59C
:100E20008091D00288838091D10289838091D202FF
:100E3000FA01EE0FFF1FEE0FFF1FE253FE4F8083FC
:100E40008091D3028B838091D402FA01EE0FFF1FB1
:100E5000EE0FFF1FE053FE4F80838091D5028D83FC
:100E60008091E4029091E502A091E602B091E70240
:100E7000FB0180839183A283B38384E690E09B8708
:100E80008A8706C02F5F3F4F2530310509F080CF9C
:100E9000DF91CF911F910F9108951F93AB01BC017A
:100EA00020E030E0122FF901EE0FFF1FE20FF31FD9
:100EB000EE0FFF1FEE0FFF1FE453FE4F8681978159
:100EC000A085B18584179507A607B70731F02F5F76
:100ED0003F4F2530310531F715E0812F1F910895DF
:100EE000FF920F931F93182F092F20E030E0F22E6E
:100EF000F901EE0FFF1FE20FF31FEE0FFF1FEE0FC2
:100F0000FF1FE453FE4F86819781A085B18584172A
:100F10009507A607B70731F02F5F3F4F2530310502
:100F200031F726C0212F302FC901DC0140E050E00D
:100F30008F2D90E09C01220F331F280F391F220FA5
:100F4000331F220F331FF901E40FF51FE453FE4F47
:100F500080818C93FA01E35BFA4F808116968C9323
:100F600016974F5F5F4F11964630510561F70FC0DE
:100F7000ADE4B5E0812F902F9C01F9019FEF9083A4
:100F80008D918683319685E0A335B807C1F71F910F
:100F90000F91FF900895EF92FF920F931F93CF93BD
:100FA000DF937C018B01EC0111C08881998122962D
:100FB000F82FE0E0DF01A90FB11DCD01A0E0B0E006
:100FC000280F391F4A1F5B1F625070406230710545
:100FD00060F7F801EE7FEE0DFF1D00FF08C0908165
:100FE00080E0A0E0B0E0280F391F4A1F5B1FCA0154
:100FF000AA27BB2740705070820F931FA41FB51FF4
:101000009D0144275527A070B070280F391F4A1F33
:101010005B1F20953095C901DF91CF911F910F91F2
:10102000FF90EF900895AF92BF92CF92DF92EF9230
:10103000FF920F931F937C015A016B018C01025F99
:101040001F4F0E94700788E090E0F7019587848722
:101050002091BC013091BD012F5F3F4F3093BD0106
:101060002093BC0180E490E0F8019783868380E8B8
:1010700080873483258385E4F7018687F801118210
:10108000A08AB18AC28AD38A8091290590912A05C3
:10109000A0912B05B0912C0584879587A687B787EB
:1010A00013861286C80164E170E020E030E040E081
:1010B00050E00E94CB07F801928783871F910F9120
:1010C000FF90EF90DF90CF90BF90AF900895AF92D8
:1010D000BF92CF92DF92EF92FF920F931F93CF9325
:1010E000DF938C01EC01A296BC01625F7F4FDB01B4
:1010F0001C96CD90DD90ED90FC901F9740E050E065
:10110000E6E1AE2EB12C4A9DF0014B9DF00D5A9DAB
:10111000F00D1124E35FFD4F80819181A281B381A5
:101120008C159D05AE05BF0509F056C0248135819B
:10113000888199812817390709F04EC088859985DB
:10114000AA85BB8580879187A287B3878C819D8183
:10115000AE81BF8184879587A687B7878D85808B71
:1011600083898F3F11F083E0838BFB01F280E38062
:101170008CEE9FEFE80EF91E8C8590E0807F9070DA
:101180009595879595958795E81AF90A00E010E0FE
:1011900086E190E0489F6001499FD00C589FD00C99
:1011A0001124ADE0B2E0CA0EDB1EF6016485758540
:1011B000868597850E949705E60EF71E081F191F62
:1011C000C801B7010E949705D6011C966D937D93C7
:1011D0008D939C931F974FC04F5F5F4F45305105D4
:1011E00009F091CF20E030E066E170E0269FA00199
:1011F000279F500D369F500D1124FA01E35FFD4FDC
:1012000080819181A281B3810097A105B10569F523
:10121000C082D182E282F382D80192968D919C9114
:101220009397958384838A819B819783868388851E
:101230009985AA85BB8580879187A287B3878C8192
:101240009D81AE81BF8184879587A687B7878D856D
:10125000808B128A118A83E0838B148AFA01EE5DF7
:10126000FD4F80818E7F808306C02F5F3F4F2530EA
:10127000310509F0BBCFDF91CF911F910F91FF9006
:10128000EF90DF90CF90BF90AF900895EF92FF92D4
:101290000F931F93CF93DF937B018C0120E030E00D
:1012A000C6E1D0E0622F2C9FF0012D9FF00D3C9FF6
:1012B000F00D1124E35FFD4F80819181A281B38104
:1012C0008E159F05A007B10729F4848195818417A5
:1012D000950731F02F5F3F4F2530310519F765E055
:1012E000862FDF91CF911F910F91FF90EF9008957E
:1012F00020E001C02F5FA22FB0E0FD01EE0FFF1F25
:10130000EE0FFF1FE855FE4F0190F081E02D309762
:1013100089F09091EE028091EF02E817F90751F7FA
:10132000AA0FBB1FAA0FBB1FA655BE4FED91FC9184
:1013300080E009950895CF93DF93582FC4E9D1E059
:10134000E0E0F0E0282F30E086E190E0289FD00137
:10135000299FB00D389FB00D1124AD5EBD4F8D910A
:101360009C911197382F292F888199818217930793
:1013700031F031962496E630F10589F70DC0E5305D
:1013800058F4EE0FFF1FEE0FFF1FEA56FE4F0190BD
:10139000F081E02D852F0995DF91CF91089586305A
:1013A00038F5282F30E086E190E0289FD001299F72
:1013B000B00D389FB00D1124FD01E35FFD4F108289
:1013C000118212821382158214821782168210866D
:1013D0001186128613861486158616861786108A3D
:1013E000128A118A138AAE5DBD4F8C918E7F8C93C9
:1013F0000895CF92DF92EF92FF920F931F93CF93B6
:10140000DF93EC0138EDE32E32E0F32EC62EDD241F
:1014100086E190E0C89E8001C99E100DD89E100DF7
:101420001124035F1D4FF801868197819093ED028F
:101430008093EC02848195819093EF028093EE0279
:101440001092FF021092FE0281E094EF9093FB0253
:101450008093FA0280E58093F8026485758586851D
:1014600097850E9497059B01AC01F80180898093C4
:10147000F902808981FF15C02F5F3F4F4F4F5F4FAB
:1014800082E08093000384E08093010381E08093F5
:10149000020384EF8093030380E68093F802C4E0A4
:1014A000D0E0CA01B9010E9497056093F4027093DD
:1014B000F5028093F6029093F70286E190E0C89ED1
:1014C0008001C99E100DD89E100D1124035F1D4F81
:1014D000F80180859185A285B3858093F002909371
:1014E000F102A093F202B093F302CE018896F701C5
:1014F0009283838386E08187F801408151816281F4
:1015000073818AEC92E00E9413081092FD021092FF
:10151000FC027091DA026091DB02685F7F4F80917C
:10152000D80290E08F709070880F991F880F991FD4
:10153000681B790B625070409B0140E050E06E5F89
:101540007F4F84EE92E00E94CB079093FC02809341
:10155000FD02CE01C6966AEC72E00E941918F801ED
:10156000108ADF91CF911F910F91FF90EF90DF9044
:10157000CF9008958F929F92AF92BF92DF92EF9299
:10158000FF920F931F93CF93DF937B018C015A013E
:10159000490120E030E046E150E0D22E249FE001F6
:1015A000259FD00D349FD00D1124C35FDD4F88815E
:1015B0009981AA81BB810097A105B105F1F4822F21
:1015C0000E94CF09E882F9820A831B83BD82AC8224
:1015D0009F828E8282ED94E0A0E0B0E088879987B8
:1015E000AA87BB8789E299E0A0E0B0E08C879D875D
:1015F000AE87BF878EE18B8B06C0D3942F5F3F4FA2
:101600002530310551F62D2D30E086E190E0289F00
:10161000F001299FF00D389FF00D1124E35FFD4F7D
:1016200082E0808B80E090E06D2D0E94F909DF91CF
:10163000CF911F910F91FF90EF90DF90BF90AF90EF
:101640009F908F900895682F282F30E086E190E0DA
:10165000289FF001299FF00D389FF00D1124E35FC2
:10166000FD4F8FEF9FEF928B818B81E1808B80E02C
:1016700090E00E94F9090895AF92BF92DF92EF9235
:10168000FF920F931F93CF93DF9320E001C02F5F52
:10169000022F10E0F801EE0FFF1FEE0FFF1FEC56B8
:1016A000FE4F0190F081E02D309709F4CFC1909169
:1016B000EE028091EF02E817F90749F74091F9022D
:1016C000242F30E0C90182719070429709F065C003
:1016D0008AEC92E00E9467084091E4025091E50292
:1016E0006091E6027091E7020091EC021091ED0228
:1016F000C0E0D0E0A6E1EA2EF12C2C2FCE9DF00127
:10170000CF9DF00DDE9DF00D1124E35FFD4F808134
:101710009181A281B38184179507A607B70729F4A1
:10172000848195818017910729F02196C530D105D4
:1017300021F78CC130E086E190E0289F8001299F4D
:10174000100D389F100D1124035F1D4F8EE1D8013D
:1017500053968C9353971C966D917D918D919C918E
:101760001F970E9497056F5F7F4F8F4F9F4F0E947B
:101770009705F801648775878687978780E1808B56
:1017800080E090E06C2F0E94F90981E090E0D801A0
:1017900052969C938E93519759C1423009F046C09E
:1017A0008AEC92E00E9467082091E4023091E50201
:1017B0004091E6025091E702C091EC02D091ED0217
:1017C00060E070E0F6E1EF2EF12C6E9DF0016F9D70
:1017D000F00D7E9DF00D1124E35FFD4F808191811E
:1017E000A281B38182179307A407B50729F48481E6
:1017F00095818C179D0731F06F5F7F4F65307105C4
:1018000021F724C1262F30E086E190E0289FF001E7
:10181000299FF00D389FF00D1124E35FFD4F82E109
:10182000808B80E090E00E94F90910C14091E402B1
:101830005091E5026091E6027091E702E090EC02BF
:10184000F090ED02C0E0D0E0E6E1AE2EB12CDC2E4F
:10185000CA9DF001CB9DF00DDA9DF00D1124E35FE0
:10186000FD4F80819181A281B38184179507A607DE
:10187000B70729F4848195818E159F0529F021965B
:10188000C530D10521F7DDC08AEC92E00E946708DF
:101890004C2F50E086E190E0489FF001499FF00D09
:1018A000589FF00D1124E35FFD4F808980FF2BC00E
:1018B0002DC08AEC92E00E946708609187027091C7
:1018C00088028091890290918A020E9497056F5F39
:1018D0007F4F8F4F9F4F0E949705609387027093B1
:1018E00088028093890290938A0280918B0280FF04
:1018F00008C080E180938B0280E090E065E00E9468
:10190000F90985E034C0808982FF34C086E190E027
:10191000489FE001499FD00D589FD00D1124C35F0F
:10192000DD4F6C857D858E859F850E9497056F5F55
:101930007F4F8F4F9F4F0E9497056C877D878E87C3
:101940009F87888980FF12C0000F111F000F111F91
:101950000A561E4FD801ED91FC918D2D099581E11C
:10196000888B80E090E06D2D0E94F9098D2D0E94FA
:10197000CF096CC0808983FF15C0808984FF12C0A5
:10198000818992890196928B818B88E1808B000FEF
:10199000111F000F111F0A561E4FD801ED91FC9127
:1019A0008C2F4DC086E190E0489F9001499F300DFB
:1019B000589F300D1124F901E35FFD4F808984FFAA
:1019C0000AC0F901EE5DFD4F808180FD04C0808179
:1019D000816080833BC086E190E0489FF001499F91
:1019E000F00D589FF00D1124DF01A35FBD4F5096FD
:1019F0008C91509784FF2AC0EE5DFD4F808180FF5F
:101A000025C051968D919C9152978F5F9F4FF1F019
:101A100080E150968C93509751968D919C9152975E
:101A2000019652969C938E935197000F111F000FB1
:101A3000111F0A561E4FD801ED91FC918D2D09956D
:101A400005C025703070232B09F033CFDF91CF9183
:101A50001F910F91FF90EF90DF90BF90AF9008958E
:101A6000EF92FF920F931F93CF93DF93C0E0D0E0EC
:101A700006E110E093E0E92E84E1F82EC09FF0012A
:101A8000C19FF00DD09FF00D1124E35FFD4F8389BE
:101A90008823E9F480819181A281B3810097A10517
:101AA000B105D9F0E38A84898F5F848B81508630B9
:101AB00050F0F08A80E090E06C2F0E94F9098C2FA2
:101AC0000E94CF090AC08C2F0E949B0906C08389FF
:101AD0008F3F19F083898150838B2196C530D105C2
:101AE00069F6DF91CF911F910F91FF90EF900895CC
:101AF0008F929F92AF92BF92CF92DF92EF92FF921E
:101B00000F931F935C01FCEECF2EF2E0DF2EECEE84
:101B1000EE2EEFEFFE2EEC0CFD1C7093EC026093AA
:101B2000ED025093EE024093EF0208969093F0027C
:101B30008093F102C5014C96F7019283838381E182
:101B400081874EED842E4FEF942E8C0C9D1CC4018A
:101B5000B901A8010E9413081092F3021092F20238
:101B6000F70172816381685F7F4F808190E08F70A1
:101B70009070880F991F880F991F681B790B675FFA
:101B80007F4F9B0140E050E069507040C6010897CC
:101B90000E94CB079093F2028093F302C5018A96CC
:101BA000B4010E9419181F910F91FF90EF90DF90E0
:101BB000CF90BF90AF909F908F9008956F927F923B
:101BC0008F929F92AF92BF92CF92DF92EF92FF924D
:101BD0000F931F933B014C0188EDA82E82E0B82E95
:101BE000B4E1CB2ED12CCA0CDB1C4093EC02F601E5
:101BF0002183F582E482178306831382128280E0B8
:101C000094E59093DB028093DA0281E08093E10215
:101C100082EF9FEFA80EB91EC501B401A3010E9477
:101C200013087091DA026091DB028091D80290E093
:101C30008F709070880F991F880F991F681B790B00
:101C4000C60120E030E040E050E00E94CB07F60102
:101C50009283838382E690E0B5010E9419181F9158
:101C60000F91FF90EF90DF90CF90BF90AF909F903B
:101C70008F907F906F9008950F931F938091D8025B
:101C80009091D9028050914009F0C1C08091DA0250
:101C90009091DB02089709F0BAC08091DC0286308F
:101CA00009F0B5C08091DD02843009F0B0C0209108
:101CB000F0023091F1024091F2025091F3028091D2
:101CC000290590912A05A0912B05B0912C05281784
:101CD00039074A075B0709F09AC08091DE029091AC
:101CE000DF02E1E080309E0709F08CC00E9476069A
:101CF00008ED12E00E5010404091E6025091E702CC
:101D00006091E8027091E902C8010E94700788E0C2
:101D100096E0F801958784874091E6025091E702AA
:101D20006091E8027091E90220E030E0F901EE0FE5
:101D3000FF1FE20FF31FEE0FFF1FEE0FFF1FE45315
:101D4000FE4F86819781A085B18584179507A607E8
:101D5000B70731F02F5F3F4F2530310539F725C0E8
:101D6000A8EDB2E040E050E0822F90E09C01220F0D
:101D7000331F280F391F220F331F220F331FF90182
:101D8000E40FF51FE453FE4F808152968C935297D7
:101D9000FA01E35BFA4F808118968C9318974F5F96
:101DA0005F4F11964630510551F780E092E09093D5
:101DB000DF028093DE028091E6029091E702A0911B
:101DC000E802B091E9028093F0029093F102A093AF
:101DD000F202B093F3028091290590912A05A09117
:101DE0002B05B0912C058093E6029093E702A09317
:101DF000E802B093E9028CE390E06AEC72E00E94A2
:101E0000191805C08050924011F40E9476061F9167
:101E10000F910895EF92FF920F931F938091D60236
:101E20009091D70226E08830920719F40E943C0E68
:101E300076C0089709F073C02091E8023091E9025A
:101E40004091EA025091EB028091290590912A0578
:101E5000A0912B05B0912C05281739074A075B077D
:101E600009F042C00E9476068091E1028130B9F506
:101E70008091EC028823C1F0883009F050C0609155
:101E8000E4027091E5028091E6029091E7020091F0
:101E9000F2021091F302E090F002F090F10240E0C3
:101EA00020E00E94DE0D3BC02091230530912405E7
:101EB00040912505509126058091E4029091E5021C
:101EC000A091E602B091E702281739074A075B079D
:101ED00031F58091280581608093280520C08630E7
:101EE000C1F40E943C0B15C02F3F8FEF38078FEFD6
:101EF00048078FEF580769F08091350590913605B6
:101F0000A0913705B0913805281739074A075B07B4
:101F100031F48091E102813111F40E9478091F911E
:101F20000F91FF90EF90089580910A0281FF09C000
:101F30000E94300D0E94C60580910A028D7F809319
:101F40000A02199B0FC0089588E592E06AEC72E0DE
:101F50000E941D19FC01009729F0E653FD4F1182E4
:101F60000E940A0F199BF0CF80910A028E7F809306
:101F70000A0208958F929F92AF92BF92CF92DF9202
:101F8000EF92FF920F931F93DF93CF93CDB7DEB7FE
:101F9000AA970FB6F894DEBF0FBECDBF4B015C0110
:101FA0008E01015F1F4F8091290590912A05A09114
:101FB0002B05B0912C0588259925AA25BB252091B4
:101FC000310530913205409133055091340582231B
:101FD0009323A423B5230097A105B10519F4750136
:101FE000640108C0C0902D05D0902E05E0902F050B
:101FF000F090300588E096E09E878D87CE010196AF
:10200000B701A6010E9470078091290590912A05C9
:10201000A0912B05B0912C05F80186879787A08B9E
:10202000B18BC08ED18EE28EF38EADE4B5E08D9192
:102030008087128A319625E0A335B207C1F720E0E8
:1020400031E0F8013183208388E090E0938382833C
:1020500086E0848384E08583378326838AE290E068
:10206000BE016F5F7F4F0E94191810E05AC0422FC7
:10207000F901EE0FFF1FE20FF31FEE0FFF1FEE0F30
:10208000FF1FE453FE4F86819781A085B185881597
:102090009905AA05BB0531F02F5F3F4F253031056B
:1020A00031F745E020E030E0F901EE0FFF1FE20FCD
:1020B000F31FEE0FFF1FEE0FFF1FE453FE4F86814D
:1020C0009781A085B1858C159D05AE05BF0531F0C2
:1020D0002F5F3F4F2530310539F73AC0453021F5A4
:1020E000822F90E0FC01EE0FFF1FE80FF91FEE0FAB
:1020F000FF1FEE0FFF1FE453FE4F86829782A086DC
:10210000B18612C080E090E000000196F7E28031D5
:102110009F07D1F70E94940F1F5F143111F480E0E4
:1021200004C020E030E0A3CF81E0AA960FB6F89477
:10213000DEBF0FBECDBFCF91DF911F910F91FF90FA
:10214000EF90DF90CF90BF90AF909F908F900895C9
:102150004530C1F2E9CF8F929F92AF92BF92CF925A
:10216000DF92EF92FF920F931F93DF93CF9300D0F4
:1021700000D0CDB7DEB77C01B42EA52E962E872ECB
:1021800000E010E06E010894C11CD11CF999FECF4B
:10219000C8018E0D9F1D0E94DD20F601E00FF11F8A
:1021A00080830F5F1F4F0430110581F729813A8129
:1021B0004B815C812F3F8FEF38078FEF48078FEF00
:1021C000580741F42B2D3A2D492D582DC901DA011C
:1021D0009C01AD01B901CA010F900F900F900F90B3
:1021E000CF91DF911F910F91FF90EF90DF90CF90F3
:1021F000BF90AF909F908F9008950E9467118EE1DD
:1022000090E04AE05AE267E173E60E94AB10609307
:10221000290570932A0580932B0590932C0582E263
:1022200090E04FEF5FEF6FEF70E00E94AB106093B4
:10223000310570933205809333059093340586E21F
:1022400090E040EC58EA60E071E00E94AB106093CF
:102250002D0570932E0580932F05909330052091C6
:10226000310530913205409133055091340580910C
:10227000290590912A05A0912B05B0912C05822368
:102280009323A423B5232095309540955095822B18
:10229000932BA42BB52B8093350590933605A093F3
:1022A0003705B093380510924D0582E280934E05B4
:1022B00089EF80934F0581E08093500588E38093F8
:1022C000510588EC809352050E9496180895E1E824
:1022D000F0E080818D6080831092850010928400F0
:1022E00086E290E0909389008093880082E080935A
:1022F0006F0008951F920F920FB60F9211242F9323
:102300003F934F935F936F937F938F939F93AF937D
:10231000BF93EF93FF93809106019091070101977E
:102320009093070180930601019631F581E090E0DA
:1023300090930701809306018091C20126B12095F8
:1023400028278091C501822380958093C5019091B3
:10235000C401922398279093C401822389239091EA
:10236000C20198279093C2012091C3019091C201AC
:102370008923822B8093C3018091040190910501F0
:1023800001979093050180930401019681F587ECF4
:1023900090E09093050180930401809194029091C4
:1023A0009502A0919602B09197020196A11DB11DD0
:1023B0008093940290939502A0939602B093970213
:1023C0008091920290919302019690939302809350
:1023D00092020197815B944018F0E0E0F0E00994EC
:1023E00080910A02826080930A020E94C71CFF91BA
:1023F000EF91BF91AF919F918F917F916F915F917D
:102400004F913F912F910F900FBE0F901F901895F5
:10241000E0E0F0E00994089508950895089508957E
:1024200008958EE190E04AE05AE267E173E60E9487
:10243000AB106093290570932A0580932B05909328
:102440002C0582E290E04FEF5FEF6FEF70E00E94AB
:10245000AB106093310570933205809333059093F0
:10246000340586E290E040EC58EA60E071E00E94BA
:10247000AB1060932D0570932E0580932F059093DC
:10248000300520913105309132054091330550914E
:1024900034058091290590912A05A0912B05B091D2
:1024A0002C0582239323A423B523209530954095B2
:1024B0005095822B932BA42BB52B809335059093AD
:1024C0003605A0933705B09338050895CF93DF9371
:1024D000CEE1D0E0F999FECFFE01E55FFA4FCE01E3
:1024E00060810E94E5202196C232D10599F7C2E2AF
:1024F000D0E0F999FECFFE01E15FFA4FCE01608195
:102500000E94E5202196C632D10599F7C6E2D0E0B7
:10251000F999FECFFE01E95FFA4FCE0160810E947A
:10252000E5202196CA32D10599F7DF91CF91089520
:102530000F931F93CF93DF938C0180913905909176
:102540003A05892BA1F0C0E0D0E0F999FECFFE0159
:10255000EE0FFF1FE75CFA4F60817181CE01800FA3
:10256000911F0E94E5202196C430D10571F7DF91BB
:10257000CF911F910F910895EF92FF921F93CF93E8
:10258000DF93CAE3D1E09EECE92E92E0F92EFE0142
:102590002196149100D000D0EDB7FEB73196ADB7BB
:1025A000BEB71296FC92EE921197128313820E948C
:1025B000C4040F900F900F900F90112341F7DF91FB
:1025C000CF911F91FF90EF9008952F923F924F92DD
:1025D0005F926F927F928F929F92AF92BF92CF92B3
:1025E000DF92EF92FF920F931F93CF93DF93C0E0A0
:1025F000D0E006E1202E312C18EF412E12E0512EB2
:10260000B3EF6B2EB2E07B2EAEEE8A2EA2E09A2EB6
:10261000F9EEAF2EF2E0BF2EEEEDCE2EE2E0DE2E92
:1026200071EDE72E72E0F72E00D000D0E1E0F3E08C
:10263000ADB7BEB71296FC93EE9311971496DC9348
:10264000CE9313970E94C404C29D8001C39D100DB8
:10265000D29D100D1124035F1D4FF80180819181DF
:10266000A281B38100D0EDB7FEB752824182907053
:10267000A070B07083839483A583B6830E94C40442
:10268000F80180819181A281B381EDB7FEB772829A
:102690006182892F90E0A0E0B0E083839483A583DA
:1026A000B6830E94C404F80180819181A281B38124
:1026B000EDB7FEB7928281828A2F90E0A0E0B0E071
:1026C00083839483A583B6830E94C404F801808128
:1026D0009181A281B381EDB7FEB7B282A1828B2F27
:1026E0009927AA27BB2783839483A583B6830E9457
:1026F000C404D80114962D913C91159714968D9190
:102700009C9115970F900F90EDB7FEB7D282C182C2
:10271000892F9927322F2227822B932B948383830F
:102720000E94C404D80153968C91EDB7FEB7319640
:10273000ADB7BEB71296FC92EE92119782831382C8
:102740000E94C40421960F900F900F900F90C530F7
:10275000D10509F069CFDF91CF911F910F91FF90C3
:10276000EF90DF90CF90BF90AF909F908F907F9031
:102770006F905F904F903F902F9008952F923F92CF
:102780004F925F926F927F928F929F92AF92BF9281
:10279000CF92DF92EF92FF920F931F93CF93DF932D
:1027A000C0E0D0E00AE2202E03E0302E11E2412EFC
:1027B00013E0512EBCE16B2EB3E07B2EA7E18A2EF5
:1027C000A3E09A2EF2E1AF2EF3E0BF2EE5E0CE2E8D
:1027D000E3E0DE2E8E01000F111F0C0F1D1F000FF6
:1027E000111F000F111F5CECE52E51E0F52EE00EDD
:1027F000F11ED7018C9100D000D000D0EDB7FEB70C
:10280000319623E433E0ADB7BEB712963C932E93D6
:102810001197D383C283848315820E94C404D70195
:1028200011968C910F900F90EDB7FEB731962EE375
:1028300033E0ADB7BEB712963C932E9311978283C7
:1028400013820E94C404F801E253FE4F8081EDB769
:10285000FEB7319629E333E0ADB7BEB712963C938D
:102860002E931197828313820E94C404D70113967A
:102870008C91EDB7FEB7319624E333E0ADB7BEB728
:1028800012963C932E931197828313820E94C40464
:1028900000531E4FD8018C91EDB7FEB731962FE251
:1028A00033E0ADB7BEB712963C932E931197828357
:1028B00013820E94C404D70115968C91EDB7FEB720
:1028C0003196ADB7BEB712963C922E921197828385
:1028D00013820E94C404F70186819781A085B18587
:1028E00000D0EDB7FEB7528241829070A070B070F8
:1028F00083839483A583B6830E94C404F7018681F1
:102900009781A085B185EDB7FEB772826182892F6C
:1029100090E0A0E0B0E083839483A583B6830E9417
:10292000C404F70186819781A085B185EDB7FEB714
:10293000928281828A2F90E0A0E0B0E0838394832A
:10294000A583B6830E94C404F70186819781A08580
:10295000B185EDB7FEB7B282A1828B2F9927AA2746
:10296000BB2783839483A583B6830E94C404D701C5
:102970001A968D919C911B970F900F90EDB7FEB713
:10298000D282C182948383830E94C40421960F90D3
:102990000F900F900F90C530D10509F01BCFDF913C
:1029A000CF911F910F91FF90EF90DF90CF90BF904C
:1029B000AF909F908F907F906F905F904F903F90DF
:1029C0002F90089500D000D0EDB7FEB7319680E586
:1029D00093E0ADB7BEB712969C938E9311978091FA
:1029E000C601828313820E94C4040F900F900F903F
:1029F0000F9008958DB79EB70E970FB6F8949EBFAF
:102A00000FBE8DBFEDB7FEB7319688E693E0ADB748
:102A1000BEB712969C938E93119780914D05828339
:102A2000138280914E058483158280914F058683A1
:102A30001782809150058087118680915105828789
:102A4000138680915205848715860E94C4048DB731
:102A50009EB70E960FB6F8949EBF0FBE8DBF089519
:102A600086E290E00E94981286E290E040EC58EAFC
:102A700060E071E00E94AB1060932D0570932E050D
:102A800080932F05909330058DB79EB70A970FB6A8
:102A9000F8949EBF0FBE8DBFEDB7FEB731968AE8A2
:102AA00093E0ADB7BEB712969C938E931197809129
:102AB0002D058283138280912E0584831582809157
:102AC0002F058683178280913005808711860E94AA
:102AD000C4048DB79EB70A960FB6F8949EBF0FBE7A
:102AE0008DBF089582E290E00E94981282E290E009
:102AF0004FEF5FEF6FEF70E00E94AB106093310516
:102B00007093320580933305909334052091290505
:102B100030912A0540912B0550912C05262337230F
:102B2000482359236095709580959095262B372BD7
:102B3000482B592B209335053093360540933705A4
:102B4000509338058DB79EB70A970FB6F8949EBF7D
:102B50000FBE8DBFEDB7FEB7319687EA93E0ADB7F4
:102B6000BEB712969C938E93119780913105828304
:102B70001382809132058483158280913305868388
:102B8000178280913405808711860E94C4048DB716
:102B90009EB70A960FB6F8949EBF0FBE8DBF0895DC
:102BA0008EE190E00E9498128EE190E04AE05AE2B5
:102BB00067E173E60E94AB106093290570932A05C4
:102BC00080932B0590932C0520913105309132058F
:102BD0004091330550913405622373238423952358
:102BE0002095309540955095262B372B482B592B07
:102BF00020933505309336054093370550933805BB
:102C00008DB79EB70A970FB6F8949EBF0FBE8DBFC3
:102C1000EDB7FEB7319682EC93E0ADB7BEB7129632
:102C20009C938E93119780912905828313828091C2
:102C30002A058483158280912B05868317828091D3
:102C40002C05808711860E94C4048DB79EB70A9612
:102C50000FB6F8949EBF0FBE8DBF0895AF92BF927E
:102C6000CF92DF92EF92FF920F931F9380913905DD
:102C700090913A05892B09F44AC0A0903905B0908B
:102C80003A0560913B0570913C0520913D053091DE
:102C90003E05E0903F05F090400580E090E0982FE1
:102CA000872F762F662740E050E0A901332722279F
:102CB000620F731F841F951FCC24DD246A0D7B1DBA
:102CC0008C1D9D1D00E010E01E2D0027FF24EE242A
:102CD0006E0D7F1D801F911F609323057093240547
:102CE00080932505909326050E94BA0F60912305D5
:102CF00070912405809125059091260548E020E0FB
:102D000001E010E031E0E32EF12C0E94DE0D1F9176
:102D10000F91FF90EF90DF90CF90BF90AF9008950C
:102D2000CF92DF92EF92FF920F931F93DF93CF9397
:102D300000D0CDB7DEB79A838983CE01019668E0D3
:102D400071E00E948C206C0110E00FC01F5FE12F2A
:102D5000F0E0EE0FFF1FEE0FFF1FE15BFE4F8081E3
:102D60009181892B11F480E03AC0E12EFF24F70114
:102D7000EE0FFF1FEE0FFF1FE15BFE4F8081918181
:102D8000B6010E946720892B09F700E010E06E0170
:102D90000894C11CD11CC6016AE071E00E948C201D
:102DA00060E070E040E050E00E94091FF801EE0F83
:102DB000FF1FE75CFA4F718360830F5F1F4F0A307C
:102DC000110549F7EE0CFF1CEE0CFF1C81E591E0AC
:102DD000E80EF91ED701ED91FC91099581E00F9065
:102DE0000F90CF91DF911F910F91FF90EF90DF90A7
:102DF000CF900895CF93DF93EC01DB0134C086952B
:102E00008695FD018193888183708295807F1196DC
:102E10008C9311979981992321F4DF01119642E057
:102E200026C092959F70890F11968C931197898176
:102E30008F70880F880F12968C9312979A8199231E
:102E400019F4139641E013C0929596959695937058
:102E5000890F12968C9312978A818F7313968C9395
:102E60001397149623968881882349F640E01C9294
:102E7000EB0108C0E881F0E0EF73F070E552FC4F21
:102E8000E491E993CA17DB07A9F7FD01842F9DE3BD
:102E900002C0919381508823E1F7A40FB11D1C92C9
:102EA000DF91CF9108952A988F71806A8EBD0DB4FD
:102EB00007FEFDCF6EBD0DB407FEFDCF2A9A089523
:102EC0002A988F7180688EBD0DB407FEFDCF6EBD50
:102ED0000DB407FEFDCF2A9A0895FF920F931F931A
:102EE000CF93DF93182F9FE1F92EF82289E18F15F8
:102EF000D0F0C12FD0E0C076D07085E0D595C795D1
:102F00008A95E1F70C2F8091C901C81761F08FE114
:102F100063E00E945317CC2321F08FE16C2F0E94B5
:102F200060170093C9012A98FEBC0DB407FEFDCFBF
:102F30001EBC0DB407FEFDCF17FF04C01EBC0DB4B0
:102F400007FEFDCF8EB52A9ADF91CF911F910F9189
:102F5000FF900895FF920F931F93CF93DF93F62E68
:102F6000182F1F711A31D0F4C82FD0E0C076D0705E
:102F700025E0D595C7952A95E1F70C2F8091C901D9
:102F8000C81761F08FE163E00E945317CC2321F052
:102F90008FE16C2F0E9460170093C9012A9810647A
:102FA0001EBD0DB407FEFDCFFEBC0DB407FEFDCF68
:102FB0002A9ADF91CF911F910F91FF9008950F935F
:102FC0001F93982F162F072F84ED692F0E94AA17A1
:102FD00086ED612F0E94AA1787ED602F0E94AA1725
:102FE0008AE090E001972FEF8F3F920729F00000D1
:102FF000000000000000F6CF8AEE0E946D1780FDF1
:10300000FBCF1F910F910895FC012A988AE38EBD92
:103010000DB407FEFDCF08C01EBC0DB407FEFDCFEA
:103020008EB581936150704061157105A9F72A9A98
:103030000895CF92DF92EF92FF920F931F93DF9349
:10304000CF930F92CDB7DEB77C016B01198204E6F6
:1030500010E011C08FE10E946D1783FF12C088EE4F
:1030600093E001972FEF8F3F920729F000000000B7
:1030700000000000F6CF015010408FEF0F3F1807FF
:1030800049F78FE10E946D1783FF08C08FE160E868
:103090000E9460178FE160E80E94531782E060E0B1
:1030A0000E94AA1783E06AE10E94AA1786E06E2DAB
:1030B0000E94AA1797012050364E87E0632F0E9486
:1030C000AA172A988AE78EBD0DB407FEFDCF898125
:1030D0008EBD0DB407FEFDCF2A9A2A988AE78EBDD1
:1030E0000DB407FEFDCF0CC0F60180818EBD0DB47E
:1030F00007FEFDCF0894E108F1080894C11CD11C1B
:10310000E114F10489F72A9A8CE168E00E945317D0
:103110008FE168E00E9460170F90CF91DF911F91BF
:103120000F91FF90EF90DF90CF9008950F931F9332
:10313000CF93DF93229A2A9A84B1886284B92D9A18
:103140002498229A80E58CBD81E08DBD80E197E2D4
:1031500001972FEF8F3F920729F000000000000039
:103160000000F6CF2A988FEF8EBD0DB407FEFDCF7D
:103170002A9A88EE93E00197EFEF8F3F9E0729F0A0
:103180000000000000000000F6CF8DE10E946D17E6
:1031900080FFFBCF82E70E946D178093C6011092DB
:1031A0004D0582E280934E0589EF80934F0581E0C3
:1031B0008093500588E38093510588EC80935205F5
:1031C000C0E0D0E0CE01FE01E35EFB4F24912296E9
:1031D000825E9B4FFC0164912F3F11F46F3F21F001
:1031E000822F0E94AA17EECFC35EDB4FFE018491AF
:1031F0002196FE01949121978F3F11F49F3F61F03A
:10320000192F00E02296FE01649170E0602B712B73
:103210000E94DF172196EACF1092C8011092C701D1
:103220008BE160EC0E94AA178FE164E00E946017B6
:10323000DF91CF911F910F910895CF92DF92EF927E
:10324000FF920F931F93DF93CF9300D000D000D055
:10325000CDB7DEB77C016B0189E30E946D1788232F
:1032600019F400E010E071C06091C7017091C801CD
:1032700080E00E94AA172091C7013091C80181E027
:10328000632F0E94AA17CE01019666E070E00E94AB
:103290000418898190E09093C8018093C701209120
:1032A000C7013091C8019A8180E0822B932B9093C3
:1032B000C8018093C7018B81082F10E09C8180E0BA
:1032C000082B192B8D81282F30E09E8180E0282B40
:1032D000392B27FF05C037FD03C0E016F10610F4B7
:1032E0000E94961804501040E016F10608F4870179
:1032F000C601B8010E9404188091C7019091C801CD
:10330000019780509A41A8F48091C7019091C8011B
:103310006091C7017091C80161508CE00E94AA17AA
:103320002091C7013091C801215030408DE0632FBA
:1033300006C08CE06FEF0E94AA178DE069E10E9441
:10334000AA178EE160E40E946017C80126960FB6A6
:10335000F894DEBF0FBECDBFCF91DF911F910F91CB
:10336000FF90EF90DF90CF900895FF920F931F93FF
:10337000CF93DF93C0910001D091010180910802A9
:1033800090910902C817D90709F469C060E070E09C
:1033900026E130E0F62E629FF001639FF00D729FF0
:1033A000F00D1124E35FFD4F868197818050974196
:1033B00009F046C08091910280FD51C08091910238
:1033C000816080939102809102019091030190931A
:1033D00009028093080240E050E015C0FA01E6536C
:1033E000FD4FD9018D9186ABB0930902A0930802DD
:1033F000A95CB24031F4205330403093090220934D
:1034000008024F5F5F4F2091080230910902C217F6
:10341000D30721F786E190E0689F8001699F100D36
:10342000789F100D1124035F1D4F88E1F801808BF8
:10343000CA016F2D0E94F90983E0F801838B0FC048
:103440006F5F7F4F6530710509F0A4CF80910B024B
:1034500082FF05C080910B028B7F80930B02DF916E
:10346000CF911F910F91FF900895FF920F931F939B
:10347000F82EA82FB0E086E190E0A89FF001A99F68
:10348000F00DB89FF00D1124E35FFD4F808980FFA0
:1034900006C080910B028B7F80930B02B6C081899E
:1034A0009289892B21F081899289019759F586E1CA
:1034B00090E0A89F8001A99F100DB89F100D1124C6
:1034C000035F1D4F81E090E0F801928B818B80E0DB
:1034D00093E063E574E046E150E00E945E2086E1FF
:1034E00090E06F2D0E94F90980910B028460809317
:1034F0000B02809191028E7F809391028FEFF801F1
:10350000838B83C081899289029708F443C08089A4
:1035100083FF40C082E090E0928B818B2091F80283
:1035200030E0207F30703595279535952795B90186
:103530006E5D7F4F8091DB02482F50E04E5D5F4F04
:103540009091DA0280E0480F591F421B530BFB0198
:10355000E653FD4F09C08091C00085FFFCCF8191EB
:103560008093C6006F5F7F4F64177507A4F386E1F1
:1035700090E0A89FF001A99FF00DB89FF00D1124D5
:10358000E35FFD4F80E1808B80E090E06F2D0E9433
:10359000F9093BC086E190E0A89FF001A99FF00DDA
:1035A000B89FF00D1124E35FFD4F81899289029746
:1035B000B8F0808984FF14C08091910280FF10C010
:1035C0008FEF838B80910802909109029093030101
:1035D00080930201809191028E7F8093910215C0A9
:1035E00086E190E0A89FF001A99FF00DB89FF00D33
:1035F0001124E35FFD4F8089882339F48091910283
:103600008E7F809391020E94B5191F910F91FF90B8
:10361000089587E190E065E37AE10E940B06089542
:1036200000D000D08AE694E0EDB7FEB792838183A4
:103630002091DB0230E02C5130409091DA0280E0A2
:10364000280F391F348323830E94C4040F900F90E6
:103650000F900F90089589E591E060E17BE10E9471
:1036600048060895DF92EF92FF920F931F93CF9336
:10367000DF938091CA019091CB01029778F08091FD
:10368000CA019091CB01449748F48091CA0190916E
:10369000CB0101969093CB018093CA018091CA011E
:1036A0009091CB01892B09F092C000D08EE895E073
:1036B000EDB7FEB7928381830E94C4040F900F90F0
:1036C00082E399E06BE27CE10E940B0661ED72EA15
:1036D0008AEB9CE30E94BA0F882309F472C080E051
:1036E00090E0A0E0B0E000000196A11DB11D80387F
:1036F000F4E89F07FEE1AF07F0E0BF07A1F761ED37
:1037000072EA8AEB9CE340E050E529E032E30E9454
:10371000BA0A85E0E82EF12C012D112DDD24C6E139
:10372000D0E022C061ED72EA8AEB9CE340E050E514
:103730000E9446092FE1D21661F400D082E695E09E
:10374000EDB7FEB7928381830E94C4040F900F905F
:103750007AC0E82EFF2400E010E0F5E0EF16F10457
:103760000105110570F0D394EC9EF001ED9EF00D73
:10377000FC9EF00D1124E35FFD4F81899289019732
:1037800089F600D08CE395E0EDB7FEB79283818394
:103790000E94C40486E190E0E89EF001E99EF00DED
:1037A000F89EF00D1124EE5DFD4F808181608083D5
:1037B00082E090E09093CB018093CA010F900F902C
:1037C00006C081E090E09093CB018093CA01809184
:1037D000CA019091CB010B97B0F18091CA019091F1
:1037E000CB01449780F500D084E295E0EDB7FEB7B9
:1037F000928381830E94C4040F900F9061ED72EA5E
:103800008AEB9CE340E050E50E944609D82EE82E62
:10381000FF2480E093E069E874E04AE950E00E9408
:103820005E2086E190E0E89EF001E99EF00DF89EB2
:10383000F00D1124E35FFD4F88E1808B8AE990E071
:103840006D2D0E94F909DF91CF911F910F91FF908B
:10385000EF90DF900895BF92CF92DF92EF92FF92A8
:103860000F931F93CF93DF93B82E8091F802C82F48
:10387000D0E0C07FD070D595C795D595C795A29655
:103880006AECE62E62E0F62EEC0EFD1E5CE9C52E1B
:1038900055E0D52E17C000D000D0EDB7FEB7319659
:1038A000ADB7BEB71296DC92CE921197D7018D912B
:1038B0007D01828313820E94C40421960F900F9091
:1038C0000F900F902091DB0230E02E5D3F4F109162
:1038D000DA0200E0200F311F8091F80290E0807F33
:1038E00090709595879595958795281B390BC217EC
:1038F000D3078CF22B2D30E086E190E0289FF00179
:10390000299FF00D389FF00D1124E35FFD4F8FEFDD
:10391000838B80E1808B80E090E06B2D0E94F90921
:10392000DF91CF911F910F91FF90EF90DF90CF909B
:10393000BF9008958091F402853A41F58091F50297
:103940008A3521F58091F6022091F702883090F4B3
:103950002230E0F4E82FF0E0EC5AFA4F9081892F02
:1039600082608083222319F48E7F80830895936080
:1039700090830895833651F4213011F45B9A0895B1
:10398000222321F48BB198E089278BB90895809187
:1039900091018150809391018F5F69F4809153056B
:1039A00091E08927809353059093910180915D0563
:1039B0008F5F80935D050895EF92FF920F931F93A1
:1039C000DF93CF93CDB7DEB72E970FB6F894DEBF57
:1039D0000FBECDBF95EA99839AE59A839BE09B83BE
:1039E00095E09C8370E06E5F7F4F95E0660F771FD8
:1039F0009A95E1F760616D831E821F821886198691
:103A00001A861B868C8780E18D871E86FE01339681
:103A10009E01225F3F4F8E859191890F8E87E2171D
:103A2000F307C9F78E010F5F1F4F8FE0E82EF12CCF
:103A3000EC0EFD1EF80181918F010E941A040E15F3
:103A40001F05C1F72E960FB6F894DEBF0FBECDBF8F
:103A5000CF91DF911F910F91FF90EF9008950F93F9
:103A60001F938093F4026093F50282E090E066E297
:103A700079E046E259E00FEF1FEF2FEF3FEF0E9492
:103A8000780D1F910F9108958F929F92BF92CF92C0
:103A9000DF92EF92FF920F931F93CF93DF9354E542
:103AA000E52E55E0F52EE7014CE3C42ED12C31E094
:103AB000832E912C24ECB22EBC0C688161FF1FC0B8
:103AC000862F8D7F888361708C2D885D0E94DC1C21
:103AD00068816170C6010E94E52088818170B09282
:103AE000F4028093F50282E090E066E279E046E23B
:103AF00059E00FEF1FEF2FEF3FEF0E94780D888105
:103B00009B2D969580FF0DC02BB1892F90E00496D8
:103B1000A40102C0440F551F8A95E2F7242B2BB94C
:103B20000EC02BB1892F90E00496A40102C0440F6F
:103B3000551F8A95E2F7CA01809582238BB9219699
:103B40000894C11CD11C55E0CC35D50709F0B2CF83
:103B5000E0E0F0E0A1E0B0E08091C30190E00E2E43
:103B600002C0959587950A94E2F780FF27C02091BF
:103B7000C301CD010E2E02C0880F991F0A94E2F7EF
:103B800028272093C301E7017881572F526058837B
:103B90006981462F42604983842F90E0252F30E0D1
:103BA000822B932B80FF05C05E7F58834E7F498315
:103BB00005C07360E701788363606983319642E0F2
:103BC00050E0E40EF51EE430F10531F68091C201BB
:103BD00090915C0584FF1EC0923018F0933009F07C
:103BE00076C05B9A8EE661E00E94DC1C8AE08093DE
:103BF000F40281E08093F50282E090E066E279E0F1
:103C000046E259E00FEF1FEF2FEF3FEF0E94780DD4
:103C100082E05BC09923C9F45B988EE660E00E9465
:103C2000DC1C8AE08093F4021092F50282E090E0BE
:103C300066E279E046E259E00FEF1FEF2FEF3FEF2A
:103C40000E94780D81E080935C0590915C05923034
:103C5000B1F410925D058AE08093F4029093F5022E
:103C600082E090E066E279E046E259E00FEF1FEF74
:103C70002FEF3FEF0E94780D83E080935C058091E9
:103C80005C05833021F580915305882311F05B9A00
:103C900001C05B9880915D058B30C8F05B988EE623
:103CA00060E00E94DC1C8AE08093F4021092F5022E
:103CB00082E090E066E279E046E259E00FEF1FEF24
:103CC0002FEF3FEF0E94780D81E080935C05DF913C
:103CD000CF911F910F91FF90EF90DF90CF90BF9009
:103CE0009F908F9008950F931F93CF93DF938FE84A
:103CF00091E062E370E042E050E00E94CD208091CC
:103D00008F01909190018F5F9F4F31F489E395E08F
:103D10009093900180938F018AB1886F8AB98BB19B
:103D200087708BB987B1807E87B988B18F6188B978
:103D3000C4E5D5E00CE310E01882C8010E94DD2044
:103D400088838F3F09F418828881826089930F5F8E
:103D50001F4F85E0CC35D80779F710925C05DF91CD
:103D6000CF911F910F910895209131053091320527
:103D700040913305509134058091290590912A0591
:103D8000A0912B05B0912C0582239323A423B52366
:103D90002095309540955095822B932BA42BB52BD5
:103DA0008093350590933605A0933705B093380579
:103DB00080918F01909190010E94660680918F0101
:103DC000909190016AE97CE10E9448060895A1E281
:103DD0001A2EAA1BBB1BFD010DC0AA1FBB1FEE1F85
:103DE000FF1FA217B307E407F50720F0A21BB30BD0
:103DF000E40BF50B661F771F881F991F1A9469F74C
:103E000060957095809590959B01AC01BD01CF01A7
:103E100008952F923F925F926F927F928F929F921E
:103E2000AF92BF92CF92DF92EF92FF920F931F93C8
:103E3000CF93DF938C011B01EA016115710519F025
:103E4000FB0191838083209749F0CE0102978397ED
:103E500028F020E030E040E050E0F6C0F801A1900A
:103E60008F018A2D90E00E945620892BB9F7FDE240
:103E7000AF1631F4F801A1908F015524539407C077
:103E8000FBE2AF1619F4F801A1908F015524209799
:103E900019F0C031D105C1F4F0E3AF1679F4F8019F
:103EA0008081883711F0883549F4F801A1800E5FD0
:103EB0001F4FF2E05F2AC0E1D0E006C0209721F456
:103EC00080E3A816E9F427C0C830D10531F1C93024
:103ED000D10524F4C230D10531F50CC0CA30D1056A
:103EE00089F0C031D105F9F4C12CD12CE12CB8E016
:103EF000FB2E28C0C12CD12CE12CA0E4FA2E22C02C
:103F0000CAE0D0E0FCECCF2EFCECDF2EFCECEF2E78
:103F1000FCE0FF2E17C0C8E0D0E0C12CD12CE12C72
:103F2000E0E1FE2E0FC09E01442737FD4095542F3F
:103F300060E070E080E090E80E94E71EC901DA01CD
:103F40006C017D0120E030E040E050E060E03E01A7
:103F5000882477FC8094982C70EDB72EBA0CE9E099
:103F6000EB1570F48A2D81548A3118F499ECB92E2E
:103F700006C08A2D81568A3150F589EAB82EBA0CCE
:103F80008B2D90E08C179D0714F56F3FE1F0C21662
:103F9000D306E406F506B0F0CA01B901A401930105
:103FA0000E9406219B01AC012B0D311D411D511DAD
:103FB0002130F0E03F07F0E04F07F0E85F0710F432
:103FC00061E001C06FEFF801A1908F01C5CF21140E
:103FD000310481F0662331F001501040F10111836A
:103FE000008308C051FE1AC002501040F101118335
:103FF000008314C067FF12C050FC05C02FEF3FEFD5
:104000004FEF5FE704C020E030E040E050E882E29C
:1040100090E090935F0580935E0516C050FE08C047
:1040200050954095309521953F4F4F4F5F4F0CC0B5
:1040300057FF0AC082E290E090935F0580935E058F
:104040002FEF3FEF4FEF5FE7B901CA01DF91CF914B
:104050001F910F91FF90EF90DF90CF90BF90AF90A6
:104060009F908F907F906F905F903F902F900895DA
:10407000FC0188279927E89421912032E9F329301F
:1040800010F02E30C8F32B3241F02D3239F4689401
:1040900004C00E94C520820F911D219120532A3017
:1040A000C0F31EF4909581959F4F089591119BC088
:1040B000803219F089508550D0F70895FB01DC015A
:1040C00002C005900D9241505040D8F70895FB0171
:1040D000DC018D9181341CF08B350CF4805E619194
:1040E00061341CF06B350CF4605E861B611189F342
:1040F000990B0895FB01DC010D900020E9F7119761
:1041000001900D920020E1F70895FB01DC01019080
:104110000D920020E1F70895FC01A081B181AD016D
:10412000109681F03D91FB01019003160110E1F71B
:10413000C9F7002011F4D00102C01E921196FC01B3
:10414000A083B183CA010895FB019F01E894423026
:10415000C4F04532B4F44A3029F497FB1EF490952C
:1041600081959F4F642F77270E942521805D8A3398
:104170000CF0895D8193CB010097A1F716F45DE205
:1041800051931082C9010C94F6207AE0979F902DEC
:10419000879F802D910D11240895DC01CB01FC0136
:1041A000F999FECF06C0F2BDE1BDF89A319600B490
:1041B0000D9241505040B8F70895F999FECF92BD45
:1041C00081BDF89A992780B50895262FF999FECFD9
:1041D0001FBA92BD81BD20BD0FB6F894FA9AF99A24
:1041E0000FBE01960895992788270895DC01FC01E8
:1041F000672F71917723E1F7329704C07C916D931B
:1042000070836291AE17BF07C8F30895629FD00113
:10421000739FF001829FE00DF11D649FE00DF11D81
:10422000929FF00D839FF00D749FF00D659FF00D30
:104230009927729FB00DE11DF91F639FB00DE11D1D
:10424000F91FBD01CF0111240895AA1BBB1B51E129
:1042500007C0AA1FBB1FA617B70710F0A61BB70BF6
:10426000881F991F5A95A9F780959095BC01CD019B
:064270000895F894FFCF51
:1042760098029802C800020020002E2C2000524509
:104286005345540041525000544350004950004E8B
:10429600455400524F55544552004E5450004D411E
:1042A60043005645520053560054494D45004E545E
:1042B60050520050494E470048454C50003F000EB2
:1042C6000108121401BE131801E5121C01D0151FB6
:1042D600017215230130152A010C122E01FA14322F
:1042E60001E21436010D1239010E123E010F12437E
:1042F600012E164801BC124D01BC12000000003907
:024306000501AF
:00000001FF
