:100000000C94C4030C94E9030C94E9030C94E903E5
:100010000C94E9030C94E9030C94E9030C94E903B0
:100020000C94E9030C94E9030C94E9030C949911E2
:100030000C94E9030C94E9030C94E9030C94E90390
:100040000C94E9030C94E9030C9447060C94E9031F
:100050000C94E9030C94E9030C94E9030C94E90370
:100060000C94E9030C94E90347657420504F4E4704
:100070003A2025692E25692E25692E25690D0A004D
:1000800064686370206C656173652072656E657766
:10009000616C206661696C65640D0A004552524FBF
:1000A000520D0A0D0A0052656164790D0A0D0A00AD
:1000B0000D0A0063616E5F696E697428424954528B
:1000C0004154455F3132355F4B425053290D0A0090
:1000D00047572020202531692E2531692E25316989
:1000E0002E2531690D0A004D41534B202531692ED3
:1000F0002531692E2531692E2531690D0A000D0A39
:1001000049502020202531692E2531692E2531695D
:100110002E2531690D0A0044484350206661696C00
:100120000D0A00436F6D70696C69657274206D69AA
:1001300074204743432056657273696F6E20342ED6
:10014000352E330D0A00436F6D70696C69657274EA
:1001500020616D204D6179202037203230313320ED
:10016000756D2032313A34313A30360D0A000A0DBD
:1001700053797374656D2052656164790A0D00527C
:100180004553455420202D20726573657420746892
:100190006520415652202D20436F6E74726F6C6C37
:1001A00065720D0A415250202020202D206C697369
:1001B000742074686520415250207461626C650D32
:1001C0000A544350202020202D206C697374207421
:1001D000686520746370207461626C650D0A495013
:1001E00020202020202D206C6973742F6368616E9D
:1001F00067652069700D0A4E4554202020202D206F
:100200006C6973742F6368616E6765206E65746DC9
:1002100061736B0D0A524F55544552202D206C6965
:1002200073742F6368616E676520726F7574657291
:100230002069700D0A4E5450202020202D206C691A
:1002400073742F6368616E6765204E54500D0A4EBB
:100250005450522020202D204E545020526566725A
:100260006573680D0A4D4143202020202D206C69C4
:100270007374204D41432D616464726573730D0A7C
:10028000564552202020202D206C69737420656E05
:10029000632076657273696F6E206E756D6265722C
:1002A0000D0A535620202020202D207365742076BF
:1002B00061726961626C650D0A50494E47202020C9
:1002C0002D2073656E642050696E670D0A54494D88
:1002D000452020202D206765742074696D650D0A06
:1002E00048454C502020202D207072696E742048A3
:1002F000656C70746578740D0A3F202020202020E2
:100300002D207072696E742048656C707465787405
:100310000D0A00256300202054696D653A25346973
:100320000D0A002020504F52543A253469002E25E2
:100330003369002E253369002E25336900202049BA
:10034000503A2533690025326900202054696D65D3
:100350003A2534690D0A002E253369002E253369AC
:10036000002E25336900202049503A253369002E9C
:10037000253278002E253278002E253278002E2561
:100380003278002E2532780025326920204D4143F5
:100390003A25327800454E4332384A36302D56657C
:1003A0007273696F6E3A202531780D0A004D7920FD
:1003B0004D41433A202532783A2532783A25327831
:1003C0003A2532783A2532783A2532780D0A0052A9
:1003D0006F757465722049503A202531692E253198
:1003E000692E2531692E2531690D0A004E45544D7F
:1003F00041534B3A202531692E2531692E2531692B
:100400002E2531690D0A004D792049503A202531B9
:10041000692E2531692E2531692E2531690D0A0095
:100420004142434445464748494A4B4C4D4E4F5044
:100430005152535455565758595A61626364656610
:100440006768696A6B6C6D6E6F70717273747576C4
:100450007778797A303132333435363738392B2F53
:100460003D000400051A06FF071F080009000AFFE7
:100470000B19C100C00DC233CAEECB05C415C6129C
:10048000E400E522E2F9E301E038E1C87500FFFF8E
:10049000000100140740FFFF53746172742054651B
:1004A0006C6E6574205365727665723A0D0A002A87
:1004B0002A204C4344204441544120474554204283
:1004C000797465733A202569202A2A0D0A00474568
:1004D00054202F676C6F62616C7765617468657218
:1004E0002E61736D782F4765745765617468657206
:1004F0003F436974794E616D653D50616465726218
:100500006F726E26436F756E7472794E616D653DC4
:100510004765726D616E7920485454502F312E31E9
:100520000D0A486F73743A207777772E7765627378
:10053000657276696365782E6E65740D0A4B656524
:10054000702D416C6976653A203330300D0A436F67
:100550006E6E656374696F6E3A204B6565702D41F0
:100560006C6976650D0A0D0A000D0A0D0A0D0A4424
:100570006174656E20416E666F726465726E0D0AFD
:10058000005443502045696E747261672067656648
:10059000756E64656E2028485454505F434C49453D
:1005A0004E5429210D0A005443502045696E74723F
:1005B0006167206E6963687420676566756E64653F
:1005C0006E2028485454505F434C49454E542921CD
:1005D0000D0A0041525020526571756573740A0D01
:1005E000002563002A2A2044484350204E414B20D6
:1005F000524543564421202A2A0D0A002A2A204423
:100600004843502041434B20524543564421202A21
:100610002A0D0A002A2A2044484350204F464645C6
:100620005220524543564421202A2A0D0A004F7079
:1006300074696F6E203532204572726F720D0A0038
:1006400057726F6E6720444843502049442C206401
:1006500069736361726465640D0A00444843502005
:10066000746F6F206269672C2064697363617264C0
:1006700065640D0A00556E6B6E6F776E204F707457
:10068000696F6E3A202532780D0A000D0A6F666692
:10069000657269702020202531692E2531692E254B
:1006A00031692E2531690D0A000D0A6D79697020B6
:1006B00020202531692E2531692E2531692E2531DD
:1006C000690D0A0057726F6E672044484350206DD1
:1006D000736720747970650D0A0052455155455372
:1006E000542073656E740D0A00444953434F5645B8
:1006F000522073656E740D0A004C45415345202508
:1007000032782532782532782532780D0A0044482F
:1007100043502074696D656F75740D0A000D0A49A8
:10072000502020202531692E2531692E2531692E52
:100730002531690D0A0004B6E704B6D304B6C70430
:10074000B6C302900703AC8103AC8002900053450E
:10075000545F4F5554505554284D43503235313520
:100760005F4353293B0D0A006D6370323531355FAD
:10077000696E69742875696E74385F742062697473
:1007800072617465290D0A0011241FBECFEFD8E0F5
:10079000DEBFCDBFEDEEF7E08AEA99E08193E0306D
:1007A000F907E0F311E0A0E0B1E0ECE3FDE502C001
:1007B00005900D92A639B107D9F717E0A6E9B1E087
:1007C00001C01D92AD3EB107E1F70E94EB030C940E
:1007D0009C2E0C940000AF92BF92CF92DF92EF92CA
:1007E000FF920F931F93CF93DF931AB860E875E2DF
:1007F00080E090E00E94400500D08EE691E0ADB729
:10080000BEB712969C938E9311970E947A0586E448
:1008100091E0EDB7FEB7928381830E947A0583E26F
:1008200091E0ADB7BEB712969C938E9311970E943C
:100830007A058FEF99E6A8E181509040A040E1F75A
:1008400000C000000F900F900E9462070E94EB21F1
:100850000E94B52478940E94A2210E94A6240E949E
:10086000021D0E946F1E882319F40E94B2160FC049
:1008700000D087E191E0ADB7BEB712969C938E93FE
:1008800011970E947A050F900F900E94EB16EDB71A
:10089000FEB73A970FB6F894FEBF0FBEEDBF319684
:1008A0008EEF90E0ADB7BEB712969C938E931197E2
:1008B00080918F05828313828091900584831582B5
:1008C0008091910586831782809192058087118699
:1008D0000E947A05EDB7FEB7319687EE90E0ADB78E
:1008E000BEB712969C938E93119780919705828341
:1008F000138280919805848315828091990586835F
:10090000178280919A05808711860E947A05EDB73B
:10091000FEB7319680ED90E0ADB7BEB712969C93CE
:100920008E93119780919305828313828091940511
:100930008483158280919505868317828091960520
:10094000808711860E947A05EDB7FEB73A960FB6FA
:10095000F894FEBF0FBEEDBF84E00E944F2A00D086
:1009600083EB90E0ADB7BEB712969C938E93119730
:100970000E947A050F900F9020EBE22E20E0F22EDD
:100980000CE910E0C6EAD0E090E8C92E90E0D92E3C
:1009900088E6A82E80E0B82E0E949A1080917102FD
:1009A00080FF25C000D0EDB7FEB7F282E1820E9441
:1009B0007A050F900F908EEF92E00E941A1588230F
:1009C00041F000D0ADB7BEB71296DC93CE9311972D
:1009D00005C000D0EDB7FEB7128301830E947A05EF
:1009E0000F900F90809171028E7F809371020E9410
:1009F0006F1E882371F000D0ADB7BEB71296DC929F
:100A0000CE9211970E947A05E0E0F0E009940F90F1
:100A10000F90F8940E947E240E94EB267894809197
:100A20008E05882309F4B8CFEDB7FEB73A970FB615
:100A3000F894FEBF0FBEEDBF3196ADB7BEB71296AC
:100A4000BC92AE9211978091890582831382809126
:100A50008A058483158280918B0586831782809115
:100A60008C05808711860E947A0510928E05EDB75D
:100A7000FEB73A960FB6F894FEBF0FBEEDBF8CCF0F
:100A80009B01AC0188E98093C10084E0220F331FF1
:100A9000441F551F8A95D1F760E072E18AE790E024
:100AA0000E943C2C21502093C400809171028B7FC6
:100AB0008093710208959091710292FD06C0909109
:100AC000C00095FFFCCF8093C6000895EF92FF927F
:100AD000CF93DF93E82EE7017E01F92EE70102C0F4
:100AE0000E945B0589918823D9F7DF91CF91FF9010
:100AF000EF9008956F927F928F929F92AF92BF92E4
:100B0000CF92DF92EF92FF920F931F93DF93CF93D9
:100B1000CDB7DEB764970FB6F894DEBF0FBECDBF7A
:100B200055E2E52EF12CEC0EFD1EF701019111911D
:100B30007F0177244E010894811C911C4BE0A42E68
:100B4000B12CAC0EBD1E30E3632EF80184918823D6
:100B500009F488C00F5F1F4F853209F080C0F8018B
:100B60000F5F1F4FE4918E2F90E0C0978A30910560
:100B700050F4EB871C86C5010E948B2D782EF8015E
:100B80000F5F1F4FE491E93679F1EA3628F4E23637
:100B900051F0E336D1F619C0E33739F0E83711F1F7
:100BA000EF3699F61DC042E020C0F70182E090E0E8
:100BB000E80EF91EC080D18002C00E945B05F601DC
:100BC00081916F018823C9F7C0CF22E0C22ED12CBA
:100BD000CE0CDF1CF70180810E945B057601B5CF4A
:100BE00048E003C040E101C04AE092E0C92ED12CA8
:100BF000CE0CDF1CF70180819181B40150E00E948E
:100C0000072EF40180E090E001C0C90141919C01F0
:100C10002F5F3F4F4423C9F7272D30E082179307FA
:100C2000C4F4781AF501872D90E09C012A0D3B1D34
:100C300001C06192E217F307E1F78A0D9B1DFC01E9
:100C40001082C501B4010E94DD2DC401B5010E94CE
:100C5000E82DC4010E9466057601772476CF0E94B4
:100C60005B0573CF64960FB6F894DEBF0FBECDBFA1
:100C7000CF91DF911F910F91FF90EF90DF90CF9078
:100C8000BF90AF909F908F907F906F9008951F922C
:100C90000F920FB60F9211241F932F933F934F93F0
:100CA0005F936F937F938F939F93AF93BF93EF93D4
:100CB000FF938091710282FD52C01091C600812F76
:100CC0000E945B058091710280FF04C080917102D7
:100CD00082602CC0183089F4809196019091970120
:100CE000009709F45AC0809196019091970101975D
:100CF000909397018093960150C01D30D1F4E091FC
:100D00009601F0919701E350FD4F80818C3589F079
:100D1000E0919601F0919701E250FD4F1082109200
:100D20009701109296018091710281608093710207
:100D300034C020919601309197012133310568F537
:100D40002091960130919701F901E250FD4F1083F7
:100D50002F5F3F4F30939701209396011EC08091E3
:100D60000001909101012091020130910301215075
:100D700030408217930789F02091C600FC0121932F
:100D8000F0930101E093000123E0EF32F20729F430
:100D9000C0979093010180930001FF91EF91BF9163
:100DA000AF919F918F917F916F915F914F913F9103
:100DB0002F911F910F900FBE0F901F901895382FF5
:100DC000292FC9010895EF92FF920F931F93562F79
:100DD000442733272227E92EFF24002711272E0D31
:100DE0003F1D401F511FE12CF12CAFEF0A2F112D99
:100DF000E622F72208231923EF2CF02E012F1127CA
:100E00002E0D3F1D401F511F607080709070982FF5
:100E1000872F762F6627260F371F481F591FB901C6
:100E2000CA011F910F91FF90EF900895AF92BF926A
:100E3000CF92DF92EF92FF920F931F93DF93CF93A6
:100E400000D000D000D0CDB7DEB76C015B018E01C1
:100E50000F5F1F4F85E0E82EF12CEC0EFD1EF99977
:100E6000FECFC6014D835E830E94402EF801819320
:100E70008F010894C11CD11C4D815E81EE15FF05C8
:100E800071F789819A81AB81BC818F3FFFEF9F070A
:100E9000FFEFAF07FFEFBF0711F0AC015D01BA0133
:100EA000C50126960FB6F894DEBF0FBECDBFCF9119
:100EB000DF911F910F91FF90EF90DF90CF90BF9047
:100EC000AF900895EF92FF920F931F930E948611A7
:100ED0008EE190E04AE05AE267E173E60E9416076D
:100EE00060938F0570939005809391059093920580
:100EF00082E290E04FEF5FEF6FEF70E00E94160725
:100F000060939705709398058093990590939A053F
:100F100086E290E040EC58EA60E071E00E9416073B
:100F2000609393057093940580939505909396052F
:100F3000E0909705F09098050091990510919A0519
:100F4000D801C70180959095A095B09520918F0507
:100F50003091900540919105509192052E213F21AD
:100F600040235123822B932BA42BB52B80939B05DD
:100F700090939C05A0939D05B0939E051092B30598
:100F800082E28093B40589EF8093B50581E0809378
:100F9000B60588E38093B70588EC8093B8050E9476
:100FA00004191F910F91FF90EF90089580E090E059
:100FB000FC01EE0FFF1FE80FF91FEE0FFF1FEE0FF2
:100FC000FF1FEE5CFD4F228533852115310559F455
:100FD0001082118212821382148215821682178265
:100FE0001086118606C02285338521503040338714
:100FF0002287019685309105D9F6089540E001C019
:101000004F5FE42FF0E0EE0FFF1FEE0FFF1FE856DB
:10101000FE4F208131812115310591F7453020F4B3
:101020009183808373836283089540E001C04F5FA2
:10103000E42FF0E0DF01AA0FBB1FAA0FBB1FA856C9
:10104000BE4F2D913C9111972115310519F02817AC
:10105000390769F7453040F4EE0FFF1FEE0FFF1F11
:10106000E856FE4F71836083089540E001C04F5FF2
:10107000E42FF0E0EE0FFF1FEE0FFF1FE455FE4FD1
:10108000208131812115310591F7453020F491837C
:101090008083738362830895ECEAF1E020813181DB
:1010A0002817390711F411821082349621E0E03CB0
:1010B000F207A1F708950F931F93CF93DF93409109
:1010C0003C0350913D0360E070E086E048305807F3
:1010D000C1F4FB01EE0FFF1FE60FF71FEE0FFF1F1E
:1010E000EE0FFF1FEE5CFD4F0681178120853185D5
:1010F00080914C0390914D03A0914E03B0914F030A
:101100001AC048305105E9F4FB01EE0FFF1FE60F4E
:10111000F71FEE0FFF1FEE0FFF1FEE5CFD4F068166
:1011200017812085318580914A0390914B03A091CE
:101130004C03B0914D03081719072A073B0709F420
:1011400062C06F5F7F4F6530710509F0BECF20E050
:1011500030E0F901EE0FFF1FBF01620F731F660F32
:10116000771F660F771FDB01AE5CBD4F16968D9122
:101170009D910D90BC91A02D0097A105B10509F09E
:1011800047C086E048305807C1F4C6E3D3E080E0AA
:1011900090E04991DB01A80FB91FAE5CBD4F4C93A5
:1011A000019686309105A9F780914C0390914D03EB
:1011B000A0914E03B0914F031AC04830510571F50C
:1011C000C6E3D3E080E090E04991DB01A80FB91FAE
:1011D000AE5CBD4F4C93019686309105A9F7809186
:1011E0004A0390914B03A0914C03B0914D03E20F41
:1011F000F31FEE0FFF1FEE0FFF1FEE5CFD4F868308
:101200009783A087B18784E690E09387828706C0A2
:101210002F5F3F4F2530310509F09BCFDF91CF91F4
:101220001F910F9108951F93A0E0B0E01A2FFD01C8
:10123000EE0FFF1FEA0FFB1FEE0FFF1FEE0FFF1F4A
:10124000EE5CFD4F26813781408551852617370793
:101250004807590729F01196A530B10539F715E06F
:10126000812F1F9108950F931F93CF93DF938C01CC
:10127000CB01BA010E9413098530F9F0E02FF12F5C
:10128000C3EBD5E040E050E090E09C01220F331F1B
:10129000280F391F220F331F220F331FD901A40F2C
:1012A000B51FAE5CBD4F8C918193899185834F5F53
:1012B0005F4F4630510591F70EC0A02FB12FE3EBE1
:1012C000F5E08FEF8D93919115969C93159795E08E
:1012D000E93BF907B9F7DF91CF911F910F9108957D
:1012E000CF93DF93CEE3D3E080913E0390913F0311
:1012F00021E08030920709F09AC0809140039091DC
:1013000041038830910509F092C0809142038630F4
:1013100009F08DC080914303843009F088C020918A
:1013200056033091570340915803509159038091CF
:101330008F0590919005A0919105B0919205281785
:1013400039074A075B0709F072C080914403909106
:101350004503A1E080309A0709F063C00E945B0852
:1013600040914C0350914D0360914E0370914F0397
:10137000CE010E970E94330988E096E090933D03DA
:1013800080933C0360914C0370914D0380914E0318
:1013900090914F030E941309853000F563EB75E0CF
:1013A000FE01389640E050E090E09C01220F331F90
:1013B000280F391F220F331F220F331FD901A40F0B
:1013C000B51FAE5CBD4F8C918287DB018D91BD0155
:1013D00081934F5F5F4F4630510581F780E092E087
:1013E0009F838E8380914C0390914D03A0914E0377
:1013F000B0914F03888F998FAA8FBB8F80918F05F3
:1014000090919005A0919105B09192058E879F874C
:10141000A88BB98B8CE390E060E373E00E94A51881
:1014200006C0B2E080309B0711F40E945B08DF9198
:10143000CF910895EF92FF920F931F93CF93DF9375
:101440008C01EB01FC0110C0908181813296F92E54
:10145000EE24D701A80FB11DCD01A0E0B0E0280F08
:10146000391F4A1F5B1F2297C230D10568F7FB0165
:10147000EE7FE00FF11F60FF08C0908180E0A0E0E8
:10148000B0E0280F391F4A1F5B1FDA01C901A070A5
:10149000B0709A0144275527280F391F4A1F5B1F38
:1014A000DA01C901A070B0709A0144275527280FAE
:1014B000391F4A1F5B1F20953095C901DF91CF91DD
:1014C0001F910F91FF90EF900895CF92DF92EF92CE
:1014D000FF920F931F93CF93DF938C016A017B01DF
:1014E000EC012E960E94330988E090E0F801958780
:1014F00084878091C0019091C10101969093C101B0
:101500008093C00120E430E03F832E8320E82887C9
:101510009827892798279D838C8385E4868719825D
:10152000C88AD98AEA8AFB8A80918F0590919005B2
:10153000A0919105B09192058C879D87AE87BF875A
:101540001B861A86CE0164E170E020E030E0A9013C
:101550000E941A0A9827892798279B878A87DF91F4
:10156000CF911F910F91FF90EF90DF90CF90089552
:101570008F929F92AF92BF92CF92DF92EF92FF92A3
:101580000F931F93CF93DF934B015C01C80100E3DE
:1015900013E03EE0C32ED12CC00ED11EE801A2966E
:1015A000409352032983FD82EC829F838E831B82AA
:1015B0001A8280E094E5F6019383828381E081873B
:1015C000C801B501A4010E94650AF6016281738118
:1015D00076276727762780913E0390E08F70907082
:1015E000880F991F880F991F681B790BCE0120E087
:1015F00030E0A9010E941A0A9827892798279B831F
:101600008A8382E690E0B8010E94A518DF91CF910D
:101610001F910F91FF90EF90DF90CF90BF90AF9010
:101620009F908F900895AF92BF92CF92DF92EF92EA
:10163000FF920F931F93CF93DF93DC019296EC01FF
:101640002E96CC84DD84EE84FF8420E030E006E139
:1016500010E0209FF001219FF00D309FF00D11242C
:10166000ED58FD4F40815181628173814C155D05BC
:101670006E057F0509F056C0648175814D915C91BE
:1016800011976417750709F04DC018964D915D913B
:101690006D917C911B974087518762877387149661
:1016A0004D915D916D917C91179744875587668721
:1016B00077871D968C911D97808B83898F3F11F0C2
:1016C00083E0838B8A819B81982789279827449779
:1016D0001C964C9150E0407F50705595479555951C
:1016E0004795841B950B7C0100E010E086E190E0BB
:1016F000289FE001299FD00D389FD00D1124CD588F
:10170000DD4F6C857D858E859F850E94E3066E0D7D
:101710007F1D801F911F0E94E3066C877D878E8747
:101720009F8756C02F5F3F4F2530310509F091CF7D
:1017300060E070E006E110E0609F5001619FB00C36
:10174000709FB00C1124F501ED58FD4F20813181BF
:1017500042815381211531054105510599F5C0821A
:10176000D182E282F382EC018AA19BA195838483DA
:1017700012968D919C9113979783868318962D913D
:101780003D914D915C911B9720873187428753870C
:1017900014962D913D914D915C9117972487358733
:1017A000468757871D968C911D97808B128A118AC8
:1017B00083E0838B148AE501C857DD4F88818E7FD3
:1017C000888306C06F5F7F4F6530710509F0B4CF25
:1017D000DF91CF911F910F91FF90EF90DF90CF900D
:1017E000BF90AF900895FF920F931F93CF93DF9315
:1017F000EA01E0E0F0E006E110E0FE2EE09FD0011B
:10180000E19FB00DF09FB00D1124AD58BD4F2D914B
:101810003D914D915C91139726173707480759075B
:1018200039F414962D913C9115972C173D0731F002
:101830003196E530F10509F775E0F72E8F2DDF9130
:10184000CF911F910F91FF90089540E001C04F5F2D
:10185000E42FF0E0EE0FFF1FEE0FFF1FE455FE4FE9
:1018600080819181009779F0209154033091550344
:101870003227232732278217930749F70280F38103
:10188000E02D80E009950895CF92DF92EF92FF92CC
:101890000F931F93CF93DF936C01CB01FA01B90132
:1018A000A801C0E3D3E012E2E12EF12CEC0EFD1E04
:1018B0008E01025F1F4F9827892798279093530323
:1018C000809352039E2F8F2FF70193838283C6014B
:1018D000089698278927982795838483C6014C9674
:1018E000982789279827F8019383828381E181874C
:1018F000CE010E94650AF70117821682F801628103
:101900007381762767277627685F7F4F80913E0334
:1019100090E08F709070880F991F880F991F681B37
:10192000790B9B01275F3F4F40E050E0CE014A9684
:101930000E941A0A982789279827F7019783868398
:10194000C6018A96BE010E94A518DF91CF911F9112
:101950000F91FF90EF90DF90CF900895AF92BF92DC
:10196000CF92DF92EF92FF920F931F93CF93DF936B
:101970006C01C2E5D3E04CEEA42E4FEFB42EAC0EBA
:10198000BD1EE62EFF2486E190E0E89E8001E99EE0
:10199000100DF89E100D11240D581D4FF801868171
:1019A00097819093530380935203848195819B8305
:1019B0008A831B8A1A8A81E094EF9F878E8780E54D
:1019C0008C8764857585868597850E94E306F80176
:1019D00020892D87208921FF15C06F5F7F4F8F4F92
:1019E0009F4F22E02093660324E02093670321E0C9
:1019F0002093680324EF2093690320E62C8734E0CA
:101A0000C32ED12C0E94E306688779878A879B873B
:101A100086E190E0E89E8001E99E100DF89E100D91
:101A200011240D581D4FF80180859185A285B3853D
:101A30008C839D83AE83BF83C601889698278927B0
:101A40009827F5019383828386E08187F80140819E
:101A500051816281738180E393E00E94650A198A53
:101A6000188A609140037091410376276727762793
:101A7000685F7F4F80913E0390E08F709070880F79
:101A8000991F880F991F681B790B9B0122503040CA
:101A900040E050E08AE493E00E941A0A98278927E0
:101AA0009827998B888BC601C69660E373E00E94E5
:101AB000A518F801108ADF91CF911F910F91FF9027
:101AC000EF90DF90CF90BF90AF900895682F482F90
:101AD00050E026E130E0429FF001439FF00D529F1D
:101AE000F00D1124ED58FD4F2FEF3FEF328B218B7E
:101AF00081E1808B80E090E00E94AE0C0895A8E91F
:101B0000B1E020E030E0682F70E046E150E0649FF3
:101B1000F001659FF00D749FF00D1124E758FD4F03
:101B2000408151815427452754276D917C9111970D
:101B30006417750739F02F5F3F4F14962630310533
:101B400079F70895253058F4F901EE0FFF1FEE0FD5
:101B5000FF1FE856FE4F0280F381E02D099508959E
:101B6000863038F590E046E150E0849F9001859FF3
:101B7000300D949F300D1124F901ED58FD4F108266
:101B800011821282138215821482178216821086A5
:101B90001186128613861486158616861786108A75
:101BA000128A118A138AF901E857FD4F80818E7FCE
:101BB000808308958F929F92AF92BF92CF92DF92CF
:101BC000EF92FF920F931F93DF93CF930F92CDB7B6
:101BD000DEB76B017C015A01890180E090E0E6E10B
:101BE000F0E0682F8E9F40018F9F900C9E9F900C7D
:101BF000112423E732E0820E931ED4012D913D91F2
:101C00004D915C911397211531054105510501F561
:101C100089830E94B00DF401C082D182E282F382F6
:101C2000B582A4821783068382ED94E0A0E0B0E041
:101C300080879187A287B38789E299E0A0E0B0E02E
:101C400084879587A687B7878EE1838B698105C0D6
:101C50006F5F01968530910521F6262F30E086E1F1
:101C600090E0289FF001299FF00D389FF00D11247E
:101C7000ED58FD4F82E0808B80E090E00E94AE0C3A
:101C80000F90CF91DF911F910F91FF90EF90DF9018
:101C9000CF90BF90AF909F908F900895FF920F9339
:101CA0001F93CF93DF9340E001C04F5F042F10E0FC
:101CB000E801CC0FDD1FCC0FDD1FC856DE4F888139
:101CC0009981009709F45DC1209154033091550327
:101CD0003227232732278217930739F780915F0332
:101CE000982F9271923109F041C080E393E00E94F5
:101CF000130B60914A0370914B0380914C039091B8
:101D00004D0340915203509153030E94F30B082F4F
:101D1000853008F036C1282F30E086E190E0289F1A
:101D2000E001299FD00D389FD00D1124CD58DD4FF3
:101D30008EE18B8B6C857D858E859F850E94E30669
:101D40006F5F7F4F8F4F9F4F0E94E3066C877D87A9
:101D50008E879F8780E1888B80E090E0602F0E94D3
:101D6000AE0C81E090E09A8B898B0BC1823051F5EB
:101D700080E393E00E94130B60914A0370914B0340
:101D800080914C0390914D03409152035091530325
:101D90000E94F30B682F853008F0F3C0482F50E005
:101DA00026E130E0429FF001439FF00D529FF00D7D
:101DB0001124ED58FD4F82E1808B80E090E00E947D
:101DC000AE0CDFC060914A0370914B0380914C03CD
:101DD00090914D0340915203509153030E94F30B95
:101DE000F82E853058F180915F03857009F4C9C0E1
:101DF00080E393E00E94130B2F2D30E086E190E00A
:101E0000289FE001299FD00D389FD00D1124CD5877
:101E1000DD4F6C857D858E859F850E94E3066F5F13
:101E20007F4F8F4F9F4F0E94E3066C877D878E8781
:101E30009F87888980FF4AC080E142C080E393E0A9
:101E40000E94130B8F2D90E026E130E0829FF0017D
:101E5000839FF00D929FF00D1124ED58FD4F2089C6
:101E600020FD03C0208922FF35C026E130E0829F9B
:101E7000E001839FD00D929FD00D1124CD58DD4FEE
:101E80006C857D858E859F850E94E3066F5F7F4F01
:101E90008F4F9F4F0E94E3066C877D878E879F87B9
:101EA000888980FF13C0F801EE0FFF1FEE0FFF1FA0
:101EB000E856FE4F0280F381E02D8F2D099581E1D8
:101EC000888B80E090E06F2D0E94AE0C8F2D0E94D9
:101ED000B00D57C0208923FF0DC0208924FF0AC000
:101EE000818992890196928B818B88E1808BEA812E
:101EF000FB8145C026E130E0829FF001839FF00D19
:101F0000929FF00D1124DF01AD58BD4F50962C91DA
:101F1000509724FF09C0E857FD4F208120FD04C0E1
:101F20008081816080832DC026E130E0829FD001D6
:101F3000839FB00D929FB00D1124FD01ED58FD4F10
:101F4000808984FF1EC0A857BD4F8C9180FF19C0A7
:101F5000818992892FEF8F3F920799F080E1808BE2
:101F6000818992890196928B818BF801EE0FFF1F78
:101F7000EE0FFF1FE856FE4F0280F381E02D8F2DFC
:101F80000995DF91CF911F910F91FF900895EF92E6
:101F9000FF920F931F9380913C0390913D0326E0A5
:101FA0008830920719F40E94700977C08830910533
:101FB00009F073C080914E0390914F03A09150039C
:101FC000B091510320918F0530919005409191057A
:101FD0005091920582179307A407B50709F042C0F4
:101FE0000E945B08809147038130B9F580915203CC
:101FF0008823C1F0883009F050C060914A03709185
:102000004B0380914C0390914D0300915803109124
:102010005903E0905603F090570340E020E00E94FF
:10202000B80A3BC02091890530918A0540918B0503
:1020300050918C0580914A0390914B03A0914C03E1
:10204000B0914D03281739074A075B0731F5809196
:102050008E05816080938E0520C08630C1F40E9479
:102060004E0E15C08F3F2FEF92072FEFA2072FEFD5
:10207000B20769F020919B0530919C0540919D0528
:1020800050919E0582179307A407B50731F48091FC
:102090004703813111F40E94250C1F910F91FF908D
:1020A000EF900895EF92FF920F931F93CF93DF93DA
:1020B000C0E0D0E006E110E0A3E0EA2EF4E1FF2E5C
:1020C000C09FF001C19FF00DD09FF00D1124ED587D
:1020D000FD4F83898823E9F480819181A281B381B6
:1020E0000097A105B105D9F0E38A8489982F9F5FF5
:1020F000948B863050F0F08A80E090E06C2F0E9444
:10210000AE0C8C2F0E94B00D0AC08C2F0E947F0D48
:1021100006C083898F3F19F083898150838B219674
:10212000C530D10569F6DF91CF911F910F91FF90D6
:10213000EF9008958091700281FF09C00E945210B3
:102140000E94D607809170028D7F80937002199B48
:102150000FC0089588E592E060E373E00E94801963
:10216000009731F0805D9C4FFC0111820E94C70FE7
:10217000199BF0CF809170028E7F8093700208953A
:102180008F929F92AF92BF92CF92DF92EF92FF9287
:102190000F931F93DF93CF93CDB7DEB7AA970FB6F8
:1021A000F894DEBF0FBECDBF4B015C018E01015F15
:1021B0001F4F80918F0590919005A0919105B0914E
:1021C000920588259925AA25BB2520919705309150
:1021D00098054091990550919A0582239323A42351
:1021E000B5230097A105B10549F0F0909305E09063
:1021F0009405D0909505C090960504C0F82CE92C64
:10220000DA2CCB2C88E096E0FE0131969587848706
:10221000CF014F2D5E2D6D2D7C2D0E9433098091B5
:102220008F0590919005A0919105B0919205F801CC
:1022300086879787A08BB18BF08EE18ED28EC38E6E
:10224000A3EBB5E038968D918193118625E0A93BEB
:10225000B207C9F780E091E0F8019183808328E01C
:1022600030E03383228326E0248324E02583978390
:1022700086838AE290E0BE016F5F7F4F0E94A518BF
:1022800004E1C501B4010E941309182F6F2D7E2DA2
:102290008D2D9C2D0E941309853028F0153010F1EA
:1022A00080E090E013C01530E8F090E0FC01EE0F04
:1022B000FF1FE80FF91FEE0FFF1FEE0FFF1FEE5C71
:1022C000FD4F86829782A086B1860CC000000196E1
:1022D000F7E280319F07D1F70E949A10015089F6EA
:1022E00080E001C081E0AA960FB6F894DEBF0FBE71
:1022F000CDBFCF91DF911F910F91FF90EF90DF90B5
:10230000CF90BF90AF909F908F900895E1E8F0E05C
:1023100080818D608083109285001092840086E217
:1023200090E0909389008093880082E080936F0012
:1023300008951F920F920FB60F9211242F933F937F
:102340004F935F936F937F938F939F93AF93BF93BD
:10235000EF93FF9380910601909107019C0121501A
:1023600030403093070120930601009741F581E04A
:1023700090E090930701809306019091C60186B189
:10238000809589279091C901982390959093C901D0
:102390002091C801282329272093C801892382235B
:1023A0009091C60198279093C6019091C701209102
:1023B000C6012823292B2093C7010E94ED27809175
:1023C0000401909105019C0121503040309305019A
:1023D00020930401009709F05CC087EC90E0909393
:1023E0000501809304018091FA029091FB02A09173
:1023F000FC02B091FD020196A11DB11D8093FA026D
:102400009093FB02A093FC02B093FD028091F8022E
:102410009091F9029C012F5F3F4F3093F902209376
:10242000F80224E0813B920718F0E0E0F0E0099424
:10243000809170028260809370020E9494230E94B7
:10244000E92780912E0290912F02A0913002B09145
:1024500031020097A105B10599F080912E0290916B
:102460002F02A0913002B09131020197A109B10968
:1024700080932E0290932F02A0933002B0933102EA
:1024800080917202882329F080917202815080939A
:102490007202FF91EF91BF91AF919F918F917F91C8
:1024A0006F915F914F913F912F910F900FBE0F90C1
:1024B0001F901895E0E0F0E00994089508950895BC
:1024C00008950895FF920F931F93CF93DF93CFE763
:1024D000D1E003E113E0FE012196F49000D000D09A
:1024E000ADB7BEB71196EDB7FEB712830183129652
:1024F000FC92129713961C920E947A050F900F90EF
:102500000F900F90FF2039F7DF91CF911F910F911E
:10251000FF9008952F923F924F925F926F927F9219
:102520008F929F92AF92BF92CF92DF92EF92FF92E3
:102530000F931F93CF93DF9300E010E096E4C92E32
:1025400093E0D92E86E1E82EF12CBDE3AB2EB3E06B
:10255000BB2EA8E38A2EA3E09A2EF3E36F2EF3E0BE
:102560007F2EEEE24E2EE3E05E2E73E2272E73E026
:10257000372E00D000D0ADB7BEB71296DC92CE9207
:10258000119714961C930E9313970E947A050E9D33
:10259000E0010F9DD00D1E9DD00D1124CD58DD4FB3
:1025A00088819981AA81BB8100D0EDB7FEB7B28244
:1025B000A1829070A070B07083839483A583B6834A
:1025C0000E947A0588819981AA81BB81EDB7FEB707
:1025D00092828182892F90E0A0E0B0E0838394838F
:1025E000A583B6830E947A0588819981AA81BB81DF
:1025F000EDB7FEB7728261828A2F90E0A0E0B0E072
:1026000083839483A583B6830E947A058881998108
:10261000AA81BB81EDB7FEB7528241828B2F9927E9
:10262000AA27BB2783839483A583B6830E947A0558
:102630002C813D818C819D810F900F90ADB7BEB7ED
:1026400012963C922E921197892F9927322F22278A
:10265000822B932B14969C938E9313970E947A054A
:102660008B89EDB7FEB7319626E133E0ADB7BEB743
:1026700012963C932E931197828313820E947A05BF
:102680000F5F1F4F0F900F900F900F9005301105A7
:1026900009F06FCFDF91CF911F910F91FF90EF90D5
:1026A000DF90CF90BF90AF909F908F907F906F9072
:1026B0005F904F903F902F9008952F923F924F92AE
:1026C0005F926F927F928F929F92AF92BF92CF92C2
:1026D000DF92EF92FF920F931F93CF93DF9300E06F
:1026E00010E0B8E8CB2EB3E0DB2EA3E8EA2EA3E09F
:1026F000FA2EFEE7AF2EF3E0BF2EE9E78E2EE3E0E1
:102700009E2E74E7672E73E0772E6FE6462E63E009
:10271000562E56E6252E53E0352EE801CC0FDD1F50
:10272000C00FD11FCC0FDD1FCC0FDD1FCE5CDD4FE6
:10273000888100D000D000D0EDB7FEB73196ADB79C
:10274000BEB71296DC92CE921197138302838483D4
:1027500015820E947A0589810F900F90EDB7FEB720
:102760003196ADB7BEB71296FC92EE921197828366
:1027700013820E947A058A81EDB7FEB73196ADB714
:10278000BEB71296BC92AE921197828313820E94BA
:102790007A058B81EDB7FEB73196ADB7BEB712960D
:1027A0009C928E921197828313820E947A058C816B
:1027B000EDB7FEB73196ADB7BEB712967C926E926A
:1027C0001197828313820E947A058D81EDB7FEB73F
:1027D0003196ADB7BEB712965C924E921197828336
:1027E00013820E947A058E819F81A885B98500D0C9
:1027F000EDB7FEB7328221829070A070B0708383F3
:102800009483A583B6830E947A058E819F81A885D3
:10281000B98521E633E0EDB7FEB732832183892FF6
:1028200090E0A0E0B0E083839483A583B6830E9408
:102830007A058E819F81A885B9852CE533E0EDB7B7
:10284000FEB7328321838A2F90E0A0E0B0E083833B
:102850009483A583B6830E947A058E819F81A88583
:10286000B98527E533E0EDB7FEB7328321838B2F9F
:102870009927AA27BB2783839483A583B6830E94C5
:102880007A058A859B850F900F90EAE4F3E0ADB757
:10289000BEB71296FC93EE93119714969C938E9369
:1028A00013970E947A050F5F1F4F0F900F900F90A4
:1028B0000F900530110509F030CFDF91CF911F91B6
:1028C0000F91FF90EF90DF90CF90BF90AF909F90CF
:1028D0008F907F906F905F904F903F902F900895D2
:1028E00000D000D0EDB7FEB7319685E993E0ADB7E3
:1028F000BEB712969C938E9311978091CA018283E2
:1029000013820E947A050F900F900F900F900895F8
:102910008DB79EB70E970FB6F8949EBF0FBE8DBFB2
:10292000EDB7FEB731968DEA93E0ADB7BEB712961C
:102930009C938E9311978091B3058283138280912B
:10294000B405848315828091B505868317828091B2
:10295000B605808711868091B7058287138680919E
:10296000B805848715860E947A058DB79EB70E96A6
:102970000FB6F8949EBF0FBE8DBF0895EF92FF92E1
:102980000F931F9380919F059091A005009709F4E4
:102990004CC020919F053091A0056091A1057091D8
:1029A000A205E090A305F090A4054091A5055091E3
:1029B000A60580E090E0982F872F762F662700E00D
:1029C00010E08701FF24EE246E0D7F1D801F911FF4
:1029D000890120E030E0600F711F821F931F9A0170
:1029E00040E050E0522F442733272227620F731F05
:1029F000841F951F6093890570938A0580938B05CA
:102A000090938C050E94C0106091890570918A0591
:102A100080918B0590918C0548E020E001E010E06A
:102A200031E0E32EF12C0E94B80A1F910F91FF9024
:102A3000EF900895CF92DF92EF92FF920F931F9342
:102A4000DF93CF9300D0CDB7DEB79A838983CE01D1
:102A5000019668E071E00E94EF2D8C01CC240DC03E
:102A6000C394EC2DF0E0EE0FFF1FEE0FFF1FE15BB4
:102A7000FE4F808191810097D1F1EC2CFF24F7016A
:102A8000EE0FFF1FEE0FFF1FE15BFE4F8081918174
:102A9000B8010E94CA2D009719F700E010E06E01FE
:102AA0000894C11CD11CC6016AE071E00E94EF2DA0
:102AB00060E070E040E050E00E945E2CF801EE0F14
:102AC000FF1FE156FA4F718360830F5F1F4F0A307B
:102AD000110549F7F701EE0FFF1FEE0FFF1FE15B36
:102AE000FE4F0280F381E02D099581E001C080E076
:102AF0000F900F90CF91DF911F910F91FF90EF906A
:102B0000DF90CF9008950F931F93CF93DF938C01A5
:102B100080919F059091A0050097A1F0C0E0D0E0C2
:102B2000F999FECFFE01EE0FFF1FE156FA4F6081CB
:102B30007181CE01800F911F0E94482E2196C430D2
:102B4000D10571F7DF91CF911F910F91089586E222
:102B500090E00E94831586E290E040EC58EA60E045
:102B600071E00E941607609393057093940580931B
:102B70009505909396058DB79EB70A970FB6F89472
:102B80009EBF0FBE8DBFEDB7FEB731968FEC93E0C1
:102B9000ADB7BEB712969C938E9311978091930513
:102BA0008283138280919405848315828091950598
:102BB0008683178280919605808711860E947A0508
:102BC0008DB79EB70A960FB6F8949EBF0FBE8DBF05
:102BD0000895EF92FF920F931F9382E290E00E947C
:102BE000831582E290E04FEF5FEF6FEF70E00E949D
:102BF00016077B018C01609397057093980580936D
:102C0000990590939A05DC01CB0180959095A0954C
:102C1000B09520918F05309190054091910550918C
:102C200092052E213F2140235123822B932BA42B4D
:102C3000B52B80939B0590939C05A0939D05B09325
:102C40009E058DB79EB70A970FB6F8949EBF0FBE2C
:102C50008DBFEDB7FEB731968CEE93E0ADB7BEB742
:102C600012969C938E93119780919705828313827D
:102C700080919805848315828091990586831782B7
:102C800080919A05808711860E947A058DB79EB73C
:102C90000A960FB6F8949EBF0FBE8DBF1F910F917D
:102CA000FF90EF9008958EE190E00E9483158EE1F1
:102CB00090E04AE05AE267E173E60E9416076093EB
:102CC0008F057093900580939105909392052091C4
:102CD0009705309198054091990550919A05622386
:102CE0007323842395232095309540955095622B2E
:102CF000732B842B952B60939B0570939C0580937D
:102D00009D0590939E058DB79EB70A970FB6F894D0
:102D10009EBF0FBE8DBFEDB7FEB7319687E094E042
:102D2000ADB7BEB712969C938E93119780918F0585
:102D3000828313828091900584831582809191050E
:102D40008683178280919205808711860E947A057A
:102D50008DB79EB70A960FB6F8949EBF0FBE8DBF73
:102D6000089508950F931F93CF93DF930FE815E015
:102D7000CEE1D0E0F999FECFF80161918F01CE014B
:102D80000E94482E2196C232D105A1F707E915E02D
:102D9000C2E2D0E0F999FECFF80161918F01CE0136
:102DA0000E94482E2196C632D105A1F703E915E00D
:102DB000C6E2D0E0F999FECFF80161918F01CE0112
:102DC0000E94482E2196CA32D105A1F7DF91CF91FA
:102DD0001F910F910895EF92FF920F931F938EE131
:102DE00090E04AE05AE267E173E60E9416076093BA
:102DF0008F0570939005809391059093920582E2E0
:102E000090E04FEF5FEF6FEF70E00E941607609366
:102E10009705709398058093990590939A0586E29B
:102E200090E040EC58EA60E071E00E941607609381
:102E30009305709394058093950590939605E09083
:102E40009705F09098050091990510919A05D80181
:102E5000C70180959095A095B09520918F053091F0
:102E6000900540919105509192052E213F214023DC
:102E70005123822B932BA42BB52B80939B059093EE
:102E80009C05A0939D05B0939E051F910F91FF9007
:102E9000EF900895EF92FF92CF93DF93FC01DB0157
:102EA00034C086958695ED018993808183708295E3
:102EB000807F11968C9311979181992321F4DE01E3
:102EC000119682E025C092959F70980F11969C9361
:102ED000119781818F70880F880F12968C931297AB
:102EE0009281992319F4139681E012C092959695D8
:102EF00096959370980F12969C93129782818F7378
:102F000013968C931397149633968081882349F6F1
:102F10001C92E62EE7017E01F72EE70108C0E8814A
:102F2000F0E0EF73F070E05EFB4FE491E993CA17B5
:102F3000DB07A9F7982FFE012DE302C021939150E2
:102F40009923E1F7C80FD11D1882DF91CF91FF902F
:102F5000EF900895009731F000000000000000009D
:102F60000197F8CF08958EBD0DB407FEFDCF0895EB
:102F7000DF93CF930F92CDB7DEB72A988F71806A17
:102F800069830E94B3176981862F0E94B3172A9A1A
:102F90000F90CF91DF910895DF93CF930F92CDB72C
:102FA000DEB72A988F71806869830E94B3176981A0
:102FB000862F0E94B3172A9A0F90CF91DF91089520
:102FC000FF920F931F93CF93DF93182F9FE1F92E5A
:102FD000F8222F2D2A31D0F4C82FD0E0C076D0703F
:102FE00085E0D595C7958A95E1F70C2F8091CD01A5
:102FF000C81761F08FE163E00E94B817CC2321F07D
:103000008FE16C2F0E94CC170093CD012A988F2D51
:103010000E94B31780E00E94B31717FF03C080E03F
:103020000E94B3178EB52A9ADF91CF911F910F910D
:10303000FF900895FF920F931F93CF93DF93F62E87
:10304000082F0F710A31D0F4C82FD0E0C076D070AD
:1030500025E0D595C7952A95E1F71C2F8091CD01E4
:10306000C81761F08FE163E00E94B817CC2321F00C
:103070008FE16C2F0E94CC171093CD012A98802FDE
:1030800080640E94B3178F2D0E94B3172A9ADF9194
:10309000CF911F910F91FF9008950F931F93CF939E
:1030A000DF93EC018B012A988AE30E94B31707C0D3
:1030B00080E00E94B3178EB589930150104001152E
:1030C0001105B1F72A9ADF91CF911F910F910895C1
:1030D0000F931F93CF93DF93EC018B012A988AE71C
:1030E0000E94B31705C089910E94B3170150104088
:1030F00001151105C1F72A9ADF91CF911F910F9108
:1031000008951F93DF93CF930F92CDB7DEB7982F1B
:10311000162F84ED692F79830E941A1886ED612F8E
:103120000E941A1887ED7981672F0E941A188AE089
:1031300090E00E94AA178AEE0E94E01780FDFBCF64
:103140000F90CF91DF911F910895CF92DF92EF9270
:10315000FF920F931F93DF93CF930F92CDB7DEB7FC
:103160008C016B01198234E6E32EF12C09C08FE14A
:103170000E94E01783FF0CC088EE93E00E94AA171C
:103180000894E108F1088FEFE8168FEFF80679F759
:103190008FE10E94E01783FF08C08FE160E80E9482
:1031A000CC178FE160E80E94B81782E060E00E94CF
:1031B0001A1883E06AE10E941A1886E0602F0E94C4
:1031C0001A1898012050364E87E0632F0E941A1873
:1031D000CE01019661E070E00E946818C601B80156
:1031E0000E9468188CE168E00E94B8178FE168E0DF
:1031F0000E94CC170F90CF91DF911F910F91FF90FC
:10320000EF90DF90CF900895EF92FF920F931F936E
:10321000CF93DF93229A2A9A84B1886284B92D9A37
:103220002498229A80E58CBD81E08DBD80E197E2F3
:103230000E94AA172A988FEF0E94B3172A9A88EE45
:1032400093E00E94AA178DE10E94E01780FFFBCF58
:1032500082E70E94E0178093CA011092B30582E2D0
:103260008093B40589EF8093B50581E08093B6051E
:1032700088E38093B70588EC8093B80500E010E000
:10328000B801F801EE59FB4F84910E5F1F4F6D5945
:103290007B4FFB0164918F3F11F46F3F19F00E9447
:1032A0001A18EECFB801F801EE59FB4F8491F801DE
:1032B000ED59FB4FE4918F3F11F4EF3F71F0E0E0E7
:1032C000EF010D5F1F4F6C597B4FFB01649170E064
:1032D0006C2B7D2B0E948118E5CF1092CC011092AF
:1032E000CB018BE160EC0E941A188FE164E00E9430
:1032F000CC17DF91CF911F910F91FF90EF90089520
:10330000CF92DF92EF92FF920F931F93DF93CF93B1
:1033100000D000D000D0CDB7DEB77C016B0189E3CF
:103320000E94E017882309F471C06091CB0170916D
:10333000CC0180E00E941A182091CB013091CC0181
:1033400081E0632F0E941A18CE01019666E070E0BA
:103350000E944D18898190E09093CC018093CB011D
:103360008091CB019091CC013A8120E0822B932B6C
:103370009093CC018093CB010B8110E09C8180E085
:10338000082B192B8D8190E03E8120E0822B932B1E
:1033900087FF05C097FD03C0E016F10610F40E94F8
:1033A000041904501040E016F10608F48701C60124
:1033B000B8010E944D188091CB019091CC010197EA
:1033C0002AE180309207A8F48091CB019091CC0142
:1033D0006091CB017091CC0161508CE00E941A1871
:1033E0002091CB013091CC01215030408DE0632FF2
:1033F00006C08CE06FEF0E941A188DE069E10E9410
:103400001A188EE160E40E94CC1702C000E010E0C0
:10341000C80126960FB6F894DEBF0FBECDBFCF9180
:10342000DF911F910F91FF90EF90DF90CF90089563
:1034300087E190E065E97AE10E94FE070895CF9365
:10344000DF93C0910001D091010180916E029091B3
:103450006F02C817D90709F465C020E030E086E1A3
:1034600090E0622F289FF001299FF00D389FF00D0A
:103470001124ED58FD4F4681578177E140305707C1
:1034800009F041C08091F70280FD4CC08091F702A5
:1034900081608093F70280910201909103019093E3
:1034A0006F0280936E02A6E6B3E080E090E012C067
:1034B000FA0171917D93F0936F02E0936E02019691
:1034C00073E0EF32F70731F44053504050936F02EE
:1034D00040936E0240916E0250916F02C417D5075F
:1034E00039F746E150E0249FE001259FD00D349F3D
:1034F000D00D1124CD58DD4F28E1288B0E94AE0C51
:1035000083E08B8B0FC02F5F3F4F2530310509F0D3
:10351000A8CF8091710282FF05C0809171028B7FDC
:1035200080937102DF91CF9108951F93CF93DF9322
:10353000182F682F70E086E190E0689FF001699F86
:10354000F00D789FF00D1124ED58FD4F808980FF1C
:1035500006C0809171028B7F80937102BDC081890A
:103560009289009729F0818992898130910549F5E6
:1035700086E190E0689FE001699FD00D789FD00DB3
:103580001124CD58DD4F81E090E09A8B898B86E63F
:1035900093E068E974E046E150E00E94B12D86E1D5
:1035A00090E0612F0E94AE0C809171028460809344
:1035B00071028091F7028E7F8093F7028FEF8B8BE1
:1035C0008BC0818992898230910508F449C0808935
:1035D00083FF46C082E090E0928B818B40915E0336
:1035E00050E0407F507055954795559547954E5DF5
:1035F0005F4FDA01A05DBC4F09C08091C00085FF1C
:10360000FCCF8D918093C6004F5F5F4F8091410347
:1036100090E082963091400320E0820F931FE0916A
:103620005E03F0E0E07FF070F595E795F595E7959E
:103630008E1B9F0B4817590704F386E190E0689FA3
:10364000F001699FF00D789FF00D1124ED58FD4FAA
:1036500080E1808B80E090E0612F0E94AE0C3CC046
:1036600086E190E0689FF001699FF00D789FF00D72
:103670001124ED58FD4F8189928982309105B8F06F
:10368000808984FF14C08091F70280FF10C08FEF03
:10369000838B80916E0290916F02909303018093CF
:1036A00002018091F7028E7F8093F70215C086E1B8
:1036B00090E0689FF001699FF00D789FF00D112454
:1036C000ED58FD4F8089882339F48091F7028E7F71
:1036D0008093F7020E941F1ADF91CF911F910895E6
:1036E00000D000D08FEA94E0EDB7FEB792838183DB
:1036F0008091410390E04C973091400320E0820F8D
:10370000931F948383830E947A050F900F900F90EC
:103710000F90089589E591E060E77BE10E9435080C
:1037200008958F929F92AF92BF92CF92DF92EF92C5
:10373000FF920F931F93DF93CF930F92CDB7DEB716
:10374000682F00915E0310E0007F107015950795BB
:10375000159507950E5D1F4F20E3E22E23E0F22E14
:10376000E00EF11E91EEC92E95E0D92E1AC0D701B8
:103770008D917D0100D000D0EDB7FEB73196ADB789
:10378000BEB71296DC92CE92119782831382698320
:103790000E947A050F5F1F4F0F900F900F900F90B0
:1037A00069812091410330E02E5D3F4F90904003AE
:1037B0008824280D391D40915E0350E0407F5070F1
:1037C0005595479555954795241B350B02171307BB
:1037D00074F2262F30E086E190E0289FF001299FC7
:1037E000F00D389FF00D1124ED58FD4F8FEF838BB6
:1037F00080E1808B80E090E00E94AE0C0F90CF9132
:10380000DF911F910F91FF90EF90DF90CF90BF90CD
:10381000AF909F908F900895DF92EF92FF920F9359
:103820001F93CF93DF938091CE019091CF0182308F
:10383000910580F08091CE019091CF018431910566
:1038400048F48091CE019091CF0101969093CF01E1
:103850008093CE018091CE019091CF01009709F025
:103860008BC000D083ED95E0EDB7FEB792838183E6
:103870000E947A050F900F9082E399E061E97BE165
:103880000E94FE0761ED72EA8AEB9CE30E94C01081
:10389000882309F46BC080E894E8AEE1B0E0000052
:1038A0000197A109B109D9F761ED72EA8AEB9CE3AE
:1038B00040E050E529E032E30E94DA0D50E2D52ED7
:1038C00045E0E42EF12C012D112DC6E1D0E020C001
:1038D00061ED72EA8AEB9CE340E050E50E94F30B55
:1038E000DA9461F400D087EA95E0EDB7FEB79283F1
:1038F00081830E947A050F900F907CC0E82EFF24F0
:1039000000E010E0F5E0EF16F1040105110570F09C
:10391000EC9EF001ED9EF00DFC9EF00D1124ED5893
:10392000FD4F818992898130910591F600D081E81F
:1039300095E0EDB7FEB7928381830E947A0586E118
:1039400090E0E89EF001E99EF00DF89EF00D112444
:10395000E857FD4F80818160808382E090E0909302
:10396000CF018093CE010F900F9006C081E090E0D0
:103970009093CF018093CE018091CE019091CF01A1
:103980008B309105B8F18091CE019091CF018431B7
:10399000910580F500D089E695E0EDB7FEB79283FA
:1039A00081830E947A050F900F9061ED72EA8AEB95
:1039B0009CE340E050E50E94F30BD82EE82EFF2454
:1039C00086E693E06EEC74E04AE950E00E94B12D87
:1039D00086E190E0E89EF001E99EF00DF89EF00D82
:1039E0001124ED58FD4F88E1808B8AE990E06D2D20
:1039F0000E94AE0CDF91CF911F910F91FF90EF903D
:103A0000DF9008958DB79EB70A970FB6F8949EBFC2
:103A10000FBE8DBFEDB7FEB731968DE197E0ADB724
:103A2000BEB712969C938E93119780918F058283D7
:103A300013828091900584831582809191058683FD
:103A4000178280919205808711860E947A058DB732
:103A50009EB70A960FB6F8949EBF0FBE8DBF84E442
:103A600090E06DEE70E20E9435081092B905109258
:103A70008F051092900510929105109292058AE0A0
:103A80009AE2A7E1B3E68093BA059093BB05A093B1
:103A9000BC05B093BD0508950F931F93CF93DF939B
:103AA000EAE5F3E0119295E0EE37F907D9F7EAE598
:103AB000F3E091E090935A03918346E0428358ECFF
:103AC000548368E36583968379EF778320E830E059
:103AD00033872287148E22E2258F768F978F60A3FB
:103AE00051A323E62093460432E83093470433E59C
:103AF000309348042093490425E320934A0490938B
:103B00004B0480934C0427E320934D0423E020933F
:103B10004E0490934F04209350044093510492E339
:103B20009093520494E0909353042091BA0520930B
:103B300054042091BB05209355042091BC0520938B
:103B400056042091BD0520935704C8E5D4E0813088
:103B500019F0833041F506C08093B90500D089EE95
:103B600096E024C086E38093580490935904809192
:103B7000D40580935A048091D50580935B0480918D
:103B8000D60580935C048091D70580935D04CEE5D3
:103B9000D4E09093B90500D08AED96E0EDB7FEB77A
:103BA0009283818309C000D084EC96E0ADB7BEB7A4
:103BB00012969C938E9311970E947A050F900F9006
:103BC0008CE0FE0181938983EF01219681E481835A
:103BD000DE01119686E58983FD01319682E5119615
:103BE0008C93DF0111969DE29183FD0131969CE457
:103BF00011969C93DF01119699E49183FD01319612
:103C000097E411969C93DF01119698E49183FD014E
:103C1000319694E511969C93DF01119623E421835C
:103C2000FD01319611969C9381838FEF828384E20C
:103C300092E064E470E043E450E00FEF1FEF98017E
:103C40000E94440CEDB7FEB73A970FB6F894FEBF4A
:103C50000FBEEDBF319689EA96E0ADB7BEB71296BA
:103C60009C938E93119780918F058283138280910C
:103C700090058483158280919105868317828091B7
:103C80009205808711860E947A05EDB7FEB73196BE
:103C90008BE896E0ADB7BEB712969C938E931197C2
:103CA0008091BA05828313828091BB05848315823B
:103CB0008091BC05868317828091BD05808711861F
:103CC0000E947A05EDB7FEB73A960FB6F894FEBF9C
:103CD0000FBEEDBFDF91CF911F910F9108955F92BD
:103CE0006F927F928F929F92AF92BF92CF92DF920C
:103CF000EF92FF920F931F93CF93DF938091B905BB
:103D0000883099F480912E0290912F02A091300278
:103D1000B0913102883522E0920720E0A20720E02E
:103D2000B20718F483E08093B905DD2425E0C22EA4
:103D300099EF692E96E0792E88E0582E15C03D2D1A
:103D4000343090F087E08093B90500D08EE097E0A2
:103D5000ADB7BEB712969C938E9311970E947A05C9
:103D60000F900F9081E0E4C08091B905833011F18C
:103D7000843028F4813089F08230B8F408C085306E
:103D800049F18530E8F0863009F0CAC0C7C081E04B
:103D90000E944C1DC0927202C3C08091720288239F
:103DA00009F0BEC01092B90513C083E08093B90535
:103DB000DD24B6C0C092720283E00E944C1DB0C0E8
:103DC00080917202882309F0ABC083E08093B9052B
:103DD000D394A6C0EDB7FEB73A970FB6F894FEBFDE
:103DE0000FBEEDBF3196ADB7BEB712967C926E9204
:103DF00011978091D005828313828091D1058483AD
:103E000015828091D205868317828091D3058087A1
:103E100011860E947A058091D005982E99248824D5
:103E2000C401AA2797FDA095BA2F2091D105B22EE3
:103E3000BB24AA249501442737FD4095542F820FB7
:103E4000931FA41FB51F2091D305820F911DA11DA3
:103E5000B11DE0E0EF019E01442737FD4095542F4E
:103E6000820F931FA41FB51F80932E0290932F02E1
:103E7000A0933002B0933102E090BA05F090BB05F8
:103E80000091BC051091BD05E0928F05F092900560
:103E900000939105109392052091CC053091CD05AA
:103EA0004091CE055091CF0520939705309398050A
:103EB0004093990550939A05DA01C9018095909530
:103EC000A095B0952E213F2140235123822B932B87
:103ED000A42BB52B80939B0590939C05A0939D05E7
:103EE000B0939E058091C0059091C105A091C20537
:103EF000B091C3058093930590939405A093950585
:103F0000B09396055092B9052DB73EB7265F3F4F47
:103F10000FB6F8943EBF0FBE2DBF02C01092B90578
:103F20000E949A108091B905883009F008CF80E08E
:103F3000DF91CF911F910F91FF90EF90DF90CF9085
:103F4000BF90AF909F908F907F906F905F900895FB
:103F5000FB01282F392FD90184E09D919193815045
:103F6000E1F708952F923F924F925F926F927F9266
:103F70008F929F92AF92BF92CF92DF92EF92FF9279
:103F80000F931F93DF93CF9300D000D000D0CDB715
:103F9000DEB78C017B015A0140E050E0F2E18F2E48
:103FA000912C860E971EE5E76E2EE6E07E2E76E1DA
:103FB000472E512C4E0C5F1C6EE0262E312C2E0C01
:103FC0003F1CC70102969A83898336E0C32ED12C09
:103FD000CE0CDF1CD7011A96BC83AB83F801E40F2B
:103FE000F51F8081833309F46CC0843358F4813029
:103FF000E1F0813008F482C0833029F1863009F085
:10400000A8C038C0863309F490C0873338F48433AD
:1040100009F464C0853309F09CC073C0833609F489
:1040200095C08F3F09F095C0B5C0CA010196F8014F
:10403000E80FF91F20810196243009F083C0800F1A
:10404000911FB1010EC0CA010196F801E80FF91FD6
:1040500020810196243009F075C0800F911F69817D
:104060007A814D835E830E94A81F4D815E814A5FE5
:104070005F4F90C0CA010196F801E80FF91F208137
:10408000243029F40196800F911FB601EACF0196E2
:10409000283009F057C0800F911FB6014D835E8311
:1040A0000E94A81F4D815E81CA010696800F911F54
:1040B0006B817C810E94A81F4D815E81465F5F4FAE
:1040C00069C0CA010196F801E80FF91F2081019625
:1040D0002430C1F5800F911FB401C3CF4F5F5F4FF4
:1040E000F801E40FF51F80814F5F5F4F8130D1F4FD
:1040F000F801E40FF51F8081F70181834F5F5F4F67
:1041000049C04F5F5F4FF801E40FF51F80814F5F9B
:104110005F4F813039F4F801E40FF51F8081D7013A
:104120008C93ECCF480F511D35C0CA010196F801A0
:10413000E80FF91F20810196243021F4800F911F90
:10414000B2018FCFAC01420F511D24C04C5F5F4FB5
:1041500021C000D000D0EDB7FEB73196ADB7BEB7E5
:1041600012967C926E921197828313824D835E83A6
:104170000E947A054D815E814F5F5F4FF801E40F29
:10418000F51F80814F5F5F4F480F511D0F900F90BB
:104190000F900F90F801E40FF51F80818F3F21F001
:1041A0004A155B0508F41ACF26960FB6F894DEBFC1
:1041B0000FBECDBFCF91DF911F910F91FF90EF9078
:1041C000DF90CF90BF90AF909F908F907F906F9037
:1041D0005F904F903F902F9008951F93CF93DF9360
:1041E00080914003909141030E94DF0622E08935CF
:1041F000920720F000D08BE596E01AC0CEEBD5E018
:104200001992F5E0C83DDF07D9F780915E03883C3D
:1042100061F480915F03883341F4809160038130C1
:1042200021F480916103893F51F000D080E496E051
:10423000EDB7FEB7928381830E947A057DC080919D
:104240004003909141030E94DF06AC014850514069
:1042500086E494E0BE016A5170400E94B21F8091D2
:10426000BF05813039F0813060F1823059F0833000
:10427000E9F412C086EC93E0BE016A51704040E858
:1042800050E007C086E893E0BE016A51704040E408
:1042900050E00E94B21F15C086EC93E0BE016A5147
:1042A000704040E850E00E94B21FECCF00D08EE298
:1042B00096E0EDB7FEB7928381830E947A050F9056
:1042C0000F901091BE051530C1F0163051F112302B
:1042D000A9F580916A0390916B03A0916C03B09152
:1042E0006D038093BA059093BB05A093BC05B09372
:1042F000BD0500D084E196E017C080916A039091DB
:104300006B03A0916C03B0916D038093BA059093F9
:10431000BB05A093BC05B093BD0500D08CEF95E024
:1043200003C000D084EE95E0EDB7FEB792838183A1
:104330000E947A051093B9050F900F90DF91CF91ED
:104340001F910895EF92FF920F931F93E0909705AE
:10435000F09098050091990510919A05D801C70130
:1043600080959095A095B09520918F0530919005FE
:1043700040919105509192052E213F2140235123D8
:10438000822B932BA42BB52B80939B0590939C059C
:10439000A0939D05B0939E0580918F01909190010F
:1043A0000E944C0880918F01909190016BE173E223
:1043B0000E9435088AE09AE2A0E0BFE68093D0012F
:1043C0009093D101A093D201B093D3011F910F918B
:1043D000FF90EF9008950F931F93CF93DF938FE893
:1043E00091E062E370E042E050E00E94302E809164
:1043F0008F01909190012FEF8F3F920731F489E365
:1044000095E09093900180938F018AB1886F8AB96B
:104410008BB187708BB987B1807E87B988B18F6186
:1044200088B9C9EDD5E00CE310E01882C8010E94FC
:10443000402E88838F3F09F4188221960F5F1F4F0B
:104440000834110591F71092E505DF91CF911F9186
:104450000F910895EF92FF920F931F93F82EE62E7F
:104460008C3008F051C08C5E80935A0360935B03DC
:104470000091D0011091D1012091D2013091D3014E
:1044800082E090E066E279E046E259E00E94440C66
:104490008F2D8B3009F45AC0FF2041F1813099F003
:1044A000823099F0833089F0843091F0853099F032
:1044B0008630A1F0873091F0883099F08930A1F0F2
:1044C00057E0F52E13C0FF2411C0FF24F3940EC053
:1044D00042E0F42E0BC033E0F32E08C024E0F22EAD
:1044E00005C095E0F92E02C086E0F82EF0925A033E
:1044F000E0925B0382E090E066E279E046E259E018
:104500000FEF1FEF980120C0883701F58AE08093F4
:104510005A0360935B0382E090E066E279E046E252
:1045200059E00FEF1FEF98010E94440C0091D00159
:104530001091D1012091D2013091D30182E090E01D
:1045400066E279E046E259E00E94440C1F910F9127
:10455000FF90EF9008958F929F92AF92BF92CF926B
:10456000DF92EF92FF920F931F93DF93CF93CDB71C
:10457000DEB763970FB6F894DEBF0FBECDBF0E94C3
:10458000DF2A882319F166E0862E912C8C0E9D1E61
:10459000C4010E94ED2A8823C9F0CE010196AE80A5
:1045A000BF80C884D984EA84FB840C851D852E8550
:1045B0003F85488959896A897B890E94F527C4010A
:1045C0000E9435258C856D850E942A228091D80510
:1045D000882371F01092D8050E941F2C8FEF8983D9
:1045E0008A838B838C838D83CE0101960E944E2813
:1045F00063960FB6F894DEBF0FBECDBFCF91DF91AB
:104600001F910F91FF90EF90DF90CF90BF90AF90F0
:104610009F908F900895E82FF0E0E752FA4F808145
:10462000982F92609083662319F49E7F908308955B
:104630008360808308950F931F9380915A03853A76
:1046400009F06FC080915B038A3509F06AC0009160
:104650005C0310915D030C3080F5123070F500237F
:1046600031F480E0612F0E940B2381E023C00130F0
:1046700031F482E0612F0E940B2383E01BC00230E3
:1046800011F484E017C0033011F485E013C0043046
:1046900031F486E0612F0E940B2387E00BC00530C8
:1046A00011F488E007C0063011F489E003C0073038
:1046B00021F48AE0612F0E940B23802F84518B30DC
:1046C00080F5123070F5043111F480E027C0053117
:1046D00011F481E023C0063111F482E01FC00731DC
:1046E00011F483E01BC0083111F484E017C00931D4
:1046F00011F485E013C00A3111F486E00FC00B31CC
:1047000011F487E00BC00C3111F488E007C00D31C3
:1047100011F489E003C00E3121F48AE0612F0E9478
:104720000B231F910F910895DF93CF9300D000D0FA
:104730000F92CDB7DEB780919101982F9150909351
:104740009101882369F48091D80591E089278093AD
:10475000D805109291018091E6058F5F8093E60560
:104760008091D401882319F081508093D401609105
:10477000D0017091D1018091D2019091D3010E941A
:104780001309E82F20918F053091900540919105F4
:1047900050919205211531054105510551F1609166
:1047A000D0017091D1018091D2019091D301611516
:1047B000710581059105E9F0E53091F02E2F30E08B
:1047C000F901EE0FFF1FE20FF31FEE0FFF1FEE0FB9
:1047D000FF1FEE5CFD4F228533852A30310548F4FA
:1047E0002091D401222329F42CE32093D4010E94A8
:1047F000C0108FEF89838A838B838C838D83CE0156
:1048000001960E944E280F900F900F900F900F90DE
:10481000CF91DF910895DF92EF92FF920F931F9354
:10482000DF93CF93CDB7DEB76D970FB6F894DEBFA9
:104830000FBECDBFD82E85EA89838AE58A838BE0B7
:104840008B8385E08C83262F30E02E5F3F4F95E0F1
:10485000220F331F9A95E1F720612D831E821F825C
:10486000188619861A861B86DC8680E18D871E864F
:10487000FE013396CE010E9631912E85230F2E87A1
:10488000E817F907C9F78E010F5F1F4F8EE0E82E7A
:10489000F12CE00EF11EF80181918F016D8F0E94C5
:1048A0005B056D8D0E151F05B1F729E831E441E078
:1048B0005DE02F87388B498B5A8B8B898E7F826086
:1048C0008B8B83E08C8B6E8B8D2D84568D8B8E0124
:1048D000015F1F4FC8010E94432BC8010E9435256C
:1048E0006D960FB6F894DEBF0FBECDBFCF91DF91AE
:1048F0001F910F91FF90EF90DF9008950F931F93FA
:10490000CF93DF930E94AB2209ED15E0CCE3D0E01A
:10491000F801608161FF0FC0862F8D7F80836170F9
:104920009E01285D822F0E940B24F8016081617036
:10493000CE010E94482E0F5F1F4F2196C834D1052B
:1049400039F7DF91CF911F910F91089580919201D6
:10495000909193010E944C08809192019091930153
:1049600069EF75E20E94350808958FE790E1909312
:1049700093018093920189E996E067EE75E04AE041
:104980000E94A22881EF95E061EA76E04AE00E9469
:10499000A2280895CF93DF93FC01EB014081518160
:1049A00062817381488359836A837B8384818D8389
:1049B000BE016A5F7F4F44819F01285F3F4FCB015B
:1049C000B90150E00E94BA2D88819981AA81BB81EA
:1049D0002C81B7FF02C0226001C02D7F2C83BF71E4
:1049E00088839983AA83BB83DF91CF910895EF9247
:1049F000FF920F931F93CF93DF938C01EB01E62F70
:104A00007E01FF2D80E1DF011D928A95E9F7F80113
:104A100080819181A281B38188839983AA83BB839A
:104A200085818C83685F7F4F458198012A5F3F4F66
:104A3000CB01B90150E00E94BA2DD80114968C9197
:104A4000149781FF09C088819981AA81BB81B068D0
:104A500088839983AA83BB8381E08D83DF91CF9183
:104A60001F910F91FF90EF9008951F93CF93DF93C5
:104A7000EC010E94E529182F81EF95E00E9424297E
:104A800089309105ACF41F3F99F0212F30E084E08C
:104A9000220F331F8A95E1F72555394FCE01B90111
:104AA0000E94F72481EF95E0612F0E94282913C00E
:104AB00081EF95E00E942429893091052CF08091A6
:104AC000E1018F5F8093E1011F3F29F48091E201B2
:104AD0008F5F8093E201DF91CF911F9108950F9333
:104AE0001F938C0181EF95E00E9424291816190666
:104AF000D4F481EF95E00E94C028E82FF0E094E024
:104B0000EE0FFF1F9A95E1F7E555F94F1582202F1B
:104B1000312FD90190E101900D929150E1F70E945F
:104B2000CC2981E001C080E01F910F9108950F937F
:104B30001F938AE593E020E1FC0111922A95E9F7A1
:104B40000E946F259091DF01923009F080E09091F2
:104B5000E001913039F492E09093E00196E0909377
:104B60005F030EC0933049F492E09093E00190937C
:104B70005F039AE09093E90103C0882319F436C0DB
:104B8000882351F080915F03816080935F0380915F
:104B9000DC018F5F8093DC018091DC0180936003F6
:104BA0008091DD018F5F809361036091D5017091E9
:104BB000D6018091D7019091D8010E9413098530C8
:104BC000A9F00091D5011091D6012091D701309123
:104BD000D801011511052105310541F080E190E072
:104BE0006FE770E14FE750E10E94440C1F910F9175
:104BF00008950F931F93DF93CF93CDB7DEB72F9711
:104C00000FB6F894DEBF0FBECDBF9091400380E099
:104C100020914103820F911D8C32910509F0D0C083
:104C200080915F038093DE01909160039093DB019C
:104C3000909161039093D90184FF16C01092DC011A
:104C40001092DA011092D9011092DB011092DD016D
:104C50001092DF011092E0011092D5011092D6015E
:104C60001092D7011092D8014091DF014423F9F44A
:104C700082FFA6C08091DB018093DA0181E08093FE
:104C8000E0018093DF0180914A0390914B03A09152
:104C90004C03B0914D038093D5019093D601A0931E
:104CA000D701B093D80180E00E94972589C0413098
:104CB00059F481FF85C08091D90181508093DC0136
:104CC00082E08093DF017CC0423009F079C080FF30
:104CD00077C080E1EAEFF1E0DF011D928A95E9F704
:104CE0002091DA012F5F30E05091DB01852F90E0B9
:104CF0002817390781F0CE0101966EE0FC01119270
:104D00006A95E9F7498360EA6C834E832F8358875D
:104D10000E94352507C083E08093E0015093DD01B8
:104D20005093DA0180915A0390915B03A0915C0348
:104D3000B0915D038093FA019093FB01A093FC0175
:104D4000B093FD0140915E034093FE0102E012E04A
:104D500022E633E0C801B90150E00E94BA2DC80133
:104D600008976CEE71E00E94CA240E94E529682F22
:104D700089E996E06F870E9424296F858930910523
:104D8000D4F46F3FC1F081E08093FF01E62FF0E0A3
:104D900024E0EE0FFF1F2A95E1F7E555F94FD80102
:104DA000189780E10D9001928150E1F789E996E032
:104DB0000E94282905C08091E3018F5F8093E30161
:104DC0002F960FB6F894DEBF0FBECDBFCF91DF9107
:104DD0001F910F9108951F93CF93DF9380910A0243
:104DE000C82FD0E089E996E00E942429C817D90786
:104DF00034F489E996E00E94242980930A0289E923
:104E000096E00E9424291816190654F50E94E32AF8
:104E1000882331F1CFE1D2E08EE0FE0111928A9534
:104E2000E9F789E996E00E94C028182F282F30E082
:104E300054E0220F331F5A95E1F7C9018555994F68
:104E4000BE010E94CA24812F0E94CC29CE010E945B
:104E5000432B882329F48091E1018F5F8093E10146
:104E600081E00E9497258091E001823039F48091A1
:104E7000E901882319F483E08093E0018091EA013D
:104E8000882309F4A2C01092EA0180911E028823AF
:104E900019F0815080931E026091D5017091D60166
:104EA0008091D7019091D8010E941309E82F209199
:104EB0008F053091900540919105509192052115F3
:104EC00031054105510551F16091D5017091D6012F
:104ED0008091D7019091D8016115710581059105E7
:104EE000E9F0E53091F02E2F30E0F901EE0FFF1FD1
:104EF000E20FF31FEE0FFF1FEE0FFF1FEE5CFD4FE3
:104F0000228533852A30310548F420911E02222360
:104F100029F42CE320931E020E94C010809194017A
:104F2000982F915090939401882309F04EC085E00A
:104F30008093940188E796E5A4E3B2E180931002A0
:104F400090931102A0931202B09313028091140265
:104F500082608093140288E0809315020E94F129F8
:104F600090931602809317028EE08093180280912E
:104F70000A02809319028091E10180931A028091C4
:104F8000E20180931B028091E30180931C028FEE6B
:104F900080931D028FEF80930B0280930C0280930D
:104FA0000D0280930E0280930F028BE092E00E942C
:104FB0004E28609310027093110280931202909316
:104FC000130280E192E00E943525DF91CF911F917D
:104FD000089581E08093EA0108958091E901882392
:104FE00019F081508093E9010895AF92BF92CF925A
:104FF000DF92EF92FF920F931F93DF93CF93CDB782
:10500000DEB72E970FB6F894DEBF0FBECDBFFC0102
:10501000A982BA82CB82DC8289819A81AB81BC81F0
:105020009C01AD011AE156954795379527951A953C
:10503000D1F7277020839C01AD0176E15695479505
:10504000379527957A95D1F72F7021839C01AD0173
:105050006EE056954795379527956A95D1F7228347
:105060009C01AD0196E056954795379527959A9501
:10507000D1F723838F73848380E02E960FB6F89444
:10508000DEBF0FBECDBFCF91DF911F910F91FF907B
:10509000EF90DF90CF90BF90AF900895EF92FF9286
:1050A0000F931F93FC01608167706083A181AF70D3
:1050B000A1832281E38084818F73848330E040E088
:1050C00050E0BEE0220F331F441F551FBA95D1F7A1
:1050D000FF2400E010E0F6E0EE0CFF1C001F111FA3
:1050E000FA95D1F72E0D3F1D401F511F2050304023
:1050F00040405048280F311D411D511D70E080E097
:1051000090E0EAE1660F771F881F991FEA95D1F7B3
:10511000260F371F481F591F8A2F90E0A0E0B0E0EC
:1051200006E1880F991FAA1FBB1F0A95D1F7280F08
:10513000391F4A1F5B1FB901CA011F910F91FF90D0
:10514000EF900895FF920F931F93CF93DF93EC019D
:10515000F62E072F142F862F972F60E070E050E077
:105160000E94C32D1882FC820D83FA820B8319835F
:105170001F831E83DF91CF911F910F91FF900895A0
:10518000FC01A281B3818D919681915019F4918196
:10519000A91BB109B383A28396832FB7F89490819A
:1051A000915090832FBF0895EF92FF920F931F931A
:1051B000DF93CF9300D0CDB7DEB77C01FC018081B7
:1051C000841798F0062F172F0AC0C70149836A83F6
:1051D0000E94C028F80181938F016A814981802F44
:1051E000861B841790F381E001C080E00F900F9040
:1051F000CF91DF911F910F91FF90EF900895DC0107
:105200001296ED91FC91139780810895CF93DF93CF
:10521000FC0180818417A0F0A281B3812681862FB2
:10522000972FEC0180E008C09D919993215019F4CB
:105230002181A21BB1098F5F8417B0F381E001C007
:1052400080E0DF91CF910895FC01808190E0089586
:10525000FC01908181819817A0F4A481B5816D93A0
:105260008781815019F48181A81BB1098783B58397
:10527000A4839FB7F89480818F5F80839FBF81E074
:10528000089580E00895CF92DF92FF920F931F93CD
:10529000DF93CF930F92CDB7DEB76C01F62E062FBA
:1052A000172F80E00AC0F80161918F01C601498380
:1052B0000E9428294981882321F0902F9F19941753
:1052C00090F30F90CF91DF911F910F91FF90DF909E
:1052D000CF900895CF92DF92FF920F931F93DF93A9
:1052E000CF930F92CDB7DEB76C01F62E062F172F96
:1052F00080E00BC0F8016491C60149830E9428290F
:105300004981882331F00F5F1F4F902F9F19941709
:1053100088F30F90CF91DF911F910F91FF90DF9055
:10532000CF9008950F931F93CF93DF93EC01062F37
:1053300010E008C0CE010E94C028682FCE010E9454
:1053400028291F5F1017B0F380E090E0DF91CF9124
:105350001F910F910895EF92FF920F931F93CF9398
:10536000DF938C01EB018881F42E841708F4F82E6A
:10537000EE2408C0CE010E94C028682FC8010E94F8
:105380002829E394EF14B0F38F2DDF91CF911F9173
:105390000F91FF90EF90089590E024E0880F991FFF
:1053A0002A95E1F78555994FFC0180E1DF011D92B7
:1053B0008A95E9F708951F9310E0812F0E94CC2968
:1053C0001F5F1431D1F71F910895E0EBF6E080E004
:1053D0009081992329F08F5F70968431C9F78FEF00
:1053E0000895EDEEF7E02EEF30E081918A3A31F446
:1053F0002F5F3F4F89E0E030F807B8F3C901089507
:105400001F93DF93CF930F92CDB7DEB7182F40983D
:1054100082E069830E94362C812F0E94362C69819C
:10542000862F0E94362C409A0F90CF91DF911F91CA
:1054300008951F93182F409883E00E94362C812FE7
:105440000E94362C8FEF0E94362C409A1F910895AF
:105450001F93DF93CF9300D0CDB7DEB7182F4098BE
:1054600085E04A8369830E94362C812F0E94362C66
:105470006981862F0E94362C4A81842F0E94362C07
:10548000409A0F900F90CF91DF911F91089540980F
:105490000E94362C8FEF0E94362C409A0895EF928E
:1054A000FF920F931F93DF93CF930F92CDB7DEB789
:1054B000182F00D028E637E0ADB7BEB712963C9360
:1054C0002E9311970E947A050F900F90183008F0D4
:1054D0006DC0409A389A00D02EE437E0EDB7FEB7A1
:1054E000328321830E947A052D982B982C98259A37
:1054F000239A24980F900F900E94312C409880ECB2
:105500000E94362C8FEC97E00197F1F700C0000065
:10551000409AAFE1BEE41197F1F700C00000409857
:1055200082E00E94362C88E20E94362C83E0189F8D
:105530007001112487010A5C184F90E0F8018491F2
:1055400099830E94362C99819F5F0F5F1F4F933084
:10555000A9F783E00E94362C409A8FEF90E7A2E0F3
:1055600081509040A040E1F700C000008DE060E075
:105570000E94002A3998419A8CE060E00E94002A3B
:1055800089E20E94192A182FC701895C984FFC01F3
:1055900004918FE060E00E94002A101739F48EE039
:1055A0000E94192A807ED9F781E001C080E00F9027
:1055B000CF91DF911F910F91FF90EF90089581E0BF
:1055C000319980E0089580EA0E94472A982F9475C7
:1055D00081E0943509F480E00895DF92EF92FF9224
:1055E0000F931F93CF93DF93EC0180EB0E94472A28
:1055F000D82E082F10E080E4E82EF12CE022F122D2
:10560000D6FC04C0D7FE36C084E901C080E94098CA
:105610000E94362CCE010E94CF2B8170880F9C8176
:105620009D7F982B9C838FEF0E94362C21E003FFF7
:1056300020E09C819E7F922B9C83182F1F701D83DE
:10564000269600E005C08FEF0E94362C89930F5FED
:105650000117C8F3409AE114F10419F08CE261E0FB
:1056600002C08CE262E040E00E94282A8D2D877003
:105670008F5F01C080E0DF91CF911F910F91FF906C
:10568000EF90DF900895FF920F931F93CF93DF93D6
:10569000EC0180EA0E94472A82FF06C084FF06C010
:1056A00086FD39C014E003C010E001C012E040984C
:1056B000812F80640E94362C8AE18A95F1F700C020
:1056C0006C8166956170CE010E94932B0D810F70E5
:1056D0008C8180FF05C0802F80640E94362C0CC016
:1056E000802F0E94362C2696FF2404C089910E94A8
:1056F000362CF394F016D0F3409A82E08A95F1F7B5
:1057000000C04098112309F411E0812F80680E94A5
:10571000362C409A01C010E0812FDF91CF911F916C
:105720000F91FF900895CF93DF93EC016623E1F092
:105730008A819B8135E0969587953A95E1F78EBDF4
:105740009A81892F880F880F880F807E88609370D8
:10575000892B0DB407FEFDCF9EB50E94362C8981A2
:105760000E94362C888116C08881998123E0969505
:1057700087952A95E1F78EBD88818295880F807E76
:105780000DB407FEFDCF9EB50E94362C80E00E942E
:10579000362C80E00E94362CDF91CF9108951F9324
:1057A000CF93DF93EC018FEF0E94362C182F8FEFF1
:1057B0000E94362C212F30E083FF21C09FEF9EBD39
:1057C00045E0220F331F4A95E1F73B832A830DB44E
:1057D00007FEFDCF9EB599839FEF9EBD982F9370D6
:1057E0002A81922B8695869586958C71982B9A8323
:1057F0000DB407FEFDCF8EB5888381E01CC09FEFFE
:105800009EBD1B821A8293E0220F331F9A95E1F707
:10581000398328830DB407FEFDCF9EB59FEF9EBD53
:105820008295869587709881982B98830DB407FE92
:10583000FDCF8EB580E0DF91CF911F910895DF936A
:10584000CF930F92CDB7DEB78CE10E94192A982F23
:105850008DE199830E94192A99810F90CF91DF9150
:10586000089581E58CBD81E08DBD08958EBD0DB498
:1058700007FEFDCF8EB50895A1E21A2EAA1BBB1B11
:10588000FD010DC0AA1FBB1FEE1FFF1FA217B3070C
:10589000E407F50720F0A21BB30BE40BF50B661F22
:1058A000771F881F991F1A9469F7609570958095E6
:1058B00090959B01AC01BD01CF0108952F923F92BD
:1058C0004F925F927F928F929F92AF92BF92CF92B0
:1058D000DF92EF92FF920F931F93CF93DF934B01D1
:1058E000EA016115710519F0FB018083918320970E
:1058F00039F09E01225030402332310508F0F4C0C7
:10590000A82EB92EF50111915F017F01812F90E042
:105910000E94A92D0097B1F71D3229F4F5011191CC
:105920007F0101E006C01B3219F4F50111917F01DE
:1059300000E0209719F0C031D105B9F4103381F49B
:10594000F7018081883711F0883551F4F701118112
:1059500082E090E0E80EF91E0260C0E1D0E005C0F0
:10596000209719F41033C1F422C0C830D105F9F0E2
:10597000C930D10524F4C230D10509F507C0CA30B9
:10598000D10551F0C031D105D1F427C0A12CB12CE3
:10599000C12CF0E4DF2E26C0CAE0D0E0ECECAE2E45
:1059A000ECECBE2EECECCE2EECE0DE2E1BC0C8E004
:1059B000D0E0A12CB12CC12C70E1D72E13C09E01D8
:1059C000442737FD4095542F60E070E080E090E878
:1059D0000E943C2C59016A0105C0A12CB12CC12C9C
:1059E00068E0D62E40E060E070E0CB011E01442468
:1059F00037FC4094542C50ED752E710EE72DEA3093
:105A000070F0212F21542A3118F439EC732E06C07E
:105A1000212F21562A3130F529EA722E710E272DB9
:105A200030E02C173D07F4F447FD18C0A616B70662
:105A3000C806D90680F0A20191010E94692E670D67
:105A4000711D811D911D6130F0E07F07F0E08F072F
:105A5000F0E89F0710F04FEF01C041E0F70111910E
:105A60007F01C9CF8114910491F0442339F0089447
:105A7000E108F108F401F182E08209C001FF1BC0D6
:105A8000970122503040F4013183208314C047FF36
:105A900012C000FF05C060E070E080E090E804C044
:105AA0006FEF7FEF8FEF9FE722E230E03093EC075C
:105AB0002093EB0716C000FF08C090958095709565
:105AC00061957F4F8F4F9F4F0CC097FF0AC082E2B6
:105AD00090E09093EC078093EB076FEF7FEF8FEFF1
